:020000040800F2
:10000000E004002099210008212100082321000894
:1000100025210008272100082921000800000000F0
:100020000000000000000000000000002B2100087C
:100030002D210008000000002F21000831210008B8
:10004000C5210008C9210008CD210008D1210008E0
:10005000D5210008D9210008DD210008E121000890
:10006000E5210008E9210008ED210008F121000840
:10007000F5210008F9210008FD21000801220008EF
:100080000522000809220008352100080D22000879
:100090001122000815220008192200081D2200085C
:1000A0002122000825220008292200082D2200080C
:1000B0003122000835220008392200083D220008BC
:1000C0004122000845220008492200084D2200086C
:1000D0005122000855220008592200085D2200081C
:1000E0006122000865220008692200086D220008CC
:1000F0007122000875220008792200087D2200087C
:100100008122000885220008892200088D2200082B
:100110009122000895220008992200089D220008DB
:10012000A1220008A5220008A9220008AD2200088B
:10013000B1220008B5220008B9220008BD2200083B
:10014000C1220008C5220008C9220008CD220008EB
:10015000D1220008D5220008D9220008DD2200089B
:10016000E1220008E5220008E9220008ED2200084B
:10017000F1220008F5220008F92200080000000022
:10018000FD220008012300080523000809230008B8
:100190000D23000811230008152300081923000867
:1001A0001D230008212300082523000870B50446FC
:1001B00000250CB9012070BD04F13C06706820B91F
:1001C000B5603070204600F075FA7068C10610D432
:1001D000706820F4885040F002007060204600F003
:1001E000C4F9B560716821F0020141F0010171604C
:1001F00000E0012500203070284670BD38B500F0C1
:1002000059F801D1022032BD00F05CF825D500F08C
:1002100032F846BF906820F00600002000F024F875
:100220000868426842F0806242F02002426000F0BA
:1002300035F806D1816811F0405F0ED100F00FF85B
:100240000BE0DFF81C14884202BFDFF818040268D4
:1002500012F0405F01D100F028F8002032BD816823
:1002600041F08041816070479060002414706FF00D
:100270002200186070475568DFF8EC03054045F42C
:10028000807555605868440505D5506820F40050C5
:1002900040F4805050605068C40470470868DFF82C
:1002A000CC130A6812F01F0F7047016841F08041BB
:1002B000016070470146002001F13C020090137874
:1002C000012B70470120107008688368DC0714D484
:1002D0008368DFF89C4343F001038360DFF89403F5
:1002E0000368B3FBF4F404EB4404009402E00098C8
:1002F000401E009000980028F9D10B689868C40748
:10030000704738B5044621680A684868920729D5BD
:10031000800627D5226CD00603D4226C42F40072EA
:100320002264886810F0405F04BFA069002812D1E1
:10033000C86A10F4700F02D0886842050BD4486870
:1003400020F020004860206C20F480702064206C35
:10035000C10400F066F8204600F04BFB21686FF006
:100360001200086021680A684868520730D5000604
:100370002ED5226CD00603D4226C42F400522264A3
:10038000886810F4401F1CD1886B10F4401F02D005
:100390008868420515D44868420512D4886810F070
:1003A000405F04BFA06900280BD1486820F080009E
:1003B0004860206C20F480502064206CC10500F05F
:1003C00030F8204600F096FB21686FF00C000860C2
:1003D000206802684168D2070FD549060DD500682C
:1003E000C1070AD5206C40F480302064204600F01C
:1003F00082FB21686FF00100086020680268416894
:1004000092060DD549010BD5626C42F0020262647E
:100410006FF020050560204600F06EFB2068056047
:1004200031BD03D4206C40F00100206470470068A7
:10043000C06C704778B502460020009092F83C30BE
:10044000012B01D1022072BD012082F83C0007245B
:100450000B6810680A2B11D30A3BC56803EB4303F2
:1004600000F077F8C460C3680D688C68A5F10A06CF
:1004700006EB4606B4402343C3600FE0056903EB77
:10048000430304FA03F325EA0303036103690D68D8
:100490008C6805EB4505AC40234303611F244B6882
:1004A000072B0CD25B1E456B00F051F84463436B85
:1004B0004D680C886E1E00F045F843631BE00D2B61
:1004C0000CD2DB1F056B00F042F80463036B4D6830
:1004D0000C88EE1F00F036F803630CE00D3BC56A94
:1004E00000F035F8C462C36A4D680C88A5F10D06AA
:1004F00000F028F8C3625A4B98421ED10C685B4842
:10050000122C03D1036843F4800303600B685A4C38
:10051000A34218BF112B10D1036843F400030360FA
:100520000868A04209D15349514C0B68B3FBF4F45D
:100530000A204443009400F010F8002182F83C1097
:10054000002072BD06EB8606B4402343704703EBE0
:1005500083039C4025EA0404704702E00098401E93
:10056000009000980028F9D17047404A116821F4A2
:1005700040311160136841680B431360026853688F
:1005800023F4807353605168036941EA0321516089
:10059000516821F040715160536881680B4353608A
:1005A000936823F4006393609368C1680B4393607E
:1005B0003249836A8B4210D0936823F07063936052
:1005C0009368816A0B439360936823F04053936070
:1005D0009368C16A0B43936007E0916821F07061F2
:1005E0009160916821F040519160916821F0020181
:1005F00091609168836941EA43019160016A002931
:1006000051680CD041F400615160516821F460419F
:1006100051605168436A5B1E41EA433101E021F4B5
:1006200000615160D16A21F47001D162D16AC3695D
:100630005B1E41EA0351D162916821F4007191601F
:100640009168036B41EA43219160916821F48061D4
:1006500091609168406941EA802191607047000093
:100660000020014008200140FEF9FFFF0423014063
:1006700040420F000C000020120000100100000F8B
:1006800081B00020009000224B48416841F4804135
:100690004160416801F48041009100990092036833
:1006A00043F080530360006800F080500090009891
:1006B00001B0704738B586B000F079F824683F4D36
:1006C000AC4228D10020009000223D48416941F40D
:1006D00000714161416901F400710091009900923B
:1006E0004021036843F0010303600322006800F027
:1006F000010000900098334801910292002103917B
:1007000001A900F017FA00220021122000F026FBB8
:10071000122000F040FB07B030BD81B00068B0F19E
:10072000804F0BD1002124480091026842F0010261
:100730000260006800F001000090009801B070476E
:1007400081B00068204988420BD100221A480092EB
:10075000016841F004010160006800F004000090AD
:10076000009801B0704738B586B000F020F82468D2
:10077000154DAC4219D100200090022210480168AA
:1007800041F0080101604FF40051006800F00800DA
:10079000009000980D48019102920021039104916C
:1007A0000221059101A900F0C5F907B030BD04464A
:1007B00001A8142100F01ABB40380240002101407A
:1007C000303802400000024000080040000C0240A7
:1007D00030B589B000F00EFB00F0C0F801A814217C
:1007E00000F004FB00200090AA4CAB48AB4D016820
:1007F00041F080010160026802F080020092002254
:1008000000990092036843F001030360016801F05E
:100810000101009100990092036843F0080303600E
:10082000016801F008010091009900924FF4005115
:10083000036843F040030360006800F0400000904C
:100840000098204600F052FA4FF400510191012225
:10085000002103910491029201A9204600F06AF957
:100860006846102100F0C2FA8D4C8E4820604FF48B
:1008700080318D48A06200220120E06160616160EA
:10088000A2602261A2612262E262E26022632046EB
:10089000FFF78CFC062001210090019100220292BA
:1008A00069462046FFF7C6FD90A01C2100F050F8D5
:1008B00000F09CFA7D48E863002129640020686408
:1008C00040F2FF71E864A96405F13C0000F0C2FA4F
:1008D00000210091019105F13C00694600F072FC95
:1008E00060210022029103920492069202A904223E
:1008F00005F13C0000F0E6FA05F13C00FFF733FF9C
:1009000078A000F025F81C2100F070FA4FF080402C
:10091000286000214FF0FF30E8606960A96029611C
:10092000284600F081FA002100910191284669468D
:1009300000F048FC002102910022049103920692EB
:1009400002A9284600F09BFA2046FFF757FCFEE775
:10095000D0E90023CDE9002302A8704780B592B00A
:1009600006A8302100F042FA01A8142100F03EFA56
:10097000002000904FF480334D48016841F08051D1
:1009800001600021006800F0805000900098494804
:100990000091026822F4404242F480420260012247
:1009A000006800F44040009006A8009906920221D9
:1009B0004FF480020C910D92042164220E910F924B
:1009C0000221042207931091119200F021FC0221D0
:1009D0000291002203920F204FF4A0510190049144
:1009E0004FF480520592032101A800F08DFD13B051
:1009F00000BD10B52A4C2046FFF719FD00EE100A85
:100A000084ED120AB8EE400A10EE100A00F03AFE29
:100A100002460B460020284900F058FE0022274BD2
:100A200000F078FF01F034F801F092F8244A254BE9
:100A300001F0A0F8244A254B00F06CFF02460B465B
:100A40000020234900F042FE01F066F9E06400F066
:100A500019FE4FF066321F4B00F05CFF01F05CF9AD
:100A600000EE100A84ED140A00F00CFE00221A4B6E
:100A700001F080F80022194B00F028FE0022184BEC
:100A800000F048FF01F048F960652046BDE81040DD
:100A9000FFF7B4BB001802403038024010000020BD
:100AA00088000020002101400100000F00080040E4
:100AB00040380240007000400000B0400000F0BF2D
:100AC000E7E81A355B7B2E3F83DBB5DCE1796B3FD2
:100AD0000000F03F661271C0000022400000144088
:100AE0000000404000000000000000000000000086
:100AF0000000000070477047704730B4002513E0D5
:100B000050F8042BD30744BFA9F101039A18091F19
:100B1000042942F8045BFAD213468C0744BF1580BF
:100B20009B1CC90748BF1D7050F8041B0029E7D162
:100B300030BC70472DE9F84702460B4600246D484B
:100B40000F2101271D68A74007EA0508B84540F0B6
:100B5000C7805D68022D18BF122D4FEA840911D19C
:100B6000E50802EB850C09F01C05DCF820E0D3F861
:100B700010A001FA05F62EEA06060AFA05F5354335
:100B8000CCF820504FEA440C0326156806FA0CF600
:100B90006FEA060E1E7906F003060EEA050506FA50
:100BA0000CF6354315605D68012D18BF022D03D08A
:100BB000112D18BF122D10D19568DE680EEA0505BB
:100BC00006FA0CF635439560556825EA07075D6817
:100BD000C5F30015A5402F435760D7680EEA0705F7
:100BE0009F6807FA0CF63543D5605D68EF0077D54E
:100BF0000025009509F00C0907683F4E47F480472F
:100C0000076001FA09FE056805F480450095009F1C
:100C1000A70856F8275025EA0E0E384DAA4208BFFD
:100C200000252CD0364DAA4208BF012527D0354DCE
:100C3000AA4208BF022522D0334DAA4208BF03258D
:100C40001DD0324DAA4208BF042518D0304DAA420B
:100C500008BF052513D02F4DAA4208BF06250ED088
:100C60002D4DAA4208BF072509D02C4DAA4208BF26
:100C7000082504D02A4DAA420CBF09250A2505FAE9
:100C800009F545EA0E0546F827506FEA0807254E94
:100C9000356807EA050C5D68ED0348BF48EA0C0CAF
:100CA000C6F800C0756807EA050C5D68AD0348BF6B
:100CB00048EA0C0CC6F804C0B56807EA050C5D6884
:100CC000ED0248BF48EA0C0CC6F808C0F56807EA10
:100CD000050C5F68BD0248BF48EA0C0CC6F80CC0A2
:100CE000641C0F2C7FF62DAFBDE8F18702B9090413
:100CF00081617047443802400838014000000240DA
:100D00000004024000080240000C024000100240B3
:100D10000014024000180240001C02400020024063
:100D200000240240003C01400901020006D5294A86
:100D300000F00F00104400F8041C7047264B1954B3
:100D40007047264B19684FF6FF020002114000F46D
:100D5000E0600843224908431860704738B51F4BCC
:100D60001C68C4F30223C3F10704052C28BF042424
:100D70001D1D072D34BF0023DB1E012505FA04F4D9
:100D8000641E2140994005FA03F35B1E1A4011438B
:100D9000BDE83440C8E7012200F01F01114BFFE716
:100DA0008A40400943F82020704710B5401EB0F13A
:100DB000807F01D3012010BD0B4C60600F214FF0EC
:100DC000FF30FFF7B1FF0021A16007202060002065
:100DD00010BD000018ED00E000E400E00CED00E0C4
:100DE0000000FA0500E100E010E000E0002200F061
:100DF000C7BF000080B50B48016841F40071016075
:100E0000026842F480620260016841F4807101600E
:100E10000320FFF796FF002000F0CCFFFFF730FC27
:100E2000002002BD003C024038B5040001D1012081
:100E300032BD00F020F818B900F019F8FFF76DFC8A
:100E400002206870211D206800F0BAF80120687047
:100E5000002032BD38B5040001D1012032BD00F0C0
:100E60000AF818B900F003F8FFF76AFCE8E7002178
:100E700029702046704704F138056878704738B506
:100E800000F138042378012B01D1022032BD012367
:100E90002370022565704AB1042A0BD0082A0DD0B0
:100EA0000C2A04BF006800F053F90AE0006800F063
:100EB000FCF806E0006800F0CBF802E0006800F003
:100EC0001CF977E070B500F063F801D1022070BD25
:100ED00000F065F832B1042A17D0082A28D00C2A6D
:100EE00039D04AE03068294600F0DFF8306881697F
:100EF00041F0080100F048F821F0040181613168F7
:100F00008A69286902438A6137E03068294600F01F
:100F10009FF83068816941F4006100F035F821F4F0
:100F2000806100F031F82A6941EA0221816124E000
:100F30003068294600F0E1F83068C16941F00801E5
:100F400000F01EF821F00401C1613168CA69286906
:100F50000243CA6111E03068294600F0F9F83068B0
:100F6000C16941F4006100F00BF821F4806100F0E8
:100F700007F82A6941EA0221C16100F015F870BD45
:100F8000C1613068C16970478161306881697047AB
:100F9000064606F138040D462078012870470120E6
:100FA0002070022161707047012060700021217063
:100FB000002070470120607000212170002032BDA8
:100FC000F0B5754C0568754B754E764FDFF8D8C196
:100FD000A04218BFB0F1804F07D0604518BFB8429B
:100FE00003D0B04218BF98420DD14A6825F0700571
:100FF0001543A04218BFB0F1804F17D060451CBF09
:10100000B842B04212D098421CBF684A90420DD0FC
:10101000674EB0421CBF674A904207D0664EB0424E
:101020001FBF664A9042664EB04203D1CA6825F49B
:10103000407515430560A0428D68C5620A688262EA
:1010400012BF98420969016301224261F0BD0000AC
:1010500070B5026A504E22F010020262B042056A78
:10106000436884690A6824F4E64444EA02248A68EE
:1010700025F0200545EA02151CBF484A90420DD1D3
:10108000CA684E6925F0800545EA02158A6923F48D
:101090004063164325F0400543EA860343608461BC
:1010A00049688163056270BD0000F0B5026A5208AC
:1010B00052000262066A446885690B688A6825F0F6
:1010C00073051D4326F002061643334B98421CBF9E
:1010D000324FB8420BD1CA684B6926F0080624F497
:1010E000407416438A691C4326F004061443446086
:1010F0008561496841630662F0BD70B5026A22F4F9
:1011000080720262056A4368C4690A688E6824F0C6
:101110007304144325F400751F4A45EA06259042DE
:101120001CBF1E4EB0420DD1CA684E6925F4006541
:1011300045EA02258A6923F44053164325F4806565
:1011400043EA06134360C4614968C163056270BD28
:1011500070B5026A104E22F480520262B042046AF4
:101160004268C3690D6823F4E64343EA05238D68AA
:1011700024F4005444EA05341CBF084DA84204D1AD
:101180004D6922F4804242EA85124260C361496897
:101190000164046270BD00000000014000040140D1
:1011A000000C0040000800400004004000400140E6
:1011B000004401400048014000180040001C00406D
:1011C0000020004030B500F138031A78012A01D11F
:1011D000022030BD01221A7002245C70026854683B
:1011E00024F070045460046865680A6815436560FB
:1011F0000268946824F080049460026894684868E7
:1012000004439460012159700020187030BD000023
:101210002DE9F843040017D02078B74EC10745D513
:10122000B06800F00C00042807D0B06800F00C0093
:1012300008280BD17068410208D53068810335D584
:101240006068002840F0BA80012053E16068B0F582
:10125000803F04D1306840F48030306011E0B0F558
:10126000A02F306806D140F480203060316841F40E
:10127000803105E020F480303060316821F4802135
:101280003160606868B100F0B5FD054630688103E3
:1012900000F1948000F0AEFD401B6528F6D30320DA
:1012A00028E100F0A7FD05463068810340F1868003
:1012B00000F0A0FD401B6528F6D3F0E700F09AFD92
:1012C000401B022840F2A780E9E7E06870B10121E5
:1012D000396000F08FFD05463068810700F1CB8052
:1012E00000F088FD401B0228F6D9D8E7386000F0EE
:1012F00081FD05463168880763D500F07BFD401B02
:101300000228F7D9CBE7086000F074FD0546706F3E
:10131000810775D500F06EFD401B0228F7D9BEE7A6
:101320000528306F06D140F004003067306F40F080
:10133000010005E0400840003067306F20F00400F5
:10134000306741F28938A06868B100F053FD8146EA
:10135000306F810700F19C8000F04CFDA0EB09008C
:101360004045F5D39BE700F045FD8146306F81078E
:1013700040F18E8000F03EFDA0EB09004045F5D322
:101380008DE700F037FD401B022840F2968086E78B
:1013900000F030FD001B022840F2A7807FE700200C
:1013A000386600F027FD04463068810140F1A180D5
:1013B00000F020FD001B0228F6D970E720784F4F7F
:1013C00081071BD5B06810F00C0F09D0B06800F091
:1013D0000C0008287FF479AF706841023FF575AFC3
:1013E0003068810703D5E06801287FF42DAF3168AC
:1013F000206921F0F80141EAC00131602178080735
:101400000DD560693E4900283FF47DAF01220A6096
:1014100000F0F0FC0546706F81077FF54FAF207834
:1014200041073AD5306C0025C1000AD4009501254A
:10143000316C41F080513164306C00F0805000908C
:101440000098DFF8C080D8F80000C1051BD4D8F898
:10145000000040F48070C8F8000000F0CBFC81462A
:10146000D8F80000C1050ED400F0C4FCA0EB0900C0
:101470000228F5D913E73068216920F0F80040EA26
:10148000C1003060BAE7A06801287FF449AF4DE79A
:101490001DB1306C20F080503064A06948B3B16851
:1014A00001F00C0108293FF4CFAE02287FF477AF9A
:1014B0000020386600F09EFC0546306881013FF54B
:1014C00060AFE269206A616A0243A06A400842EAAA
:1014D0008112401E42EA0042E06A42EA0062726003
:1014E0000121396600F086FC0446306881017FF5F1
:1014F0004FAF0020BDE8F2830038024000004742B1
:10150000800E4742007000402DE9F04104000F4674
:1015100077D0404E306800F00F00B84202D200F0A1
:1015200072F86ED120683C4D810712D5400703D573
:10153000A96841F4E051A9602078010703D5A868A3
:1015400040F46040A860A968A06821F0F001014360
:10155000A9602178C8074CD56068012802D12968A4
:101560008A0305E0022818BF032803D129688A01ED
:1015700003D446E029688A0743D5A968890840EA68
:101580008100A86000F036FC8046A868616800F021
:101590000C00B0EB810F2CD000F02CFCA0EB08006D
:1015A00041F289318842F0D3032020E020784107BE
:1015B00005D5AA68E06822F4E0520243AA602178C7
:1015C000080706D5A968206921F4604141EAC001F5
:1015D000A96000F027F8AA681049114BC2F3031262
:1015E000895CC8401860002000F0E4FB0020BDE8E2
:1015F000F081306800F00F008742D7D200F003F886
:10160000D4D00120F3E73770316801F00F01B942FF
:1016100070470000003C02400038024030200008C3
:101620000C00002030B5144C606800F00C00042859
:1016300002D0082802D01DE0104830BD2268206882
:101640000023410202F03F0204D525680B49C5F38F
:10165000881003E020680A49C0F38810A1FB00014C
:1016600000F0CEFB2168C1F30141491C4900B0FBE9
:10167000F1F030BD024830BD0438024000127A005B
:101680000024F400C0F3C75181B1FF2906D0C11076
:10169000400721F0E04101F16051704741020CBF69
:1016A00040F4E0016FF000410020704700F000417D
:1016B00000020AD0B0FA80FC00FA0CF001F160518F
:1016C000A1EB0C5101EBD02140057047F0B540F281
:1016D000FF7581EA030C0CF0004C15EA11541DBF94
:1016E00015EA1357AC42AF42E5E0BC41C1F3130128
:1016F000C3F31303801A994143F4801304D2641E88
:101700004000494180185941C90241EA5051B1FB9A
:10171000F3F603FB1611A2FB0675D7EBC020A94117
:1017200002D2761E80185941C90241EA5051B1FBDC
:10173000F3FE03FB1E11A2FB0E75D7EBC020A941DF
:1017400003D2AEF1010E80185941890241EA90514D
:10175000760546EA8E2EB1FBF3F603FB1611A2FBCB
:101760000675D7EB8020A94102D2761E8018594118
:10177000C90241EA50514EEA060EB1FBF3F603FBF3
:101780001611A2FB0675D7EBC020A94102D2761E26
:1017900080185941C90241EA5051B1FBF3F703FBEC
:1017A0001711A2FB0735D3EBC020A94167F1000751
:1017B0000CBF004247F0010766F3D5274FEA1E3100
:1017C000B80814F5806412DDBD0775F1004250EBD6
:1017D0000E5051EB045111F5801F5CBF41EA0C0122
:1017E000F0BD4CF07F6141F0E0410020F0BDBD074D
:1017F0006D0840EA0E5041F48011D4F10104B4F1B7
:1018000020060ADAC4F120060200E04001FA06F3DD
:10181000E1401843B24015430EE0342C13DCC6F10E
:10182000200445EA40056D0820FA06F2154321FA26
:1018300006F0A1400D43002175F1004250F1000077
:1018400051EB0C01F0BD00205FEA0C01F0BDCFB9F7
:1018500092185B41B3FA83F704BFB2FA82F6BF195C
:101860000B3FB7F120062FBF02FA06F3BB40C7F1CA
:10187000200622FA06F638BF3343BA401CB1E419F9
:10188000641E33E77F4231F00041B1FA81F404BFB6
:10189000B0FA80F6A4190B3CB4F120062FBF00FA71
:1018A00006F1A140C4F1200620FA06F638BF314304
:1018B000A0403C1B1AE7AC421ABF05EA1357AF42DF
:1018C00012E050EA41061CBF52EA4306BFE750EA65
:1018D0004107304661461CBF41EA0551F0BD52EA5E
:1018E000430C08BFC143F0BD00204FF4001616EBB7
:1018F000410F98BF16EB430F08BF16EB410F24BFF3
:10190000C14305E016EB430F0CBF61464CEA05519D
:10191000F0BD000070B44FF0004591EA030F40F1B4
:10192000F3826B40841A71EB030604D26E40001BF5
:10193000B141121973414FF4001C1CEB410F34BF2D
:101940007CEB430683E00C0DA4EB1356362E00F31C
:101950007C80012E45EAC32341DC43EA525312BF87
:10196000D20292025B08240545EAC12141EA5051A6
:10197000D2EBC020994125D407D1B0FA80F610FAF5
:1019800006F162D00020203608E0B1FA81F6B140BD
:10199000C6F1200220FA02F21143B0404FEAF4747B
:1019A000B4EB465434F001064FEA74040AD8D6F575
:1019B0000016760D04F00044F04061FA06F2504043
:1019C000F1404840C00A40EA415021F0004128BFA0
:1019D0005FEA500550F1000044EBD12135E0DB0A0D
:1019E00045EAC121C90AB6F120050EDD42EA0242EC
:1019F000120CC5F1200603FA06F6EB4042EA060592
:101A00006D42984161F100010DE062FA06F5F24085
:101A1000554063FA06FC82EA0C02F3405A406D42DC
:101A2000904161EB030111F4801F05D1641E620532
:101A300002D06D004041494121F48011430875F105
:101A4000004350F1000041EB045170BC70471CEBA7
:101A5000410F15D223F0004352EA43060BD04FEA60
:101A60004C0CBCEB410F04D80C0D661E342EB7DDB8
:101A7000EBE7801A994150EA410608BF0021E4E7EC
:101A800008BF1CEB430F28BF6FF00001DDE700002B
:101A900010EE100AB5EE400A4FF0807C1CEB400FB0
:101AA00042D2F1EE10FADFF8A4C0DCEC090A45DD01
:101AB0005FEAD05C2BD0ACF17E0CA0EBCC5000EEFA
:101AC000100AB4EE600AF1EE10FA44BFACF1010C5A
:101AD00020EE210A00EE90CAF8EEE00A70EE415ABC
:101AE00030EE016A85EE866A66EE066A02EEA63A76
:101AF00043EE263AB0EE650A03EEE60A20EE066AE9
:101B000004EEE06A35EEC60A04EE200A704720EEC5
:101B1000020A10EE100A4FEAD05CACF17E0CA0EB8A
:101B2000CC50ACF1170CCAE707D8004244BF6FF0A5
:101B3000004000EE100AAFF300807047F6DB6FF054
:101B40000000C00500EE100A7047000040200008A9
:101B5000C11768B14840401AB0FA80F29040D21CD8
:101B6000C907C2F5846241EA025202EBD021400566
:101B700070470000B0B581EA030C0CF0004C40F255
:101B8000FF7515EA11541DBF15EA1357AC42AF4259
:101B900039E0E41923EA455343F48013C90241F0C4
:101BA000004141EA505EC7021100A7FB0202002873
:101BB0004FF00000EEFB01204FF00001E3FB072196
:101BC00018BF42F00102401800214941E3FB0E0119
:101BD000A4F580640F0302D252004041494154F100
:101BE00001046CDD470872F1004250F1000051EB36
:101BF0000451A1F580115CBF41EA0C01B0BD4CEA73
:101C000005510020B0BD05EA1357AC4214BFAF42E6
:101C100041E050EA410E1CBF52EA430E02E0614629
:101C20000020B0BD24423C441BD15FEA070EF6D031
:101C3000090302BF01460020AEF1140EB1FA81F78C
:101C4000AEEB070401FA07FE0C37C7F1200100FADA
:101C500007F7C8404EEA000E23EA455343F48013C9
:101C6000A2E733F00043B3FA83F704BFB2FA82FE6F
:101C700077440B3FE41BB7F1200E2FBF02FA0EF39F
:101C8000BB40C7F1200E22FA0EFE38BF43EA0E0316
:101C9000BA40641C82E750EA410E14BF52EA430E78
:101CA0006FF000014FF4001717EB430F8ABF19467E
:101CB00017EB410FB5E74CEA05510020B0BDD4F158
:101CC0000104B4F120070FDAC4F12007520828BF3D
:101CD00042F0010210FA07F501FA07F7E1BF2A43C3
:101CE000E0403843E1400FE0352C98DCC7F1200498
:101CF00052EA400220FA07F218BF42F0010231FA1C
:101D000007F0A1400A43002172F1004250F10000A7
:101D100051EB0C01B0BD000001F000428B1AA3F1A1
:101D20006051B1F5801F0ADBB1F17F6F1FD242EA2B
:101D3000C102C10071F1004142EB507070470B15B8
:101D4000C3F10903212B10D2890241EA905180028C
:101D50000128494141F0004121FA03F0C3F1200379
:101D6000994071F1004150417047100070476FF089
:101D7000000013EB103F5CBF000E42EAC0507047FA
:101D800000B500BF130096469446103928BFA0E85E
:101D90000C50FAD85FEA417C28BF0CC048BF40F81D
:101DA000042BC90728BF20F8022B48BF00F8012BDD
:101DB00000BD000038B50D4D0D4B2A7804464FF498
:101DC0007A711868B1FBF2F2B0FBF2F0FEF7EDFFAA
:101DD00050B9102C08D2002221464FF0FF30FEF7F8
:101DE000BDFFAC60002032BD012032BD00000020EC
:101DF0000C00002001484068704700BF0000002030
:101E0000D3BBD9B1B2F5803F5BD2022A1ED98C4632
:101E1000B1FBF2F102FB11C31B0443EA1043B3FB15
:101E2000F2FC02FB1C3380B240EA0343B3FBF2F046
:101E300002FB103240EA0C4000237047022A05D909
:101E40008446B0FBF2F002FB10C270474AB105D1E4
:101E500000F0010249085FEA3000704700220023C9
:101E6000704700F0BBB80B00020000210020704753
:101E7000F7D3002200237047904271EB030CF2D39A
:101E800070B5B1FA81F4B3FA83F52C1BA340C4F109
:101E9000200532FA05F63343A2405FF00046E640E3
:101EA00002E05B085FEA3202841A71EB030524BF8B
:101EB000204629467641F4D302000B003000002171
:101EC00070BD70B5B1FA81F4B2FA82F5C4F12004A4
:101ED0006419B4F12006DAD3B2405FF00044F44054
:101EE000002502E052085FEA3303C61A71EB020EC6
:101EF00024BF3046714664416D41F3D302000B00AC
:101F00002000290070BD0000841A71EB030603D283
:101F1000001BB141121973414FF4001C1CEB410F1F
:101F200034BF7CEB430442E00C0DA4EB1356352E7A
:101F30004FDC45EAC323DB0A45EAC121C912B6F1E9
:101F400020050DDD63FA05F6EB4086EA0305124233
:101F500018BF45F00105C01851F100010CD213E083
:101F600062FA06F5F2405540F3415A40B340F3405F
:101F70005A408018594107D349085FEA30005FEAA8
:101F8000350528BF45F0010501F58011420875F1BE
:101F9000004250F1000041EB04514E0016F5001FC5
:101FA00070BC38BF70470020090D090570471CEB55
:101FB000410F10D252EA43060BD0BCEB410F05D8BB
:101FC0000C0DAB43661E342EB6DD02E0AB43801829
:101FD000594170BC704770BC7047000070470000EA
:101FE0000E48016841F47001016000220C49086844
:101FF00040F0010008608A600B680A480A4A034002
:102000000B604A6000200B68084A23F480230B60B1
:10201000C8604FF0006111607047000088ED00E07B
:1020200000380240FFFFF6FE1030002408ED00E00B
:102030000000000000000000010203040607080978
:10204000F304353F0000803F000000400000004BDB
:102050001502993E11AECC3EC0AA2A3F1672313FFE
:10206000E8E8FB331872313FD85BDE3E2837A932EF
:10207000F43EA133D95BDE3E98209A3E3BAAB83F9E
:102080006070A53230B450F8041B79B1026843681F
:1020900002440830DC0744BFA9F10104E31852F8F8
:1020A000045B43F8045B091FF9D1ECE730BC7047CF
:1020B00010B5074979441831064C7C44163404E0C5
:1020C0000A68081D114488470146A142F8D110BD95
:1020D0002C0000004C0000004EF68851CEF20001AA
:1020E000086840F470000860BFF34F8FBFF36F8F34
:1020F0004FF00070E1EE100A70470000FFE9FFFFAB
:10210000D0000000100000200000000079FFFFFF59
:1021100010000000940000000000002000000000FB
:102120007047FEE7FEE7FEE7FEE77047704770473F
:1021300000F006B80148FEF7E4B80000880000206F
:102140000248416802788A18426070470000002007
:1021500000F00DF8002801D0FFF7AAFFAFF30080D0
:102160000020AFF30080FEF733FB00F002F80120FF
:10217000704700F001B800000746384600F002F84A
:10218000FBE7000080B5AFF30080024A1100182081
:10219000ABBEFBE72600020001488047014800472C
:1021A000E11F0008B9210008010000000000000044
:1021B000100000000024F400AFF30080FFF78CFF54
:1021C000FFF7C6FFFFF7FEBFFFF7FEBFFFF7FEBF3B
:1021D000FFF7FEBFFFF7FEBFFFF7FEBFFFF7FEBF33
:1021E000FFF7FEBFFFF7FEBFFFF7FEBFFFF7FEBF23
:1021F000FFF7FEBFFFF7FEBFFFF7FEBFFFF7FEBF13
:10220000FFF7FEBFFFF7FEBFFFF7FEBFFFF7FEBF02
:10221000FFF7FEBFFFF7FEBFFFF7FEBFFFF7FEBFF2
:10222000FFF7FEBFFFF7FEBFFFF7FEBFFFF7FEBFE2
:10223000FFF7FEBFFFF7FEBFFFF7FEBFFFF7FEBFD2
:10224000FFF7FEBFFFF7FEBFFFF7FEBFFFF7FEBFC2
:10225000FFF7FEBFFFF7FEBFFFF7FEBFFFF7FEBFB2
:10226000FFF7FEBFFFF7FEBFFFF7FEBFFFF7FEBFA2
:10227000FFF7FEBFFFF7FEBFFFF7FEBFFFF7FEBF92
:10228000FFF7FEBFFFF7FEBFFFF7FEBFFFF7FEBF82
:10229000FFF7FEBFFFF7FEBFFFF7FEBFFFF7FEBF72
:1022A000FFF7FEBFFFF7FEBFFFF7FEBFFFF7FEBF62
:1022B000FFF7FEBFFFF7FEBFFFF7FEBFFFF7FEBF52
:1022C000FFF7FEBFFFF7FEBFFFF7FEBFFFF7FEBF42
:1022D000FFF7FEBFFFF7FEBFFFF7FEBFFFF7FEBF32
:1022E000FFF7FEBFFFF7FEBFFFF7FEBFFFF7FEBF22
:1022F000FFF7FEBFFFF7FEBFFFF7FEBFFFF7FEBF12
:10230000FFF7FEBFFFF7FEBFFFF7FEBFFFF7FEBF01
:10231000FFF7FEBFFFF7FEBFFFF7FEBFFFF7FEBFF1
:08232000FFF7FEBFFFF7FEBF4F
:04000005080021B915
:00000001FF
