:020000040800F2
:10000000A8040020DD200008652000086720000803
:10001000692000086B2000086D2000080000000027
:100020000000000000000000000000006F20000839
:1000300071200008000000007320000875200008EF
:10004000092100080D2100081121000815210008D0
:10005000192100081D210008212100082521000880
:10006000292100082D210008312100083521000830
:10007000392100083D2100084121000845210008E0
:10008000492100084D21000879200008512100086D
:1000900055210008592100085D2100086121000850
:1000A00065210008692100086D2100087121000800
:1000B00075210008792100087D21000881210008B0
:1000C00085210008892100088D2100089121000860
:1000D00095210008992100089D210008A121000810
:1000E000A5210008A9210008AD210008B1210008C0
:1000F000B5210008B9210008BD210008C121000870
:10010000C5210008C9210008CD210008D12100081F
:10011000D5210008D9210008DD210008E1210008CF
:10012000E5210008E9210008ED210008F12100087F
:10013000F5210008F9210008FD210008012200082E
:1001400005220008092200080D22000811220008DB
:1001500015220008192200081D220008212200088B
:1001600025220008292200082D220008312200083B
:1001700035220008392200083D2200080000000056
:100180004122000845220008492200084D220008AB
:100190005122000855220008592200085D2200085B
:1001A00061220008652200086922000870B5044633
:1001B00000250CB9012070BD04F13C06706820B91F
:1001C000B5603070204600F087FA7068C10600F113
:1001D00091807068DFF8AC1420F4885040F0020081
:1001E0007060086820F4403008600A686068024364
:1001F0000A602068416821F480714160206841688C
:10020000226941EA022141602068416821F0407181
:10021000416021684A68A06802434A60206881689A
:1002200021F40061816021688A68E06802438A6085
:100230002068A16ADFF850249142816821F0706142
:1002400081600CD021688A68A06A02438A6000F04D
:100250005AF821688A68E06A02438A6001E000F087
:1002600052F82068816821F0020100F048F8A26984
:1002700041EA42018160206A2168002848680FD065
:1002800040F4006048602068416821F460414160AA
:1002900020684168626A521E41EA4231416002E0D0
:1002A00020F4006048602068C16A21F47001C162D6
:1002B0002068C16AE269521E41EA0251C1622068A7
:1002C000816821F4007100F01AF8226B41EA4221A2
:1002D00000F015F821F4806100F011F8626941EA3C
:1002E00082218160B560716821F0020141F0010155
:1002F000716000E0012500203070284670BD8160EB
:100300002068816870472068816821F040518160D1
:1003100070470868DFF86C130A6812F01F0F704707
:1003200038B500F04DF801D1022032BD00F055F88B
:1003300025D500F02DF846BF906820F0060000207B
:1003400000F01FF80868426842F0806242F0200224
:100350004260FFF7DEFF06D1816811F0405F0ED1E9
:1003600000F036F80BE0DFF82413884202BFDFF814
:100370002003026812F0405F01D100F01CF8002059
:1003800032BD9060002414706FF022001860704736
:100390005568DFF80003054045F4807555605868DE
:1003A000440505D5506820F4005040F4805050605A
:1003B0005068C4047047016841F080410160704793
:1003C0000146002001F13C0200901378012B704798
:1003D000816841F080418160704701201070086899
:1003E0008368DC0714D48368DFF8AC4243F0010370
:1003F0008360DFF8A8020368B3FBF4F404EB440461
:10040000009402E00098401E009000980028F9D166
:100410000B689868C407704738B5044621680A68B5
:100420004868920729D5800627D5226CD00603D4C8
:10043000226C42F400722264886810F0405F04BFAE
:10044000A069002812D1C86A10F4700F02D0886821
:1004500042050BD4486820F020004860206C20F44E
:1004600080702064206CC10400F066F8204600F023
:1004700098FA21686FF01200086021680A684868DD
:10048000520730D500062ED5226CD00603D4226C3C
:1004900042F400522264886810F4401F1CD1886B1B
:1004A00010F4401F02D08868420515D44868420500
:1004B00012D4886810F0405F04BFA06900280BD1F7
:1004C000486820F080004860206C20F48050206450
:1004D000206CC10500F030F8204600F0E1FA2168F8
:1004E0006FF00C000860206802684168D2070FD5E1
:1004F00049060DD50068C1070AD5206C40F480304C
:100500002064204600F0CDFA21686FF001000860F9
:1005100020680268416892060DD549010BD5626CCE
:1005200042F0020262646FF020050560204600F090
:10053000B9FA2068056031BD03D4206C40F0010099
:10054000206470470068C06C704778B50246002090
:10055000009092F83C30012B01D1022072BD0120A5
:1005600082F83C0007240B6810680A2B12D30A3B60
:10057000C56803EB43039C4025EA0404C460C368D8
:100580000D688C68A5F10A0606EB4606B4402343C5
:10059000C3600FE0056903EB430304FA03F325EAA4
:1005A0000303036103690D688C6805EB4505AC40E6
:1005B000234303611F244B68072B0CD25B1E456B42
:1005C00000F051F84463436B4D680C886E1E00F0D8
:1005D00045F843631BE00D2B0CD2DB1F056B00F0CD
:1005E00042F80463036B4D680C88EE1F00F036F888
:1005F00003630CE00D3BC56A00F035F8C462C36AC2
:100600004D680C88A5F10D0600F028F8C3621F4B59
:1006100098421ED10C681B48122C03D1036843F486
:10062000800303600B681E4CA34218BF112B10D12E
:10063000036843F4000303600868A04209D1174926
:10064000154C0B68B3FBF4F40A204443009400F00B
:1006500010F8002182F83C10002072BD06EB8606DF
:10066000B4402343704703EB83039C4025EA040412
:10067000704702E00098401E009000980028F9D1D1
:1006800070470000042301400100000F00200140DA
:1006900008200140FEF9FFFF40420F000C0000203F
:1006A0001200001081B000200090002242484168F2
:1006B00041F480414160416801F48041009100991A
:1006C0000092036843F080530360006800F080509C
:1006D0000090009801B0704710B586B000F065F842
:1006E00021683648814227D100223548009241696D
:1006F00041F400714161416901F400710091009978
:1007000000924021036843F0010303600322006864
:1007100000F00100009000982A4801910292002107
:10072000039101A900F0DCF900220021122000F061
:10073000F3FA122000F00DFB06B010BD81B0006886
:10074000214988420BD100221B480092016841F0E8
:1007500004010160006800F004000090009801B0FE
:10076000704710B586B000F020F821681648814225
:1007700019D10022124800920222016841F00801BA
:1007800001604FF40051006800F0080000900098EC
:100790000E480191029200210391049102210591DA
:1007A00001A900F09DF906B010BD044614220021F5
:1007B00001A800F0F9BA00004038024000210140D1
:1007C000303802400000024000080040000C0240A7
:1007D00030B589B000F0F2FA00F094F800F0DCF8DF
:1007E000002000909A4C9B489B4D016841F080018D
:1007F0000160026802F080020092002200990092DB
:10080000036843F001030360016801F001010091F6
:1008100000990092036843F008030360016801F047
:1008200008010091009900924FF40051036843F0D1
:1008300040030360006800F04000009000982046EC
:1008400000F031FA4FF4005101910122002103918F
:100850000491029201A9204600F042F910220021E1
:10086000684600F0A1FA7D4C7D4820604FF480314D
:100870007C48A06200220120E06160616160A260AA
:100880002261A2612262E262E26022632046FFF7F7
:100890008DFC062001210090019100220292694600
:1008A0002046FFF752FE08220021684600F07CFA3D
:1008B0001C22002102A800F077FA6B482860002172
:1008C00040F2FF70E8606960A9602961284600F085
:1008D00099FA0021009101912846694600F020FC18
:1008E00060210022029103920492069202A904223E
:1008F000284600F09CFA2846FFF733FF2046FFF712
:100900000FFDFEE780B592B03022002106A800F06E
:100910004BFA00F041F8002000904FF48033534828
:10092000016841F0805101600021006800F08050B2
:10093000009000984E480091026822F4404242F430
:10094000804202600122006800F44040009006A846
:100950000099069202214FF480020C910D9204211D
:1009600064220E910F92022104220793109111929A
:1009700000F012FC02210291002203920F204FF49A
:10098000A051019004914FF480520592032101A8D7
:1009900000F06AFD13B000BD1422002101A800F090
:1009A00003BA10B52D4C2046FFF7CCFD00EE100A1F
:1009B00084ED120AB8EE400A10EE100A00F012FEA2
:1009C00002460B4600202B4900F030FE00222A4B45
:1009D00000F050FF01F00CF800EE100A01F03CF8B6
:1009E00010EE100A00F0FEFD244A254B01F094F8A9
:1009F000244A254B00F03EFF02460B4600202349C7
:100A000000F014FE00F0F4FFE06400F0EBFD4FF0A6
:100A100066321F4B00F02EFF00F0EAFF00EE100AD6
:100A200084ED140A00F0DEFD00221A4B01F074F888
:100A30000022194B00F0FAFD0022184B00F01AFFBB
:100A400000F0D6FF60652046BDE81040FFF768BCA7
:100A500000180240303802406800002010000020DA
:100A6000002101400100000F000800404038024012
:100A7000007000400000B0400000F0BFE7E81A3509
:100A80005B7B2E3F83DBB5DCE1796B3F0000F03F01
:100A9000661271C000002240000014400000404077
:100AA00070477047704730B4002513E050F8042BAE
:100AB000D30744BFA9F101039A18091F042942F87A
:100AC000045BFAD213468C0744BF15809B1CC907F0
:100AD00048BF1D7050F8041B0029E7D130BC704797
:100AE0002DE9F84F4FF0000E714A724BDFF8C881C4
:100AF0004FF00F0906468A460121DAF8004001FA54
:100B00000EF10C408C4240F0C680DAF80450022D01
:100B100018BF122D4FEA8E0012D14FEADE0506EB08
:100B2000850C00F01C05DCF8207009FA05FB27EAAB
:100B30000B07DAF810B00BFA05F53D43CCF820505E
:100B40004FEA4E0C032537689AF804B005FA0CF505
:100B5000ED430BF0030B2F400BFA0CFB4BEA07079E
:100B60003760DAF80470012F18BF022F03D0112F5D
:100B700018BF122F13D1B768DAF80CB02F400BFA58
:100B80000CFB4BEA0707B760776827EA0101DAF840
:100B90000470C7F3001707FA0EF739437160F16864
:100BA0000D40DAF8081001FA0CF12943F160DAF887
:100BB0000410C9006FD50025009500F00C00D8F88E
:100BC000001041F48041C8F8001009FA00F7D8F885
:100BD000005005F48045009500994FEA9E0153F8B6
:100BE000215025EA0707354DAE4208BF00252CD01D
:100BF000334DAE4208BF012527D0324DAE4208BF6B
:100C0000022522D0304DAE4208BF03251DD02F4D06
:100C1000AE4208BF042518D02D4DAE4208BF0525B1
:100C200013D02C4DAE4208BF06250ED02A4DAE4241
:100C300008BF072509D0294DAE4208BF082504D0BA
:100C4000274DAE420CBF09250A2505FA00F03843AE
:100C500043F82100E0431168DAF804500140ED0345
:100C600048BF214311605168DAF804500140AD03D8
:100C700048BF214351609168DAF804500140ED0209
:100C800048BF21439160D1680140DAF80400800236
:100C900048BF2143D1600EF1010EBEF10F0F7FF668
:100CA0002BAFBDE8F18F02B90904816170470000E4
:100CB000003C014008380140443802400000024036
:100CC0000004024000080240000C024000100240F4
:100CD0000014024000180240001C024000200240A4
:100CE000002402400901020006D5294A00F00F0045
:100CF000104400F8041C7047264B19547047264BCB
:100D000019684FF6FF020002114000F4E06008434A
:100D1000224908431860704770B51F4B1C68C4F324
:100D200002230124C3F10705052D2EBF0F2504FA68
:100D300005F56D1E1E1D072E34BF0023DB1E294046
:100D4000994004FA03F3BDE870405B1E1A4011435A
:100D5000C8E7012200F01F01114BFFE78A4040095C
:100D600043F82020704710B5401EB0F1807F01D3BA
:100D7000012010BD0B4C60600F214FF0FF30FFF7DA
:100D8000B1FF0021A16007202060002010BD0000FD
:100D900018ED00E000E400E00CED00E00000FA05D2
:100DA00000E100E010E000E010B5044610460A46FD
:100DB0000146204600F082FF204610BD80B50B485A
:100DC000016841F400710160026842F480620260CF
:100DD000016841F4807101600320FFF790FF00205B
:100DE00000F0A0FFFFF75EFC002002BD003C0240C7
:100DF00002206870211D206800F091F801206870C1
:100E0000002032BD38B5040001D1012032BD00F010
:100E10000AF818B900F003F8FFF790FCE8E70021A2
:100E200029702046704704F138056878704770B51E
:100E300000F063F801D1022070BD00F065F832B116
:100E4000042A17D0082A28D00C2A39D04AE0306862
:100E5000294600F0D9F83068816941F0080100F0B6
:100E600048F821F00401816131688A6928690243E8
:100E70008A6137E03068294600F099F83068816966
:100E800041F4006100F035F821F4806100F031F8A0
:100E90002A6941EA0221816124E03068294600F094
:100EA000DBF83068C16941F0080100F01EF821F05C
:100EB0000401C1613168CA6928690243CA6111E04D
:100EC0003068294600F0F3F83068C16941F40061E8
:100ED00000F00BF821F4806100F007F82A6941EA7C
:100EE0000221C16100F015F870BDC1613068C169AF
:100EF00070478161306881697047064606F13804A1
:100F00000D46207801287047012020700221617071
:100F10007047012060700021217000207047F0B5FB
:100F2000744C0568744B754E754FDFF8D8C1A042FC
:100F300018BFB0F1804F07D0604518BFB84203D04A
:100F4000B04218BF98420DD14A6825F0700515438C
:100F5000A04218BFB0F1804F17D060451CBFB84207
:100F6000B04212D098421CBF674A90420DD0674EE3
:100F7000B0421CBF664A904207D0664EB0421FBFC7
:100F8000654A9042654EB04203D1CA6825F4407567
:100F900015430560A0428D68C5620A68826212BF6F
:100FA00098420969016301224261F0BD000070B5F9
:100FB000026A504E22F010020262B042056A436893
:100FC00084690A6824F4E64444EA02248A6825F025
:100FD000200545EA02151CBF474A90420DD1CA6858
:100FE0004E6925F0800545EA02158A6923F44063BD
:100FF000164325F0400543EA86034360846149684F
:101000008163056270BD0000F0B5026A52085200AB
:101010000262066A446885690B688A6825F0730570
:101020001D4326F002061643324B98421CBF324F36
:10103000B8420BD1CA684B6926F0080624F4407404
:1010400016438A691C4326F00406144344608561F4
:10105000496841630662F0BD70B5026A22F480728D
:101060000262056A4368C4690A688E6824F07304E2
:10107000144325F400751F4A45EA062590421CBF1B
:101080001D4EB0420DD1CA684E6925F4006545EA8F
:1010900002258A6923F44053164325F4806543EA08
:1010A00006134360C4614968C163056270BD70B5D1
:1010B000026A104E22F480520262B042046A426810
:1010C000C3690D6823F4E64343EA05238D6824F4DD
:1010D000005444EA05341CBF074DA84204D14D69B1
:1010E00022F4804242EA85124260C3614968016489
:1010F000046270BD0000014000040140000C00408B
:10110000000800400004004000400140004401404D
:101110000048014000180040001C00400020004032
:1011200030B500F138031A78012A01D1022030BD10
:1011300001221A7002245C700268546824F0700462
:101140005460046865680A681543656002689468BD
:1011500024F08004946002689468486804439460B2
:10116000012159700020187030BD30B40EE00268C3
:10117000436802440830DC0744BFA9F10104E318C6
:1011800052F8045B43F8045B091FF9D150F8041BC3
:101190000029ECD130BC70472DE9F843040016D08B
:1011A0002078AD4EC1074AD5B06800F00C00042885
:1011B00007D0B06800F00C0008280AD1706841021E
:1011C00007D5306881033AD56068002837D10120FF
:1011D00040E16068B0F5803F04D1306840F4803071
:1011E000306011E0B0F5A02F306806D140F48020C7
:1011F0003060316841F4803105E020F480303060A7
:10120000316821F480213160606860B100F0AAFD8E
:1012100005463068810312D400F0A4FD401B652808
:10122000F7D3032016E100F09DFD054630688103E9
:1012300005D500F097FD401B6528F7D3F1E720782E
:10124000864F810718D5B06810F00C0F07D0B06832
:1012500000F00C00082823D17068410220D43068C7
:10126000810702D5E0680128B1D13168206921F0F9
:10127000F80141EAC00131602178080742D5606970
:10128000774990B301220A6000F06CFD0546706F4B
:10129000810737D400F066FD401B0228F7D9C0E76C
:1012A000E068A8B10121396000F05CFD05463068B6
:1012B000810705D400F056FD401B0228F7D9B0E79E
:1012C0003068216920F0F80040EAC1003060D3E7BF
:1012D000386000F047FD054631688807CCD500F03E
:1012E00041FD401B0228F7D99BE7086000F03AFD5A
:1012F0000546706F810705D500F034FD401B0228BC
:10130000F7D98EE7207841075FD5306C0025C10002
:101310000AD400950125316C41F080513164306C64
:1013200000F0805000900098DFF83881D8F8000075
:10133000C10513D4D8F8000040F48070C8F800004C
:1013400000F010FD8146D8F80000C10506D400F079
:1013500009FDA0EB09000228F5D962E7A068012881
:1013600005D00528306F06D140F004003067306F9B
:1013700040F0010005E0400840003067306F20F089
:101380000400306741F28938A06860B100F0EAFCDF
:101390008146306F810713D400F0E4FCA0EB090014
:1013A0004045F6D33DE700F0DDFC8146306F810714
:1013B00006D500F0D7FCA0EB09004045F6D330E796
:1013C0001DB1306C20F080503064A069002840D0FE
:1013D000B16801F00C0108293FF4F9AE02282AD1C6
:1013E0000020386600F0BEFC05463068810105D556
:1013F00000F0B8FC401B0228F7D912E7E069216A27
:10140000626A0843A16A490840EA8210491E40EA1C
:101410000140E16A40EA016070600120386600F036
:10142000A1FC04463068810113D400F09BFC001B32
:101430000228F7D9F5E60020386600F093FC044650
:101440003068810105D500F08DFC001B0228F7D91A
:10145000E7E60020BDE8F283003802400000474282
:10146000800E4742007000402DE9F04104000F4615
:1014700054D0404E306800F00F00B84202D200F065
:1014800072F84BD120683C4D810712D5400703D537
:10149000A96841F4E051A9602078010703D5A86844
:1014A00040F46040A860A968A06821F0F001014301
:1014B000A9602178C80729D56068012802D1296868
:1014C0008A0305E0022818BF032803D129688A018E
:1014D00003D423E029688A0720D5A968890840EA4F
:1014E0008100A86000F03EFC8046A868616800F0BA
:1014F0000C00B0EB810F09D000F034FCA0EB080029
:1015000041F289318842F0D303202AE0306800F0AC
:101510000F00874204D200F026F801D0012020E01D
:101520002078410705D5AA68E06822F4E05202431A
:10153000AA602178080706D5A968206921F46041CE
:1015400041EAC001A96000F01DF8AA680B490C4BE4
:10155000C2F30312895CC8401860002000F0E2FB6F
:101560000020BDE8F0813770316801F00F01B94209
:1015700070470000003C024000380240A01F0008F5
:101580000C00002030B5144C606800F00C000428FA
:1015900002D0082802D01DE0104830BD2268206823
:1015A0000023410202F03F0204D525680B49C5F330
:1015B000881003E020680A49C0F38810A1FB0001ED
:1015C00000F0D6FB2168C1F30141491C4900B0FB82
:1015D000F1F030BD024830BD0438024000127A00FC
:1015E0000024F400C0F3C75181B1FF2906D0C11017
:1015F000400721F0E04101F16051704741020CBF0A
:1016000040F4E0016FF000410020704700F000411D
:1016100000020AD0B0FA80FC00FA0CF001F160512F
:10162000A1EB0C5101EBD02140057047F0B540F221
:10163000FF7581EA030C0CF0004C15EA11541DBF34
:1016400015EA1357AC42AF42E5E0BC41C1F31301C8
:10165000C3F31303801A994143F4801304D2641E28
:101660004000494180185941C90241EA5051B1FB3B
:10167000F3F603FB1611A2FB0675D7EBC020A941B8
:1016800002D2761E80185941C90241EA5051B1FB7D
:10169000F3FE03FB1E11A2FB0E75D7EBC020A94180
:1016A00003D2AEF1010E80185941890241EA9051EE
:1016B000760546EA8E2EB1FBF3F603FB1611A2FB6C
:1016C0000675D7EB8020A94102D2761E80185941B9
:1016D000C90241EA50514EEA060EB1FBF3F603FB94
:1016E0001611A2FB0675D7EBC020A94102D2761EC7
:1016F00080185941C90241EA5051B1FBF3F703FB8D
:101700001711A2FB0735D3EBC020A94167F10007F1
:101710000CBF004247F0010766F3D5274FEA1E31A0
:10172000B80814F5806412DDBD0775F1004250EB76
:101730000E5051EB045111F5801F5CBF41EA0C01C2
:10174000F0BD4CF07F6141F0E0410020F0BDBD07ED
:101750006D0840EA0E5041F48011D4F10104B4F157
:1017600020060ADAC4F120060200E04001FA06F37E
:10177000E1401843B24015430EE0342C13DCC6F1AF
:10178000200445EA40056D0820FA06F2154321FAC7
:1017900006F0A1400D43002175F1004250F1000018
:1017A00051EB0C01F0BD00205FEA0C01F0BDCFB998
:1017B00092185B41B3FA83F704BFB2FA82F6BF19FD
:1017C0000B3FB7F120062FBF02FA06F3BB40C7F16B
:1017D000200622FA06F638BF3343BA401CB1E4199A
:1017E000641E33E77F4231F00041B1FA81F404BF57
:1017F000B0FA80F6A4190B3CB4F120062FBF00FA12
:1018000006F1A140C4F1200620FA06F638BF3143A4
:10181000A0403C1B1AE7AC421ABF05EA1357AF427F
:1018200012E050EA41061CBF52EA4306BFE750EA05
:101830004107304661461CBF41EA0551F0BD52EAFE
:10184000430C08BFC143F0BD00204FF4001616EB57
:10185000410F98BF16EB430F08BF16EB410F24BF93
:10186000C14305E016EB430F0CBF61464CEA05513E
:10187000F0BD000070B44FF0004591EA030F40F155
:10188000FB826B40841A71EB030604D26E40001B8E
:10189000B141121973414FF4001C1CEB410F34BFCE
:1018A0007CEB430683E00C0DA4EB1356362E00F3BD
:1018B0007C80012E45EAC32341DC43EA525312BF28
:1018C000D20292025B08240545EAC12141EA505147
:1018D000D2EBC020994125D407D1B0FA80F610FA96
:1018E00006F162D00020203608E0B1FA81F6B1405E
:1018F000C6F1200220FA02F21143B0404FEAF4741C
:10190000B4EB465434F001064FEA74040AD8D6F515
:101910000016760D04F00044F04061FA06F25040E3
:10192000F1404840C00A40EA415021F0004128BF40
:101930005FEA500550F1000044EBD12135E0DB0AAD
:1019400045EAC121C90AB6F120050EDD42EA02428C
:10195000120CC5F1200603FA06F6EB4042EA060532
:101960006D42984161F100010DE062FA06F5F24026
:10197000554063FA06FC82EA0C02F3405A406D427D
:10198000904161EB030111F4801F05D1641E6205D3
:1019900002D06D004041494121F48011430875F1A6
:1019A000004350F1000041EB045170BC70471CEB48
:1019B000410F15D223F0004352EA43060BD04FEA01
:1019C0004C0CBCEB410F04D80C0D661E342EB7DD59
:1019D000EBE7801A994150EA410608BF0021E4E78D
:1019E00008BF1CEB430F28BF6FF00001DDE70000CC
:1019F00001F000428B1AA3F16051B1F5801F0ADBA0
:101A0000B1F17F6F1FD242EAC102C10071F1004102
:101A100042EB507070470B15C3F10903212B10D214
:101A2000890241EA905180020128494141F0004178
:101A300021FA03F0C3F12003994071F100415041B4
:101A40007047100070476FF0000013EB103F5CBF51
:101A5000000E42EAC050704710EE100AB5EE400A80
:101A60004FF0807C1CEB400F42D2F1EE10FADFF811
:101A7000A4C0DCEC090A45DD5FEAD05C2BD0ACF1F8
:101A80007E0CA0EBCC5000EE100AB4EE600AF1EE32
:101A900010FA44BFACF1010C20EE210A00EE90CA0E
:101AA000F8EEE00A70EE415A30EE016A85EE866A81
:101AB00066EE066A02EEA63A43EE263AB0EE650AF4
:101AC00003EEE60A20EE066A04EEE06A35EEC60A88
:101AD00004EE200A704720EE020A10EE100A4FEAC8
:101AE000D05CACF17E0CA0EBCC50ACF1170CCAE78B
:101AF00007D8004244BF6FF0004000EE100AAFF379
:101B000000807047F6DB6FF00000C00500EE100AA1
:101B100070470000B01F0008B0B581EA030C0CF05C
:101B2000004C40F2FF7515EA11541DBF15EA13571A
:101B3000AC42AF4239E0E41923EA455343F4801341
:101B4000C90241F0004141EA505EC7021100A7FB03
:101B5000020200284FF00000EEFB01204FF00001D0
:101B6000E3FB072118BF42F0010240180021494160
:101B7000E3FB0E01A4F580640F0302D25200404142
:101B8000494154F101046CDD470872F1004250F103
:101B9000000051EB0451A1F580115CBF41EA0C013A
:101BA000B0BD4CEA05510020B0BD05EA1357AC4268
:101BB00014BFAF4241E050EA410E1CBF52EA430E4F
:101BC00002E061460020B0BD24423C441BD15FEAE4
:101BD000070EF6D0090302BF01460020AEF1140E35
:101BE000B1FA81F7AEEB070401FA07FE0C37C7F133
:101BF000200100FA07F7C8404EEA000E23EA4553D9
:101C000043F48013A2E733F00043B3FA83F704BF31
:101C1000B2FA82FE77440B3FE41BB7F1200E2FBFD0
:101C200002FA0EF3BB40C7F1200E22FA0EFE38BFB7
:101C300043EA0E03BA40641C82E750EA410E14BF27
:101C400052EA430E6FF000014FF4001717EB430FF9
:101C50008ABF194617EB410FB5E74CEA0551002042
:101C6000B0BDD4F10104B4F120070FDAC4F12007AC
:101C7000520828BF42F0010210FA07F501FA07F7EF
:101C8000E1BF2A43E0403843E1400FE0352C98DCC7
:101C9000C7F1200452EA400220FA07F218BF42F0CE
:101CA000010231FA07F0A1400A43002172F100421B
:101CB00050F1000051EB0C01B0BD000062F30F22A7
:101CC00062F31F42401810F0030308D0C91A1FD353
:101CD000DB0748BF00F8012D28BF20F8022D1300B4
:101CE00030B414461546103928BF20E93C00FAD814
:101CF000490728BF20E90C0048BF40F8042D89009F
:101D000028BF20F8022D48BF00F8012D30BC7047D5
:101D1000C91818BF00F8012DCB0728BF00F8012D06
:101D20007047000038B50D4D0D4B2A7804464FF42E
:101D30007A711868B1FBF2F2B0FBF2F0FFF713F81A
:101D400050B9102C08D2002221464FF0FF30FEF788
:101D5000E3FFAC60002032BD012032BD0000002056
:101D60000C00002001484068704700BF00000020C0
:101D7000D3BBD9B1B2F5803F5BD2022A1ED98C46C3
:101D8000B1FBF2F102FB11C31B0443EA1043B3FBA6
:101D9000F2FC02FB1C3380B240EA0343B3FBF2F0D7
:101DA00002FB103240EA0C4000237047022A05D99A
:101DB0008446B0FBF2F002FB10C270474AB105D175
:101DC00000F0010249085FEA30007047002200235A
:101DD000704700F0BBB80B000200002100207047E4
:101DE000F7D3002200237047904271EB030CF2D32B
:101DF00070B5B1FA81F4B3FA83F52C1BA340C4F19A
:101E0000200532FA05F63343A2405FF00046E64073
:101E100002E05B085FEA3202841A71EB030524BF1B
:101E2000204629467641F4D302000B003000002101
:101E300070BD70B5B1FA81F4B2FA82F5C4F1200434
:101E40006419B4F12006DAD3B2405FF00044F440E4
:101E5000002502E052085FEA3303C61A71EB020E56
:101E600024BF3046714664416D41F3D302000B003C
:101E70002000290070BD0000841A71EB030603D214
:101E8000001BB141121973414FF4001C1CEB410FB0
:101E900034BF7CEB430442E00C0DA4EB1356352E0B
:101EA0004FDC45EAC323DB0A45EAC121C912B6F17A
:101EB00020050DDD63FA05F6EB4086EA03051242C4
:101EC00018BF45F00105C01851F100010CD213E014
:101ED00062FA06F5F2405540F3415A40B340F340F0
:101EE0005A408018594107D349085FEA30005FEA39
:101EF000350528BF45F0010501F58011420875F14F
:101F0000004250F1000041EB04514E0016F5001F55
:101F100070BC38BF70470020090D090570471CEBE5
:101F2000410F10D252EA43060BD0BCEB410F05D84B
:101F30000C0DAB43661E342EB6DD02E0AB438018B9
:101F4000594170BC704770BC70470000704700007A
:101F50000E48016841F47001016000220C490868D4
:101F600040F0010008608A600B680A480A4A034092
:101F70000B604A6000200B68084A23F480230B6042
:101F8000C8604FF0006111607047000088ED00E00C
:101F900000380240FFFFF6FE1030002408ED00E09C
:101FA0000000000000000000010203040607080909
:101FB000F304353F0000803F000000400000004B6C
:101FC0001502993E11AECC3EC0AA2A3F1672313F8F
:101FD000E8E8FB331872313FD85BDE3E2837A93280
:101FE000F43EA133D95BDE3E98209A3E3BAAB83F2F
:101FF0006070A53210B5074979441831064C7C440D
:10200000163404E00A68081D114488470146A142BD
:10201000F8D110BD2C0000004C0000004EF6885195
:10202000CEF20001086840F470000860BFF34F8FE3
:10203000BFF36F8F4FF00070E1EE100A70470000A1
:1020400067EAFFFF9400000010000020000000007D
:102050001BF1FFFF100000009400000000000020B2
:10206000000000007047FEE7FEE7FEE7FEE770476E
:102070007047704700F006B80148FEF7CDB9000080
:10208000100000200248416802788A1842607047B8
:102090000000002000F00DF8002801D0FFF7AAFF93
:1020A000AFF300800020AFF30080FEF791FB00F05B
:1020B00002F80120704700F001B8000007463846DA
:1020C00000F002F8FBE7000080B5AFF30080024AA1
:1020D00011001820ABBEFBE7260002000148804734
:1020E00001480047511F0008FD20000801000000C2
:1020F00000000000100000000024F400AFF3008096
:10210000FFF78CFFFFF7C6FFFFF7FEBFFFF7FEBF2D
:10211000FFF7FEBFFFF7FEBFFFF7FEBFFFF7FEBFF3
:10212000FFF7FEBFFFF7FEBFFFF7FEBFFFF7FEBFE3
:10213000FFF7FEBFFFF7FEBFFFF7FEBFFFF7FEBFD3
:10214000FFF7FEBFFFF7FEBFFFF7FEBFFFF7FEBFC3
:10215000FFF7FEBFFFF7FEBFFFF7FEBFFFF7FEBFB3
:10216000FFF7FEBFFFF7FEBFFFF7FEBFFFF7FEBFA3
:10217000FFF7FEBFFFF7FEBFFFF7FEBFFFF7FEBF93
:10218000FFF7FEBFFFF7FEBFFFF7FEBFFFF7FEBF83
:10219000FFF7FEBFFFF7FEBFFFF7FEBFFFF7FEBF73
:1021A000FFF7FEBFFFF7FEBFFFF7FEBFFFF7FEBF63
:1021B000FFF7FEBFFFF7FEBFFFF7FEBFFFF7FEBF53
:1021C000FFF7FEBFFFF7FEBFFFF7FEBFFFF7FEBF43
:1021D000FFF7FEBFFFF7FEBFFFF7FEBFFFF7FEBF33
:1021E000FFF7FEBFFFF7FEBFFFF7FEBFFFF7FEBF23
:1021F000FFF7FEBFFFF7FEBFFFF7FEBFFFF7FEBF13
:10220000FFF7FEBFFFF7FEBFFFF7FEBFFFF7FEBF02
:10221000FFF7FEBFFFF7FEBFFFF7FEBFFFF7FEBFF2
:10222000FFF7FEBFFFF7FEBFFFF7FEBFFFF7FEBFE2
:10223000FFF7FEBFFFF7FEBFFFF7FEBFFFF7FEBFD2
:10224000FFF7FEBFFFF7FEBFFFF7FEBFFFF7FEBFC2
:10225000FFF7FEBFFFF7FEBFFFF7FEBFFFF7FEBFB2
:0C226000FFF7FEBFFFF7FEBFFFF7FEBF59
:04000005080020FDD2
:00000001FF
