:020000040800F2
:10000000080500204D250008D5240008D724000845
:10001000D9240008DB240008DD24000800000000CB
:10002000000000000000000000000000DF240008C5
:10003000E124000800000000E3240008E524000893
:10004000692500086D250008712500087525000840
:10005000792500087D2500088125000885250008F0
:10006000892500088D2500089125000895250008A0
:10007000992500089D250008A1250008A525000850
:10008000A9250008AD250008E9240008B1250008CD
:10009000B5250008B9250008BD250008C1250008C0
:1000A000C5250008C9250008CD250008D125000870
:1000B000D5250008D9250008DD250008E125000820
:1000C000E5250008E9250008ED250008F1250008D0
:1000D000F5250008F9250008FD250008012600087F
:1000E00005260008092600080D260008112600082C
:1000F00015260008192600081D26000821260008DC
:1001000025260008292600082D260008312600088B
:1001100035260008392600083D260008412600083B
:1001200045260008492600084D26000851260008EB
:1001300055260008592600085D260008612600089B
:1001400065260008692600086D260008712600084B
:1001500075260008792600087D26000881260008FB
:1001600085260008892600088D26000891260008AB
:1001700095260008992600089D260008000000002A
:10018000A1260008A5260008A9260008AD2600081B
:10019000B1260008B5260008B9260008BD260008CB
:1001A000C1260008C5260008C926000870B5044607
:1001B00000250CB9012070BD04F13C06706820B91F
:1001C000B5603070204600F075FA7068C10610D432
:1001D000706820F4885040F002007060204600F003
:1001E000C4F9B560716821F0020141F0010171604C
:1001F00000E0012500203070284670BD38B500F0C1
:1002000059F801D1022032BD00F05CF825D500F08C
:1002100032F846BF906820F00600002000F024F875
:100220000868426842F0806242F02002426000F0BA
:1002300035F806D1816811F0405F0ED100F00FF85B
:100240000BE0DFF81C14884202BFDFF818040268D4
:1002500012F0405F01D100F028F8002032BD816823
:1002600041F08041816070479060002414706FF00D
:100270002200186070475568DFF8EC03054045F42C
:10028000807555605868440505D5506820F40050C5
:1002900040F4805050605068C40470470868DFF82C
:1002A000CC130A6812F01F0F7047016841F08041BB
:1002B000016070470146002001F13C020090137874
:1002C000012B70470120107008688368DC0714D484
:1002D0008368DFF89C4343F001038360DFF89403F5
:1002E0000368B3FBF4F404EB4404009402E00098C8
:1002F000401E009000980028F9D10B689868C40748
:10030000704738B5044621680A684868920729D5BD
:10031000800627D5226CD00603D4226C42F40072EA
:100320002264886810F0405F04BFA069002812D1E1
:10033000C86A10F4700F02D0886842050BD4486870
:1003400020F020004860206C20F480702064206C35
:10035000C10400F066F8204600F031FB21686FF020
:100360001200086021680A684868520730D5000604
:100370002ED5226CD00603D4226C42F400522264A3
:10038000886810F4401F1CD1886B10F4401F02D005
:100390008868420515D44868420512D4886810F070
:1003A000405F04BFA06900280BD1486820F080009E
:1003B0004860206C20F480502064206CC10500F05F
:1003C00030F8204600F01AFC21686FF00C0008603D
:1003D000206802684168D2070FD549060DD500682C
:1003E000C1070AD5206C40F480302064204600F01C
:1003F00006FC21686FF0010008602068026841680F
:1004000092060DD549010BD5626C42F0020262647E
:100410006FF020050560204600F0F2FB20680560C3
:1004200031BD03D4206C40F00100206470470068A7
:10043000C06C704778B502460020009092F83C30BE
:10044000012B01D1022072BD012082F83C0007245B
:100450000B6810680A2B11D30A3BC56803EB4303F2
:1004600000F077F8C460C3680D688C68A5F10A06CF
:1004700006EB4606B4402343C3600FE0056903EB77
:10048000430304FA03F325EA0303036103690D68D8
:100490008C6805EB4505AC40234303611F244B6882
:1004A000072B0CD25B1E456B00F051F84463436B85
:1004B0004D680C886E1E00F045F843631BE00D2B61
:1004C0000CD2DB1F056B00F042F80463036B4D6830
:1004D0000C88EE1F00F036F803630CE00D3BC56A94
:1004E00000F035F8C462C36A4D680C88A5F10D06AA
:1004F00000F028F8C3625A4B98421ED10C685B4842
:10050000122C03D1036843F4800303600B685A4C38
:10051000A34218BF112B10D1036843F400030360FA
:100520000868A04209D15349514C0B68B3FBF4F45D
:100530000A204443009400F010F8002182F83C1097
:10054000002072BD06EB8606B4402343704703EBE0
:1005500083039C4025EA0404704702E00098401E93
:10056000009000980028F9D17047404A116821F4A2
:1005700040311160136841680B431360026853688F
:1005800023F4807353605168036941EA0321516089
:10059000516821F040715160536881680B4353608A
:1005A000936823F4006393609368C1680B4393607E
:1005B0003249836A8B4210D0936823F07063936052
:1005C0009368816A0B439360936823F04053936070
:1005D0009368C16A0B43936007E0916821F07061F2
:1005E0009160916821F040519160916821F0020181
:1005F00091609168836941EA43019160016A002931
:1006000051680CD041F400615160516821F460419F
:1006100051605168436A5B1E41EA433101E021F4B5
:1006200000615160D16A21F47001D162D16AC3695D
:100630005B1E41EA0351D162916821F4007191601F
:100640009168036B41EA43219160916821F48061D4
:1006500091609168406941EA802191607047000093
:100660000020014008200140FEF9FFFF0423014063
:1006700040420F0044000020120000100100000F53
:1006800081B00020009000224248416841F480413E
:100690004160416801F48041009100990092036833
:1006A00043F080530360006800F080500090009891
:1006B00001B0704738B586B000F066F82468364D52
:1006C000AC4228D10020009000223448416941F416
:1006D00000714161416901F400710091009900923B
:1006E0004021036843F0010303600322006800F027
:1006F0000100009000982A48019102920021039184
:1007000001A900F09BFA00220021122000F0AAFBB0
:10071000122000F0C4FB07B030BD81B00068214951
:1007200088420BD100221B480092016841F004016D
:100730000160006800F004000090009801B070476C
:1007400038B586B000F020F82468164DAC4219D1B7
:100750000020009002221148016841F00801016068
:100760004FF40051006800F00800009000980E4817
:10077000019102920021039104910221059101A9A6
:1007800000F05CFA07B030BD044601A8142100F067
:10079000B1BB000040380240002101403038024027
:1007A0000000024000080040000C024078B589B00B
:1007B00000F0A4FB00F0B8F801A8142100F09AFBA7
:1007C00000200090DFF8B443DFF8B403DFF8B4533F
:1007D0000168DFF8B46341F080010160026802F053
:1007E00080020092002200990092036843F0010306
:1007F0000360016801F00101009100990092036813
:1008000043F008030360016801F0080100910099BA
:1008100000924FF40051036843F040030360006806
:1008200000F0400000900098204600F0E3FA4FF4FA
:10083000005101910122002103910491029201A92A
:10084000204600F0FBF96846102100F053FBCF4C26
:10085000CF4820604FF48031CE48A06200220120B2
:10086000E06160616160A2602261A2612262E26275
:10087000E26022632046FFF799FC062001210090E8
:1008800001910022029269462046FFF7D3FD00BF86
:10089000D8A01C21D0E90023CDE9002302A800F054
:1008A00029FB0720A86000214FF6FF702861E9604E
:1008B00069616E60281D00F050FB002100910191DC
:1008C000281D694600F0FEFC60210022029103927F
:1008D0000492069202A90422281D00F06BFB281D39
:1008E000FFF72EFF2046FFF789FCAB48AB49AC4A27
:1008F000AC4BC5E91601BA49C5E91823C5E91A2167
:100900004FF49674B4630421281D00F033FB28785B
:100910000028FCD195ED140B00F09AF86867B063DD
:10092000C82000F0F5FCF2E780B592B006A83021AF
:1009300000F0E0FA01A8142100F0DCFA0020009099
:100940004FF480339848016841F0805101600021E4
:10095000006800F0805000900098A2480091026862
:1009600022F4404242F4804202600122006800F416
:100970004040009006A80099069202214FF48002A0
:100980000C910D92042164220E910F9202210422F7
:1009900007931091119200F0CFFC022102910022E6
:1009A00003920F204FF4A051019004914FF4805214
:1009B0000592032101A800F03BFE13B000BD38B53D
:1009C000724C704D2046FFF732FD286700F0EEFEB6
:1009D00002460B460020754900F0F6FE0022744BDB
:1009E00001F016F841EC100B01F0D3F853EC102B8A
:1009F0007048714901F0D4F8704A714B01F008F861
:100A000002460B4600206F4900F0DEFEC5E91001EA
:100A1000D5E910234FF066306B4900F0F9FF41EC47
:100A2000100B85ED120B53EC102B0020674901F0E1
:100A3000B7F80022664B00F0C7FE00226A4B00F0B8
:100A4000E7FFC5E914012046BDE83240FFF7D6BBF9
:100A50002DE9F0412DED0A8BB0EE408AF0EE608A70
:100A600001F070F95B4FDFF81C810646786B3E633E
:100A7000301A00F09BFE41EC1B0BD7E9020187ED19
:100A800000BB53EC182B01F063F941EC190B87ED17
:100A9000049B53EC192B51EC1B0B01F081F8D7E9A7
:100AA000062300F0B5FFD7E90A2341EC1A0B51ECFD
:100AB000190B01F04DF953EC1B2B00F085FE41ECB6
:100AC0001B0B87ED08BB002098ED18CB424953EC77
:100AD0001C2B00F079FE41EC180B51EC1A0B53EC77
:100AE000182B01F0A7F93CBFB0EE48AAF0EE68AAB7
:100AF00000203A4953EC1C2B00F066FE53EC1A2BF5
:100B000001F098F941EC180B3CBFB0EE48AAF0EEAA
:100B100068AA87ED06ABD8E9162351EC190B01F052
:100B20003FF804460D46D7E9060153EC1C2B01F0B3
:100B300037F822462B4600F06BFFD8E91A2304460B
:100B40000D4651EC1B0B01F02BF822462B4600F012
:100B50005FFF0022002301F06DF941EC180B38BF54
:100B60009FED228B87ED0A9B7E6351EC180BBDEC49
:100B70000A8BBDE8F04101F075B900000018024091
:100B8000303802404800002000080040C00000202B
:100B9000002101400100000F8FC2F5285C8F334017
:100BA000B81E85EB51B8E63F403802400000B04027
:100BB0000000F0BF3C9B1FEB60DB2D3F83DBB5DC0F
:100BC000E1796B3F0000F03F661271C000002240E7
:100BD0000000144000000020E0FFEFC0E0FFEF4005
:100BE00051C860400070004000004040000000001C
:100BF0000000000000000000000000007047704787
:100C0000704730B4002513E050F8042BD30744BFDD
:100C1000A9F101039A18091F042942F8045BFAD2CA
:100C200013468C0744BF15809B1CC90748BF1D7025
:100C300050F8041B0029E7D130BC70472DE9F84774
:100C400002460B4600246D480F2101271D68A7406E
:100C500007EA0508B84540F0C7805D68022D18BF57
:100C6000122D4FEA840911D1E50802EB850C09F039
:100C70001C05DCF820E0D3F810A001FA05F62EEAF6
:100C800006060AFA05F53543CCF820504FEA440C25
:100C90000326156806FA0CF66FEA060E1E7906F0B2
:100CA00003060EEA050506FA0CF6354315605D6885
:100CB000012D18BF022D03D0112D18BF122D10D1F8
:100CC0009568DE680EEA050506FA0CF63543956070
:100CD000556825EA07075D68C5F30015A5402F4351
:100CE0005760D7680EEA07059F6807FA0CF6354388
:100CF000D5605D68EF0077D50025009509F00C09F7
:100D000007683F4E47F48047076001FA09FE05680F
:100D100005F480450095009FA70856F8275025EA5E
:100D20000E0E384DAA4208BF00252CD0364DAA42DF
:100D300008BF012527D0354DAA4208BF022522D081
:100D4000334DAA4208BF03251DD0324DAA4208BF29
:100D5000042518D0304DAA4208BF052513D02F4DC9
:100D6000AA4208BF06250ED02D4DAA4208BF07256E
:100D700009D02C4DAA4208BF082504D02A4DAA420A
:100D80000CBF09250A2505FA09F545EA0E0546F8BE
:100D900027506FEA0807254E356807EA050C5D689D
:100DA000ED0348BF48EA0C0CC6F800C0756807EAB6
:100DB000050C5D68AD0348BF48EA0C0CC6F804C0DA
:100DC000B56807EA050C5D68ED0248BF48EA0C0CFF
:100DD000C6F808C0F56807EA050C5F68BD0248BFA1
:100DE00048EA0C0CC6F80CC0641C0F2C7FF62DAF23
:100DF000BDE8F18702B909048161704744380240B7
:100E0000083801400000024000040240000802408F
:100E1000000C024000100240001402400018024082
:100E2000001C02400020024000240240003C01401F
:100E30000901020006D5294A00F00F00104400F80D
:100E4000041C7047264B19547047264B19684FF6FF
:100E5000FF020002114000F4E06008432249084309
:100E60001860704738B51F4B1C68C4F30223C3F1E8
:100E70000704052C28BF04241D1D072D34BF0023A3
:100E8000DB1E012505FA04F4641E2140994005FA91
:100E900003F35B1E1A401143BDE83440C8E701224A
:100EA00000F01F01114BFFE78A40400943F8202062
:100EB000704710B5401EB0F1807F01D3012010BDF6
:100EC0000B4C60600F214FF0FF30FFF7B1FF0021A6
:100ED000A16007202060002010BD000018ED00E098
:100EE00000E400E00CED00E00000FA0500E100E0A5
:100EF00010E000E0002200F0D3BF000080B50B48F6
:100F0000016841F400710160026842F4806202608D
:100F1000016841F4807101600320FFF796FF002013
:100F200000F0D8FFFFF7ACFB002002BD003C024000
:100F300002206870211D206800F0B4F8012068705C
:100F4000002032BD03D1416C41F40041416401688D
:100F500041F001010160002010BD38B5040001D14D
:100F6000012032BD00F01EF818B900F017F8FFF7A5
:100F7000D4FBDDE710B500F007F800F00AF81CBF5D
:100F8000DFF828209042DDE704460122206800F0C7
:100F9000FEB82068DFF818108842704700212970D9
:100FA0002046704704F13805687870470004014016
:100FB0000000014070B500F063F801D1022070BD5F
:100FC00000F065F832B1042A17D0082A28D00C2A7C
:100FD00039D04AE03068294600F0E3F8306881698A
:100FE00041F0080100F048F821F004018161316806
:100FF0008A69286902438A6137E03068294600F02F
:1010000099F83068816941F4006100F035F821F405
:10101000806100F031F82A6941EA0221816124E00F
:101020003068294600F0E5F83068C16941F00801F0
:1010300000F01EF821F00401C1613168CA69286915
:101040000243CA6111E03068294600F0FDF83068BB
:10105000C16941F4006100F00BF821F4806100F0F7
:1010600007F82A6941EA0221C16100F015F870BD54
:10107000C1613068C16970478161306881697047BA
:10108000064606F138040D462078012870470120F5
:101090002070022161707047012060700021217072
:1010A00000207047F0B57A4C05687A4B7A4E7B4F3A
:1010B000DFF8ECC1A04218BFB0F1804F07D0604507
:1010C00018BFB84203D0B04218BF98420DD14A6849
:1010D00025F070051543A04218BFB0F1804F17D01E
:1010E00060451CBFB842B04212D098421CBF6D4A46
:1010F00090420DD06C4EB0421CBF6C4A904207D05B
:101100006B4EB0421FBF6B4A90426B4EB04203D150
:10111000CA6825F4407515430560A0428D68C56214
:101120000A68826212BF9842096901630122426122
:10113000F0BD000070B5026A554E22F01002026246
:10114000B042056A436884690A6824F4E64444EAC4
:1011500002248A6825F0200545EA02151CBF4D4A85
:1011600090420DD1CA684E6925F0800545EA021506
:101170008A6923F44063164325F0400543EA860359
:101180004360846149688163056270BD000010B5E9
:10119000036A01248C40A343036202FA01F1036A4B
:1011A0008CE0F0B5026A520852000262066A446896
:1011B00085690B688A6825F073051D4326F00206D1
:1011C0001643334B98421CBF324FB8420BD1CA680A
:1011D0004B6926F0080624F4407416438A691C43C0
:1011E00026F0040614434460856149684163066241
:1011F000F0BD70B5026A22F480720262056A43682B
:10120000C4690A688E6824F07304144325F40075D9
:101210001F4A45EA062590421CBF1E4EB0420DD122
:10122000CA684E6925F4006545EA02258A6923F4F7
:101230004053164325F4806543EA06134360C461B6
:101240004968C163056270BD70B5026A104E22F430
:1012500080520262B042046A4268C3690D6823F496
:10126000E64343EA05238D6824F4005444EA053438
:101270001CBF084DA84204D14D6922F4804242EAC5
:1012800085124260C36149680164046270BD000058
:101290000000014000040140000C00400008004034
:1012A000000400400040014000440140004801406B
:1012B00000180040001C004000200040194301625B
:1012C00010BD000030B500F138031A78012A01D1B1
:1012D000022030BD01221A7002245C70026854683A
:1012E00024F070045460046865680A6815436560FA
:1012F0000268946824F080049460026894684868E6
:1013000004439460012159700020187030BD000022
:1013100038B5044600F016FD14F1010F054602D061
:1013200004480178641800F00DFD401BA042FAD378
:1013300031BD00BF380000202DE9F843040017D06C
:101340002078B74EC10745D5B06800F00C000428DE
:1013500007D0B06800F00C0008280BD1706841027B
:1013600008D53068810335D56068002840F0BA8020
:10137000012053E16068B0F5803F04D1306840F44B
:101380008030306011E0B0F5A02F306806D140F415
:1013900080203060316841F4803105E020F48030F5
:1013A0003060316821F480213160606868B100F0FC
:1013B000C9FC05463068810300F1948000F0C2FC4E
:1013C000401B6528F6D3032028E100F0BBFC05464E
:1013D0003068810340F1868000F0B4FC401B652832
:1013E000F6D3F0E700F0AEFC401B022840F2A780E5
:1013F000E9E7E06870B10121396000F0A3FC05461F
:101400003068810700F1CB8000F09CFC401B022873
:10141000F6D9D8E7386000F095FC054631688807B2
:1014200063D500F08FFC401B0228F7D9CBE708609A
:1014300000F088FC0546706F810775D500F082FCCE
:10144000401B0228F7D9BEE70528306F06D140F0CF
:1014500004003067306F40F0010005E040084000B4
:101460003067306F20F00400306741F28938A0689F
:1014700068B100F067FC8146306F810700F19C8005
:1014800000F060FCA0EB09004045F5D39BE700F0BD
:1014900059FC8146306F810740F18E8000F052FC8C
:1014A000A0EB09004045F5D38DE700F04BFC401B55
:1014B000022840F2968086E700F044FC001B0228D8
:1014C00040F2A7807FE70020386600F03BFC04462E
:1014D0003068810140F1A18000F034FC001B02283B
:1014E000F6D970E720784F4F81071BD5B06810F010
:1014F0000C0F09D0B06800F00C0008287FF479AF19
:10150000706841023FF575AF3068810703D5E06828
:1015100001287FF42DAF3168206921F0F80141EAFC
:10152000C0013160217808070DD560693E49002867
:101530003FF47DAF01220A6000F004FC0546706FA5
:1015400081077FF54FAF207841073AD5306C0025F1
:10155000C1000AD400950125316C41F080513164FD
:10156000306C00F0805000900098DFF8C080D8F810
:101570000000C1051BD4D8F8000040F48070C8F802
:10158000000000F0DFFB8146D8F80000C1050ED452
:1015900000F0D8FBA0EB09000228F5D913E730686A
:1015A000216920F0F80040EAC1003060BAE7A06885
:1015B00001287FF449AF4DE71DB1306C20F0805019
:1015C0003064A06948B3B16801F00C0108293FF408
:1015D000CFAE02287FF477AF0020386600F0B2FB70
:1015E0000546306881013FF560AFE269206A616AB3
:1015F0000243A06A400842EA8112401E42EA0042C9
:10160000E06A42EA006272600121396600F09AFBEA
:101610000446306881017FF54FAF0020BDE8F283BA
:101620000038024000004742800E474200700040F0
:101630002DE9F04104000F4677D0404E306800F0AD
:101640000F00B84202D200F072F86ED120683C4D13
:10165000810712D5400703D5A96841F4E051A9607C
:101660002078010703D5A86840F46040A860A96805
:10167000A06821F0F0010143A9602178C8074CD58A
:101680006068012802D129688A0305E0022818BF92
:10169000032803D129688A0103D446E029688A0710
:1016A00043D5A968890840EA8100A86000F04AFB98
:1016B0008046A868616800F00C00B0EB810F2CD068
:1016C00000F040FBA0EB080041F289318842F0D3E2
:1016D000032020E02078410705D5AA68E06822F4BD
:1016E000E0520243AA602178080706D5A96820695C
:1016F00021F4604141EAC001A96000F027F8AA681E
:101700001049114BC2F30312895CC84018600020D5
:1017100000F0E0FB0020BDE8F081306800F00F0031
:101720008742D7D200F003F8D4D00120F3E7377016
:10173000316801F00F01B94270470000003C0240DF
:1017400000380240202400084400002030B5144C2A
:10175000606800F00C00042802D0082802D01DE0C8
:10176000104830BD226820680023410202F03F0289
:1017700004D525680B49C5F3881003E020680A49A1
:10178000C0F38810A1FB000100F0C4FB2168C1F385
:101790000141491C4900B0FBF1F030BD024830BDA9
:1017A0000438024000127A000024F400014648B1D7
:1017B000B0FA80F18840C91CC1F58461090501EBCC
:1017C000D021400570470000F0B540F2FF7581EA76
:1017D000030C0CF0004C15EA11541DBF15EA135709
:1017E000AC42AF42E5E0BC41C1F31301C3F31303C4
:1017F000801A994143F4801304D2641E4000494189
:1018000080185941C90241EA5051B1FBF3F603FB7C
:101810001611A2FB0675D7EBC020A94102D2761E95
:1018200080185941C90241EA5051B1FBF3FE03FB54
:101830001E11A2FB0E75D7EBC020A94103D2AEF159
:10184000010E80185941890241EA9051760546EA15
:101850008E2EB1FBF3F603FB1611A2FB0675D7EB38
:101860008020A94102D2761E80185941C90241EA5E
:1018700050514EEA060EB1FBF3F603FB1611A2FB24
:101880000675D7EBC020A94102D2761E80185941B7
:10189000C90241EA5051B1FBF3F703FB1711A2FB58
:1018A0000735D3EBC020A94167F100070CBF004208
:1018B00047F0010766F3D5274FEA1E31B80814F543
:1018C000806412DDBD0775F1004250EB0E5051EB04
:1018D000045111F5801F5CBF41EA0C01F0BD4CF0D2
:1018E0007F6141F0E0410020F0BDBD076D0840EA96
:1018F0000E5041F48011D4F10104B4F120060ADA4B
:10190000C4F120060200E04001FA06F3E14018436A
:10191000B24015430EE0342C13DCC6F1200445EA36
:1019200040056D0820FA06F2154321FA06F0A140A1
:101930000D43002175F1004250F1000051EB0C0104
:10194000F0BD00205FEA0C01F0BDCFB992185B41F9
:10195000B3FA83F704BFB2FA82F6BF190B3FB7F1AF
:1019600020062FBF02FA06F3BB40C7F1200622FA79
:1019700006F638BF3343BA401CB1E419641E33E79E
:101980007F4231F00041B1FA81F404BFB0FA80F631
:10199000A4190B3CB4F120062FBF00FA06F1A140B8
:1019A000C4F1200620FA06F638BF3143A0403C1BA4
:1019B0001AE7AC421ABF05EA1357AF4212E050EAE9
:1019C00041061CBF52EA4306BFE750EA41073046D2
:1019D00061461CBF41EA0551F0BD52EA430C08BF05
:1019E000C143F0BD00204FF4001616EB410F98BF25
:1019F00016EB430F08BF16EB410F24BFC14305E0B0
:101A000016EB430F0CBF61464CEA0551F0BD0000D8
:101A100070B44FF0004591EA030F40F1A1816B4093
:101A2000841A71EB030604D26E40001BB1411219F7
:101A300073414FF4001C1CEB410F34BF7CEB430699
:101A400083E00C0DA4EB1356362E00F37C80012EA0
:101A500045EAC32341DC43EA525312BFD202920249
:101A60005B08240545EAC12141EA5051D2EBC02070
:101A7000994125D407D1B0FA80F610FA06F162D068
:101A80000020203608E0B1FA81F6B140C6F120020C
:101A900020FA02F21143B0404FEAF474B4EB46541A
:101AA00034F001064FEA74040AD8D6F50016760D14
:101AB00004F00044F04061FA06F25040F140484022
:101AC000C00A40EA415021F0004128BF5FEA5005BA
:101AD00050F1000044EBD12135E0DB0A45EAC12199
:101AE000C90AB6F120050EDD42EA0242120CC5F128
:101AF000200603FA06F6EB4042EA06056D429841DD
:101B000061F100010DE062FA06F5F240554063FA1A
:101B100006FC82EA0C02F3405A406D42904161EBB0
:101B2000030111F4801F05D1641E620502D06D000F
:101B30004041494121F48011430875F1004350F1BF
:101B4000000041EB045170BC70471CEB410F15D2F3
:101B500023F0004352EA43060BD04FEA4C0CBCEB97
:101B6000410F04D80C0D661E342EB7DDEBE7801A4A
:101B7000994150EA410608BF0021E4E708BF1CEB89
:101B8000430F28BF6FF00001DDE7000041EC100BB0
:101B900001BD80B551EC100B00F0CCFBF6E7000066
:101BA000B0B581EA030C0CF0004C40F2FF7515EA69
:101BB00011541DBF15EA1357AC42AF4239E0E41986
:101BC00023EA455343F48013C90241F0004141EA3E
:101BD000505EC7021100A7FB020200284FF0000070
:101BE000EEFB01204FF00001E3FB072118BF42F09C
:101BF0000102401800214941E3FB0E01A4F5806475
:101C00000F0302D252004041494154F101046CDDFE
:101C1000470872F1004250F1000051EB0451A1F568
:101C200080115CBF41EA0C01B0BD4CEA05510020B7
:101C3000B0BD05EA1357AC4214BFAF4241E050EAD1
:101C4000410E1CBF52EA430E02E061460020B0BDC7
:101C500024423C441BD15FEA070EF6D0090302BFC1
:101C600001460020AEF1140EB1FA81F7AEEB070485
:101C700001FA07FE0C37C7F1200100FA07F7C84048
:101C80004EEA000E23EA455343F48013A2E733F0F3
:101C90000043B3FA83F704BFB2FA82FE77440B3FE6
:101CA000E41BB7F1200E2FBF02FA0EF3BB40C7F1C1
:101CB000200E22FA0EFE38BF43EA0E03BA40641C1F
:101CC00082E750EA410E14BF52EA430E6FF0000162
:101CD0004FF4001717EB430F8ABF194617EB410F5C
:101CE000B5E74CEA05510020B0BDD4F10104B4F1D0
:101CF00020070FDAC4F12007520828BF42F0010282
:101D000010FA07F501FA07F7E1BF2A43E04038432C
:101D1000E1400FE0352C98DCC7F1200452EA400284
:101D200020FA07F218BF42F0010231FA07F0A14091
:101D30000A43002172F1004250F1000051EB0C0106
:101D4000B0BD000001484068704700BF3800002067
:101D500070B44FF0004591EA030F7FF561AE6B4020
:101D6000841A71EB030603D2001BB14112197341AF
:101D70004FF4001C1CEB410F34BF7CEB430442E0EA
:101D80000C0DA4EB1356352E4FDC45EAC323DB0ABA
:101D900045EAC121C912B6F120050DDD63FA05F649
:101DA000EB4086EA0305124218BF45F00105C01852
:101DB00051F100010CD213E062FA06F5F2405540F1
:101DC000F3415A40B340F3405A408018594107D379
:101DD00049085FEA30005FEA350528BF45F0010594
:101DE00001F58011420875F1004250F1000041EB0D
:101DF00004514E0016F5001F70BC38BF704700201C
:101E0000090D090570471CEB410F10D252EA430639
:101E10000BD0BCEB410F05D80C0DAB43661E342E26
:101E2000B6DD02E0AB438018594170BC704770BC0E
:101E3000704700004FF4001C1CEB410F94BF1CEBDB
:101E4000430F09E041EA030C50EA4C0C52EA0C0C37
:101E500003D2994208BF9042704714BF8B4282421E
:101E600070470000C1F30A5340F2FE329B1A14DDA2
:101E7000D3F120034FEAE17208DDC90241EA505173
:101E800041F00040D84080185040704703F2E130E4
:101E900010B1D24382F0004070470020704700002C
:101EA00000B500BF130096469446103928BFA0E83D
:101EB0000C50FAD85FEA417C28BF0CC048BF40F8FC
:101EC000042BC90728BF20F8022B48BF00F8012BBC
:101ED00000BD000038B50D4D0D4B2A7804464FF477
:101EE0007A711868B1FBF2F2B0FBF2F0FEF7E1FF95
:101EF00050B9102C08D2002221464FF0FF30FEF7D7
:101F0000B1FFAC60002032BD012032BD380000209E
:101F100044000020D3BBD9B1B2F5803F5BD2022A86
:101F20001ED98C46B1FBF2F102FB11C31B0443EA3C
:101F30001043B3FBF2FC02FB1C3380B240EA0343C4
:101F4000B3FBF2F002FB103240EA0C400023704772
:101F5000022A05D98446B0FBF2F002FB10C270479A
:101F60004AB105D100F0010249085FEA300070472C
:101F700000220023704700F0DFB90B0002000021AF
:101F800000207047F7D3002200237047904271EB86
:101F9000030CF2D370B5B1FA81F4B3FA83F52C1BBC
:101FA000A340C4F1200532FA05F63343A2405FF0A6
:101FB0000046E64002E05B085FEA3202841A71EBF9
:101FC000030524BF204629467641F4D302000B00C6
:101FD0003000002170BD70B5B1FA81F4B2FA82F51B
:101FE000C4F120046419B4F12006DAD3B2405FF0E2
:101FF0000044F440002502E052085FEA3303C61AA9
:1020000071EB020E24BF3046714664416D41F3D33B
:1020100002000B002000290070BD00002DE9F84CE3
:102020002DED068B41EC180B48004015401C82B08A
:1020300014460DD148004015401C01D1090303D1BD
:1020400051EC180BC80F30D102B051EC180B25E140
:1020500053EC182B23F00041B1F5801F22F0000053
:102060000BD20022002908BF0028009210D06A4637
:1020700051EC180B00F062F908E08A4E06EB1150A3
:1020800000908949894803401046194341EC180BD8
:1020900051EC180B20F0000631F0004704BF002E71
:1020A000834900F0FA80C80F0AD0AFF3008002B075
:1020B0004FF0FF30BDEC068B6FF00041BDE8F48CB3
:1020C00051EC180B7B4A7C4BFFF7B4FE0BD253EC60
:1020D000182B00204FF08041FFF762FD41EC180BF8
:1020E0000098401E009053EC182B00207349FFF716
:1020F0008FFC41EC190B53EC182B00207049FFF7B3
:1021000087FC02460B4651EC190BFFF75DFB41ECD7
:10211000180B53EC182BFFF743FD41EC1A0B53EC53
:102120001A2B68486849FFF73BFD684A684BFFF780
:102130006FFC53EC1A2BFFF733FD664A664BFFF733
:1021400067FC53EC1A2BFFF72BFD644A644BFFF737
:102150005FFC53EC1A2BFFF723FD624A624BFFF73B
:1021600057FC53EC1A2BFFF71BFD604A604BFFF73F
:102170004FFC53EC1A2BFFF713FD5E4A5E4BFFF743
:1021800047FC53EC1A2BFFF70BFD02460B4651ECB4
:10219000190BFFF7DDFD53EC182BFFF701FD41ECA8
:1021A000180B009800F002F9002C41EC1A0B19D121
:1021B00053EC1A2B51485249FFF7F2FC53EC182B01
:1021C000FFF7C6FD53EC192BFFF722FC04460D4622
:1021D00053EC1A2B4FF040404A49FFF7E1FC2246EE
:1021E0002B4658E053EC192B34DD00204649FFF70D
:1021F000D7FC06460F4653EC192B44484449FFF7D9
:10220000CFFC04460D4653EC1A2B42484249FFF7D7
:10221000C7FC82468B4653EC182B40483A49FFF7DF
:10222000BFFC02460B4650465946FFF791FD224639
:102230002B46FFF7EDFB32463B46FFF7E9FB044632
:102240000D4653EC1A2B00203549FFF7A9FC224616
:102250002B4620E04FF0C0403249FFF7A1FC064674
:102260000F4653EC192B30483049FFF799FC0446D0
:102270000D4653EC182B2E482A49FFF791FC0246D5
:102280000B4620462946FFF763FD32463B46FFF7E3
:10229000BFFB53EC1A2BFFF7BBFB02B0BDEC068B68
:1022A000BDE8F48C02FCFFFF0000E03FFFFF0F8061
:1022B0000000F0FFCD3B7F669EA0E63F0000F0BF30
:1022C0000000F03FF7DE29BFD8F8C23FF4B3FECCE0
:1022D0001A99C33F62CB68D96F46C73FC6C912DAA5
:1022E000C471CC3F4AE98A942449D23FF75F979959
:1022F0009999D93FBC5555555555E53F9EBC9AF720
:102300001C7D7F3E422EE63F7BCBDB3FABA6320EF1
:10231000E526553E7CC4BC7FDE27743E0EE52615BF
:102320001344D33F4715F73F44DF5DF80BAE543EEF
:10233000FE822B65002271E67047000010B514463E
:1023400000F002F8226010BDC1F30A5343B14A0005
:1023500012F5001F28D2A3F2FE32A1EB0251704702
:1023600050EA410C20D001F0004C31EA0C01B1FAE6
:1023700081F204BFB0FA80F3D2180B3AB2F1200315
:102380002CBF00FA03F1914041EA0C013EBFC2F1BB
:10239000200C20FA0CF319439040524240F2FD33D6
:1023A000D21A01EB0351704700227047C11768B180
:1023B0004840401AB0FA80F29040D21CC907C2F5DA
:1023C000846241EA025202EBD021400570470000CE
:1023D0000E48016841F47001016000220C49086850
:1023E00040F0010008608A600B680A480A4A03400E
:1023F0000B604A6000200B68084A23F480230B60BE
:10240000C8604FF0006111607047000088ED00E087
:1024100000380240FFFFF6FE1030002408ED00E017
:102420000000000000000000010203040607080984
:1024300030B5016884684218416802EB5103C9074E
:102440000BD54C4409E012F9011B12F8015B00297D
:1024500004F8015B05D5491CF9D19A42F3D10C303F
:1024600030BD491EF1D5F8E710B507497944183158
:10247000064C7C44163404E00A68081D1144884761
:102480000146A142F8D110BD2C0000004800000018
:102490004EF68851CEF20001086840F470000860E2
:1024A000BFF34F8FBFF36F8F4FF00070E1EE100A54
:1024B000704700004FE7FFFFC00000004800002009
:1024C000000000006DFFFFFF040200002800000074
:1024D000000000207047FEE7FEE7FEE7FEE77047DA
:1024E0007047704700F006B80148FDF70ABF0000CA
:1024F000C00000200248416802788A184260704794
:102500003800002000F00DF8002801D0FFF7ACFFE4
:10251000AFF300800020AFF30080FEF747F900F032
:1025200002F80120704700F001B800000746384665
:1025300000F002F8FBE7000080B5AFF30080024A2C
:1025400011001820ABBEFBE72600020001488047BF
:1025500001480047D12300085D250008AFF3008043
:10256000FFF796FFFFF7CEFFFFF7FEBFFFF7FEBFB7
:10257000FFF7FEBFFFF7FEBFFFF7FEBFFFF7FEBF8F
:10258000FFF7FEBFFFF7FEBFFFF7FEBFFFF7FEBF7F
:10259000FFF7FEBFFFF7FEBFFFF7FEBFFFF7FEBF6F
:1025A000FFF7FEBFFFF7FEBFFFF7FEBFFFF7FEBF5F
:1025B000FFF7FEBFFFF7FEBFFFF7FEBFFFF7FEBF4F
:1025C000FFF7FEBFFFF7FEBFFFF7FEBFFFF7FEBF3F
:1025D000FFF7FEBFFFF7FEBFFFF7FEBFFFF7FEBF2F
:1025E000FFF7FEBFFFF7FEBFFFF7FEBFFFF7FEBF1F
:1025F000FFF7FEBFFFF7FEBFFFF7FEBFFFF7FEBF0F
:10260000FFF7FEBFFFF7FEBFFFF7FEBFFFF7FEBFFE
:10261000FFF7FEBFFFF7FEBFFFF7FEBFFFF7FEBFEE
:10262000FFF7FEBFFFF7FEBFFFF7FEBFFFF7FEBFDE
:10263000FFF7FEBFFFF7FEBFFFF7FEBFFFF7FEBFCE
:10264000FFF7FEBFFFF7FEBFFFF7FEBFFFF7FEBFBE
:10265000FFF7FEBFFFF7FEBFFFF7FEBFFFF7FEBFAE
:10266000FFF7FEBFFFF7FEBFFFF7FEBFFFF7FEBF9E
:10267000FFF7FEBFFFF7FEBFFFF7FEBFFFF7FEBF8E
:10268000FFF7FEBFFFF7FEBFFFF7FEBFFFF7FEBF7E
:10269000FFF7FEBFFFF7FEBFFFF7FEBFFFF7FEBF6E
:1026A000FFF7FEBFFFF7FEBFFFF7FEBFFFF7FEBF5E
:1026B000FFF7FEBFFFF7FEBFFFF7FEBFFFF7FEBF4E
:1026C000FFF7FEBFFFF7FEBFFFF7FEBFF30002807C
:1026D0005140D8000001F9000010FC000224F40071
:040000050800255D6D
:00000001FF
