:020000040800F2
:1000000080040020E5120008C1120008C312000895
:10001000C5120008C7120008C9120008000000003D
:10002000000000000000000000000000CB120008EB
:10003000CD12000800000000CF120008D112000805
:100040001113000815130008191300081D130008E8
:100050002113000825130008291300082D13000898
:100060003113000835130008391300083D13000848
:100070004113000845130008491300084D130008F8
:100080005113000855130008591300085D130008A8
:100090006113000865130008691300086D13000858
:1000A0007113000875130008791300087D13000808
:1000B0008113000885130008891300088D130008B8
:1000C0009113000895130008991300089D13000868
:1000D000A1130008A5130008A9130008AD13000818
:1000E000B1130008B5130008B91300082DE9F8434F
:1000F0000646DFF88C543078C10748D5686800F0B0
:100100000C00042807D0686800F00C0008280BD108
:100110006868C10308D52868810338D5706800284D
:1001200040F0BE80012067E17068B0F5803F04D1E7
:10013000286840F48030286014E008B928680AE094
:10014000B0F5A02F286806D140F4802028602968E7
:1001500041F4803105E020F480302860296821F4E2
:1001600080212960706868B100F046FA044628686A
:10017000810300F1958000F03FFA001B6528F6D35B
:10018000032039E100F038FA04462868810340F181
:10019000878000F031FA001B6528F6D3F0E700F005
:1001A0002BFA001B022840F2AA80E9E7306970B1FF
:1001B0000121396000F020FA04462868810700F127
:1001C000DC8000F019FA001B0228F6D9D8E7386065
:1001D00000F012FA04462968880765D500F00CFA89
:1001E000001B0228F7D9CBE7086000F005FA0446A7
:1001F000686A810777D500F0FFF9001B0228F7D95C
:10020000BEE708B9286A09E00528286A06D140F047
:1002100004002862286A40F0010005E04008400020
:100220002862286A20F00400286241F28938F068C8
:1002300068B100F0E1F98146286A810700F1AA80DF
:1002400000F0DAF9A0EB09004045F5D398E700F09B
:10025000D3F98146286A810740F19C8000F0CCF9EF
:10026000A0EB09004045F5D38AE700F0C5F9001B73
:10027000022840F2A28083E700F0BEF9001B0228AA
:1002800040F2B5807CE700F0B9F8044628688101A7
:1002900040F1B18000F0B0F9001B0228F6D96FE7F9
:1002A0003078DFF8E87281071BD5686810F00C0F12
:1002B00009D0686800F00C0008287FF477AF686800
:1002C000C1033FF573AF2868810703D53069012862
:1002D0007FF428AF2968706921F0F80141EAC00174
:1002E0002960317808071DD5B069DFF8A41200280D
:1002F0003FF47AAF01220A6000F07EF90446686A92
:1003000081077FF54CAFDFF87C020268D2084FF41A
:100310007A71B2FBF1F1009100BF0098411E0028F4
:100320000091F9D13078410739D5E8690024C1003E
:1003300009D4E86940F08050E8610124E86900F0E0
:10034000805000900098DFF84C82D8F80000C1057A
:100350001BD4D8F8000040F48070C8F8000000F00A
:100360004BF98146D8F80000C1050ED400F044F9DD
:10037000A0EB09006528F5D302E72868716920F031
:10038000F80040EAC1002860ABE7F06801287FF47C
:1003900038AF3FE71CB1E86920F08050E861F069B0
:1003A00048B3696801F00C0108293FF4BBAE02288C
:1003B0007FF469AF00F022F80446286881013FF518
:1003C00054AF306AB0F5803F05D16968B06821F458
:1003D0000031014369606A68306A716A22F47412FC
:1003E00002430A436A60012000F009F804462868C5
:1003F00081017FF541AF0020BDE8F283002038661F
:1004000000F0FAB82DE9F843634F0546386889468D
:1004100000F00700484502D200F086F878D128683D
:10042000574C810712D5400703D5616841F4E0615C
:1004300061602878010703D5606840F4605060600F
:100440006168A86821F0F001014361602978C8075C
:1004500056D56868012802D121688A0303E0022882
:10046000216802D18A0102D452E08A0750D561681E
:10047000890840EA8100606041F2893800F0BCF8E8
:100480000646686801280BD1606800F00C0004285B
:1004900036D000F0B1F8801B4045F5D303202DE0A5
:1004A000022837D1606800F00C00082828D000F03E
:1004B000A3F8801B4045F5D3F0E72878410705D520
:1004C0006268E86822F4E062024362602978080703
:1004D00006D56168286921F4605141EAC001616074
:1004E00000F02CF862682D49264BC2F30312895C98
:1004F000C8401860002000F085F80020BDE8F283B5
:10050000386800F007008145D7D200F00DF8D4D04C
:100510000120F3E7606810F00C0FF1D000F06CF8E8
:10052000801B4045F6D3B9E73968C90849EAC101DB
:100530003960386800F00700484570471849194885
:100540000A6802F00C03042B00D1704710B5082B89
:1005500013D100BF15A4C2F38343D203E35C08D5D3
:100560000968584315A3C1F340415A5CB0FBF2F04F
:1005700010BD18460C49484310BD034810BD00008B
:10058000001002400C00002000127A0000004242DD
:10059000800442420070004000200240F011000838
:1005A000041002408096980000093D0002030405F3
:1005B000060708090A0B0C0D0E0F1010010230B4CB
:1005C000002513E050F8042BD30744BFA9F1010321
:1005D0009A18091F042942F8045BFAD213468C07C3
:1005E00044BF15809B1CC90748BF1D7050F8041BF1
:1005F0000029E7D130BC704701484068704700BF10
:100600000000002038B50D4D0D4B2A7804464FF4FC
:100610007A711868B1FBF2F2B0FBF2F000F049F821
:1006200050B9102C08D2002221464FF0FF3000F0C4
:1006300023F8AC60002032BD012032BD0000002054
:100640000C0000200901020006D5244A00F00F002A
:10065000104400F8041C7047214B19547047214B7B
:1006600019684FF6FF020002114000F4E0600843F1
:100670001D4908431860704738B51A4B1C68C4F30D
:100680000223C3F10704052C28BF04241D1D072DD8
:1006900034BF0023DB1E012505FA04F4641E21404B
:1006A000994005FA03F35B1E1A401143BDE834403C
:1006B000C8E710B5401EB0F1807F01D3012010BD06
:1006C0000A4C60600F214FF0FF30FFF7BBFF0021A5
:1006D000A16007202060002010BD000018ED00E0A0
:1006E00000E400E00CED00E00000FA0510E000E09E
:1006F00002206870211D206800F091F801206870C8
:10070000002032BD38B5040001D1012032BD00F017
:100710000AF818B900F003F800F08EF9E8E70021B4
:1007200029702046704704F13C056878704770B521
:1007300000F063F801D1022070BD00F065F832B11D
:10074000042A17D0082A28D00C2A39D04AE0306869
:10075000294600F093F83068816941F0080100F003
:1007600048F821F00401816131688A6928690243EF
:100770008A6137E03068294600F0A5F83068816961
:1007800041F4006100F035F821F4806100F031F8A7
:100790002A6941EA0221816124E03068294600F09B
:1007A000BBF83068C16941F0080100F01EF821F083
:1007B0000401C1613168CA6928690243CA6111E054
:1007C0003068294600F0D0F83068C16941F4006112
:1007D00000F00BF821F4806100F007F82A6941EA83
:1007E0000221C16100F015F870BDC1613068C169B6
:1007F00070478161306881697047064606F13C04A4
:100800000D46207801287047012020700221617078
:10081000704701206070002121700020704770B582
:10082000614E0368614C624DB04218BFB0F1804F19
:1008300003D0A84218BFA04209D14A6823F0700330
:100840001343B0421CBFB0F1804FA84201D0A04278
:1008500003D1CA6823F4407313434A6923F0800329
:1008600013430360B0428B68C3620A68826202D19C
:100870000969504A11600123436170BD70B5026A75
:10088000520852000262066A446885690B688A68E9
:1008900025F073051D4326F002061643424B98428D
:1008A0000BD1CA684B6926F0080624F4407416433D
:1008B0008A691C4326F00406144344608561496834
:1008C0004163066270BD70B5026A374E22F01002B5
:1008D0000262B042056A436884690A6824F4E64407
:1008E00044EA02248A6825F0200545EA02150DD164
:1008F000CA684E6925F0800545EA02158A6923F425
:100900004063164325F0400543EA86034360846153
:1009100049688163056270BD70B5026A22F4807215
:100920000262056A4368C4690A688E6824F0730429
:1009300014431D4A25F40075904245EA06250DD161
:10094000CA684E6925F4006545EA02258A6923F4E0
:100950004053164325F4806543EA06134360C4619F
:100960004968C163056270BD70B5026A0E4E22F41B
:1009700080520262B042046A4268C3690D6823F47F
:10098000E64343EA05238D6824F4005444EA053421
:1009900004D14D6922F4804242EA85124260C3616B
:1009A00049680164046270BD002C014000080040E9
:1009B00000040040302C0140394881B0016841F00A
:1009C00001010160026802F0010200920099426890
:1009D00042F080524260406800F0805000900098E1
:1009E0003048016821F0E06141F08061016001B0B0
:1009F000704730B585B000F04EF824682A4DAC42FF
:100A000018D12748016841F400710160032302688E
:100A100002F4007200920099026842F0040202603F
:100A20000422006800F004000090009901920293F3
:100A300000F02DF805B030BD81B00068B0F1804FF6
:100A400009D11B48016841F001010160006800F014
:100A500001000090009801B0704718B585B000F013
:100A60001AF82468B4F1804F0FD10D48016841F0A5
:100A7000040101600221006800F004000090009869
:100A800001910291049100F002F806B010BD01A995
:100A9000064800F00FB8044601A8102100F0E6B89F
:100AA00018100240040001400024014000080140E9
:100AB0001C1002402DE9F8430246002000255E4B41
:100AC000DFF8789101270E68AF403E40BE4240F00B
:100AD000AC804C686CB3012C20D0022C23D0032CAA
:100AE00032D0112C1CD0122C20D0DFF854E17445E8
:100AF0001CBFDFF850E174451BD0DFF84CE17445B2
:100B00001CBFDFF848E1744513D0DFF844E17445B9
:100B10001CBFDFF840E174450BD016E0C86814E054
:100B2000C868001D11E0C86808300EE0C8680C30C5
:100B30000BE0886808B9042007E0012819BF0820E5
:100B400057610820176100E00020B6F5807F03D2CE
:100B500094464FEA850E05E0A5F1080402F1040C65
:100B60004FEA840E0F27DCF8008007FA0EF428EA1B
:100B7000040400FA0EFE4EEA0404CCF800404C686F
:100B8000E40052D5D9F80040DFF8CCE044F001048D
:100B9000C9F800404FEA950CD9F8004004F0010470
:100BA00000944FEA8508009C5EF82C4008F00C0881
:100BB00007FA08F724EA0707284CA24208BF0024D6
:100BC0000ED0274CA24208BF012409D0254CA242D6
:100BD00008BF022404D0244CA2420CBF03240424E6
:100BE00004FA08F427434EF82C70F7434C68E403EA
:100BF0001C684CBF34433C401C604C68A4035C68D8
:100C00004CBF34433C405C604C68E4029C684CBF81
:100C100034433C409C604C68A40203D5DF683E43EB
:100C2000DE6002E0DE683740DF606D1C0F2D7FF66E
:100C300049AFBDE8F18300000004014018100240F4
:100C400000001110000012100000211000002210FE
:100C5000000031100000321008000140000801407F
:100C6000000C01400010014000140140002200F07F
:100C700001B8000000B500BF130096469446103935
:100C800028BFA0E80C50FAD85FEA417C28BF0CC00E
:100C900048BF40F8042BC90728BF20F8022B48BFE3
:100CA00000F8012B00BD0000F8B50446002700261F
:100CB000002C71D004F12405686820B9AE6028705A
:100CC0002046FFF796FE204600F0F2F86968CA0653
:100CD0005ED401005CD1696821F4885141F00201C1
:100CE00069606368E269E1681343A268B2F5807FD6
:100CF00014BF012A4FF480776269012A43EA410355
:100D00000FD131B9A169491E490341F400610F4374
:100D100007E0696841F020016960A96841F00101BC
:100D2000A96021684A6822F4694217434F6022682B
:100D3000DFF8641197680F401F439760A168B1F511
:100D4000807F18BF012902D12669761E36052168E9
:100D5000CA6A22F470021643CE622468DFF83C119E
:100D6000A2680A409A4208D10023AB60696821F06A
:100D7000020141F001016960F2BD686820F00200E3
:100D800040F010006860A86840F00100A86003E02F
:100D9000686840F0100068600120F2BDF8B50A46AE
:100DA000002100F1240300911C78012C01D10220C4
:100DB000F2BD01241C701F27546815680668072CB3
:100DC00008D2641E04EB8404D6F834C000F05EF848
:100DD000756312E00D2C08D2E41F04EB8404D6F8EE
:100DE00030C000F053F8356307E00D3C04EB840499
:100DF000D6F82CC000F04AF8F56207271668946808
:100E000005680A2E08D30A3E06EB4606D5F80CC044
:100E100000F036F8EC6006E006EB4606D5F810C0A8
:100E200000F02EF82C611468102C18BF112C23D15F
:100E300000681C4CA0421AD11B4805682C021BD428
:100E4000056845F4000505601068102814D1144A9F
:100E5000164D1468B4FBF5F50A204543009500983B
:100E600000281EBF0098401E0090F8D104E0012128
:100E7000586840F020005860002018700846F2BD05
:100E8000B7402CEA0707B4403C437047A7402CEA20
:100E90000707A5403D437047FDF7E1FFFE0E1FFF2A
:100EA0000C000020002401400824014040420F00B3
:100EB00038B5044620688168CA0719D58168490891
:100EC00049008160FFF798FB054620688168C807E4
:100ED0000ED5FFF791FB401B0328F6D3A06A40F024
:100EE0001000A062E06A40F00100E062012032BD23
:100EF000002032BDD8B589B000F0A8F800F06AF83B
:100F00003148016841F0200101600023026802F0CD
:100F10002002009200240099026842F0040202605C
:100F20006946006800F004000090002200982748FD
:100F300081E81C004FF46021254CE1612060012113
:100F4000A260E2606261626021612046FFF7ACFE50
:100F50000220012100900191002202926946204660
:100F6000FFF71CFF37A01C21D0E90067CDE900671F
:100F700002A8FFF77BFE4FF08040206304216163ED
:100F80000020A0634FF6FF712064A064E16304F1C8
:100F90003000FFF7B7FB00210091019104F1300010
:100FA000694600F065F860210022029103920492E4
:100FB000069202A9042204F13000FFF7B8FB04F105
:100FC0003000FFF74AFDFEE7181002400024014000
:100FD0001000002000B593B009A82821FFF746FEB5
:100FE00004A81421FFF742FE68461021FFF73EFED9
:100FF0004FF4803100220A910B9211910120099047
:101000000D9002224FF440211092129109A8FFF78F
:101010006DF8022105910F204FF4806104900022A9
:10102000079106920892022104A8FFF7EBF902212A
:101030004FF4804200910292684600F03FF813B0EE
:1010400000BD0000000000000000000080B507485F
:10105000016841F0100101600320FFF700FB002050
:10106000FFF7D0FAFFF7A8FC002002BD00200240E5
:1010700030B500F13C031A78012A01D1022030BDBD
:1010800001221A7002245C700268546824F0700413
:101090005460046865680A6815436560026894686E
:1010A00024F0800494600268946848680443946063
:1010B000012159700020187030BD00002DE9FC415D
:1010C0000646354D3078C10750D5A8690024C100C7
:1010D00009D4A86940F08050A8610124A86900F0F3
:1010E0008050009000982D4F3868C10519D4386899
:1010F00040F480703860FFF77FFA80463868C10599
:101100000FD4FFF779FAA0EB08006528F6D3032087
:101110003FE0FFF771FAC01B41F28931884217D3D3
:10112000F5E7E86910F440701EBF716801F4407182
:10113000884210D01A49E86901220A60002320F48D
:1011400040700B60E861C00705D5FFF755FA074608
:10115000E8698107DDD5EA69706822F440720243CC
:10116000EA611CB1A86920F08050A861307881073D
:1011700005D52A68B06822F4404202432A603178DB
:10118000C80605D52968F06821F48001014329606B
:101190000020BDE8F681000004100240007000400D
:1011A0004004424210B50E4A0E49106840F001005A
:1011B000106053680C480B4053601468044014607E
:1011C000116821F4802111604FF41F01506820F450
:1011D000FE00506091604FF00060044A106010BD46
:1011E000001002400000FFF8FFFFF6FE08ED00E0EF
:1011F00000000000000000000102030406070809C7
:1012000030B450F8041B79B10268436802440830D6
:10121000DC0744BFA9F10104E31852F8045B43F86A
:10122000045B091FF9D1ECE730BC704710B50749E2
:1012300079441831064C7C44163404E00A68081DD1
:10124000114488470146A142F8D110BD08000000B2
:10125000280000006BF3FFFF70000000100000206A
:10126000000000009DFFFFFF10000000880000004C
:10127000000000200000000000F00DF8002801D060
:10128000FFF7D4FFAFF300800020AFF30080FFF73B
:1012900031FE00F002F80120704700F001B80000B4
:1012A0000746384600F002F8FBE7000080B5AFF3D0
:1012B0000080024A11001820ABBEFBE726000200A6
:1012C0007047FEE7FEE7FEE7FEE7704770477047AE
:1012D00000F000B802494A68087882184A607047EE
:1012E000000000200148804701480047A511000880
:1012F00005130008010000000000000010000000BD
:1013000000A24A04AFF30080AFF30080FFF7B4FF00
:10131000FFF7FEBFFFF7FEBFFFF7FEBFFFF7FEBF01
:10132000FFF7FEBFFFF7FEBFFFF7FEBFFFF7FEBFF1
:10133000FFF7FEBFFFF7FEBFFFF7FEBFFFF7FEBFE1
:10134000FFF7FEBFFFF7FEBFFFF7FEBFFFF7FEBFD1
:10135000FFF7FEBFFFF7FEBFFFF7FEBFFFF7FEBFC1
:10136000FFF7FEBFFFF7FEBFFFF7FEBFFFF7FEBFB1
:10137000FFF7FEBFFFF7FEBFFFF7FEBFFFF7FEBFA1
:10138000FFF7FEBFFFF7FEBFFFF7FEBFFFF7FEBF91
:10139000FFF7FEBFFFF7FEBFFFF7FEBFFFF7FEBF81
:1013A000FFF7FEBFFFF7FEBFFFF7FEBFFFF7FEBF71
:0C13B000FFF7FEBFFFF7FEBFFFF7FEBF18
:0400000508001305D7
:00000001FF
