:020000040800F2
:10000000980400204D180008D5170008D7170008DD
:10001000D9170008DB170008DD17000800000000F2
:10002000000000000000000000000000DF170008D2
:10003000E117000800000000E3170008E5170008BA
:10004000791800087D180008811800088518000834
:10005000891800088D1800089118000895180008E4
:10006000991800089D180008A1180008A518000894
:10007000A9180008AD180008B1180008B518000844
:10008000B9180008BD180008E9170008C1180008D1
:10009000C5180008C9180008CD180008D1180008B4
:1000A000D5180008D9180008DD180008E118000864
:1000B000E5180008E9180008ED180008F118000814
:1000C000F5180008F9180008FD18000801190008C3
:1000D00005190008091900080D1900081119000870
:1000E00015190008191900081D1900082119000820
:1000F00025190008291900082D19000831190008D0
:1001000035190008391900083D190008411900087F
:1001100045190008491900084D190008511900082F
:1001200055190008591900085D19000861190008DF
:1001300065190008691900086D190008711900088F
:1001400075190008791900087D190008811900083F
:1001500085190008891900088D19000891190008EF
:1001600095190008991900089D190008A11900089F
:10017000A5190008A9190008AD1900080000000021
:10018000B1190008B5190008B9190008BD1900080F
:10019000C1190008C5190008C9190008CD190008BF
:1001A000D1190008D5190008D919000870B50446FE
:1001B00000250CB9012070BD04F13C06706820B91F
:1001C000B5603070204600F075FA7068C10610D432
:1001D000706820F4885040F002007060204600F003
:1001E000C4F9B560716821F0020141F0010171604C
:1001F00000E0012500203070284670BD38B500F0C1
:1002000059F801D1022032BD00F05CF825D500F08C
:1002100032F846BF906820F00600002000F024F875
:100220000868426842F0806242F02002426000F0BA
:1002300035F806D1816811F0405F0ED100F00FF85B
:100240000BE0DFF81C14884202BFDFF818040268D4
:1002500012F0405F01D100F028F8002032BD816823
:1002600041F08041816070479060002414706FF00D
:100270002200186070475568DFF8EC03054045F42C
:10028000807555605868440505D5506820F40050C5
:1002900040F4805050605068C40470470868DFF82C
:1002A000CC130A6812F01F0F7047016841F08041BB
:1002B000016070470146002001F13C020090137874
:1002C000012B70470120107008688368DC0714D484
:1002D0008368DFF89C4343F001038360DFF89403F5
:1002E0000368B3FBF4F404EB4404009402E00098C8
:1002F000401E009000980028F9D10B689868C40748
:10030000704738B5044621680A684868920729D5BD
:10031000800627D5226CD00603D4226C42F40072EA
:100320002264886810F0405F04BFA069002812D1E1
:10033000C86A10F4700F02D0886842050BD4486870
:1003400020F020004860206C20F480702064206C35
:10035000C10400F066F8204600F016FB21686FF03B
:100360001200086021680A684868520730D5000604
:100370002ED5226CD00603D4226C42F400522264A3
:10038000886810F4401F1CD1886B10F4401F02D005
:100390008868420515D44868420512D4886810F070
:1003A000405F04BFA06900280BD1486820F080009E
:1003B0004860206C20F480502064206CC10500F05F
:1003C00030F8204600F0FEFA21686FF00C0008605B
:1003D000206802684168D2070FD549060DD500682C
:1003E000C1070AD5206C40F480302064204600F01C
:1003F000EAFA21686FF0010008602068026841682D
:1004000092060DD549010BD5626C42F0020262647E
:100410006FF020050560204600F0D6FA20680560E0
:1004200031BD03D4206C40F00100206470470068A7
:10043000C06C704778B502460020009092F83C30BE
:10044000012B01D1022072BD012082F83C0007245B
:100450000B6810680A2B11D30A3BC56803EB4303F2
:1004600000F077F8C460C3680D688C68A5F10A06CF
:1004700006EB4606B4402343C3600FE0056903EB77
:10048000430304FA03F325EA0303036103690D68D8
:100490008C6805EB4505AC40234303611F244B6882
:1004A000072B0CD25B1E456B00F051F84463436B85
:1004B0004D680C886E1E00F045F843631BE00D2B61
:1004C0000CD2DB1F056B00F042F80463036B4D6830
:1004D0000C88EE1F00F036F803630CE00D3BC56A94
:1004E00000F035F8C462C36A4D680C88A5F10D06AA
:1004F00000F028F8C3625A4B98421ED10C685B4842
:10050000122C03D1036843F4800303600B685A4C38
:10051000A34218BF112B10D1036843F400030360FA
:100520000868A04209D15349514C0B68B3FBF4F45D
:100530000A204443009400F010F8002182F83C1097
:10054000002072BD06EB8606B4402343704703EBE0
:1005500083039C4025EA0404704702E00098401E93
:10056000009000980028F9D17047404A116821F4A2
:1005700040311160136841680B431360026853688F
:1005800023F4807353605168036941EA0321516089
:10059000516821F040715160536881680B4353608A
:1005A000936823F4006393609368C1680B4393607E
:1005B0003249836A8B4210D0936823F07063936052
:1005C0009368816A0B439360936823F04053936070
:1005D0009368C16A0B43936007E0916821F07061F2
:1005E0009160916821F040519160916821F0020181
:1005F00091609168836941EA43019160016A002931
:1006000051680CD041F400615160516821F460419F
:1006100051605168436A5B1E41EA433101E021F4B5
:1006200000615160D16A21F47001D162D16AC3695D
:100630005B1E41EA0351D162916821F4007191601F
:100640009168036B41EA43219160916821F48061D4
:1006500091609168406941EA802191607047000093
:100660000020014008200140FEF9FFFF0423014063
:1006700040420F000C000020120000100100000F8B
:1006800081B00020009000224248416841F480413E
:100690004160416801F48041009100990092036833
:1006A00043F080530360006800F080500090009891
:1006B00001B0704738B586B000F066F82468364D52
:1006C000AC4228D10020009000223448416941F416
:1006D00000714161416901F400710091009900923B
:1006E0004021036843F0010303600322006800F027
:1006F0000100009000982A48019102920021039184
:1007000001A900F07FF900220021122000F08EFAEA
:10071000122000F0A8FA07B030BD81B0006821496E
:1007200088420BD100221B480092016841F004016D
:100730000160006800F004000090009801B070476C
:1007400038B586B000F020F82468164DAC4219D1B7
:100750000020009002221148016841F00801016068
:100760004FF40051006800F00800009000980E4817
:10077000019102920021039104910221059101A9A6
:1007800000F040F907B030BD044601A8142100F084
:1007900095BA000040380240002101403038024044
:1007A0000000024000080040000C024078B589B00B
:1007B00000F088FA00F09DF801A8142100F07EFAFC
:1007C00000200090744C7548754D0168754E41F0DD
:1007D00080010160026802F080020092002200990C
:1007E0000092036843F001030360016801F0010116
:1007F000009100990092036843F0080303600168C8
:1008000001F008010091009900924FF40051036833
:1008100043F040030360006800F04000009000983F
:10082000204600F0CBF94FF4005101910122002144
:1008300003910491029201A9204600F0E3F8684672
:10084000102100F03BFA584C584820604FF480319A
:100850005748A06200220120E06160616160A260EF
:100860002261A2612262E262E26022632046FFF717
:100870009DFC062001210090019100220292694610
:100880002046FFF7D7FD00BF4CA01C21D0E9002374
:10089000CDE9002302A800F011FA002068600021D1
:1008A00040F2FF70E860A96029612E60284600F0E0
:1008B00038FA0021009101912846694600F0E6FBD4
:1008C00060210022029103920492069202A904225E
:1008D000284600F053FA2846FFF732FF2046FFF77C
:1008E0008DFC40F28550B0630421284600F026FAC2
:1008F000FEE780B592B006A8302100F0DFF901A82C
:10090000142100F0DBF9002000904FF480332948D7
:10091000016841F0805101600021006800F08050C2
:100920000090009824480091026822F4404242F46A
:10093000804202600122006800F44040009006A856
:100940000099069202214FF480020C910D9204212D
:1009500064220E910F9202210422079310911192AA
:1009600000F0BAFB02210291002203920F204FF403
:10097000A051019004914FF480520592032101A8E7
:1009800000F026FD13B000BD10B5074C2046FFF760
:100990004EFDA06410BD0000001802403038024037
:1009A0005C000020000800401000002000210140F1
:1009B0000100000F403802400070004000000000BD
:1009C0000000000070477047704730B4002513E006
:1009D00050F8042BD30744BFA9F101039A18091F4B
:1009E000042942F8045BFAD213468C0744BF1580F1
:1009F0009B1CC90748BF1D7050F8041B0029E7D194
:100A000030BC70472DE9F84702460B4600246D487C
:100A10000F2101271D68A74007EA0508B84540F0E7
:100A2000C7805D68022D18BF122D4FEA840911D1CD
:100A3000E50802EB850C09F01C05DCF820E0D3F892
:100A400010A001FA05F62EEA06060AFA05F5354366
:100A5000CCF820504FEA440C0326156806FA0CF631
:100A60006FEA060E1E7906F003060EEA050506FA81
:100A70000CF6354315605D68012D18BF022D03D0BB
:100A8000112D18BF122D10D19568DE680EEA0505EC
:100A900006FA0CF635439560556825EA07075D6848
:100AA000C5F30015A5402F435760D7680EEA070528
:100AB0009F6807FA0CF63543D5605D68EF0077D57F
:100AC0000025009509F00C0907683F4E47F4804760
:100AD000076001FA09FE056805F480450095009F4E
:100AE000A70856F8275025EA0E0E384DAA4208BF2F
:100AF00000252CD0364DAA4208BF012527D0354D00
:100B0000AA4208BF022522D0334DAA4208BF0325BE
:100B10001DD0324DAA4208BF042518D0304DAA423C
:100B200008BF052513D02F4DAA4208BF06250ED0B9
:100B30002D4DAA4208BF072509D02C4DAA4208BF57
:100B4000082504D02A4DAA420CBF09250A2505FA1A
:100B500009F545EA0E0546F827506FEA0807254EC5
:100B6000356807EA050C5D68ED0348BF48EA0C0CE0
:100B7000C6F800C0756807EA050C5D68AD0348BF9C
:100B800048EA0C0CC6F804C0B56807EA050C5D68B5
:100B9000ED0248BF48EA0C0CC6F808C0F56807EA41
:100BA000050C5F68BD0248BF48EA0C0CC6F80CC0D3
:100BB000641C0F2C7FF62DAFBDE8F18702B9090444
:100BC000816170474438024008380140000002400B
:100BD0000004024000080240000C024000100240E5
:100BE0000014024000180240001C02400020024095
:100BF00000240240003C01400901020006D5294AB8
:100C000000F00F00104400F8041C7047264B1954E4
:100C10007047264B19684FF6FF020002114000F49E
:100C2000E0600843224908431860704738B51F4BFD
:100C30001C68C4F30223C3F10704052C28BF042455
:100C40001D1D072D34BF0023DB1E012505FA04F40A
:100C5000641E2140994005FA03F35B1E1A401143BC
:100C6000BDE83440C8E7012200F01F01114BFFE747
:100C70008A40400943F82020704710B5401EB0F16B
:100C8000807F01D3012010BD0B4C60600F214FF01D
:100C9000FF30FFF7B1FF0021A16007202060002096
:100CA00010BD000018ED00E000E400E00CED00E0F5
:100CB0000000FA0500E100E010E000E0002200F092
:100CC00045BC000080B50B48016841F4007101602B
:100CD000026842F480620260016841F48071016040
:100CE0000320FFF796FF002000F04AFCFFF7C8FC46
:100CF000002002BD003C024002206870211D2068D7
:100D000000F0B4F801206870002032BD03D1416CBE
:100D100041F400414164016841F00101016000209B
:100D200010BD38B5040001D1012032BD00F01EF81D
:100D300018B900F017F8FFF7F0FCDDE710B500F088
:100D400007F800F00AF81CBFDFF828209042DDE722
:100D500004460122206800F0FEB82068DFF8181071
:100D600088427047002129702046704704F13805F9
:100D700068787047000401400000014070B500F041
:100D800063F801D1022070BD00F065F832B1042A89
:100D900017D0082A28D00C2A39D04AE030682946D2
:100DA00000F0E3F83068816941F0080100F048F88C
:100DB00021F00401816131688A69286902438A61EE
:100DC00037E03068294600F099F83068816941F4CD
:100DD000006100F035F821F4806100F031F82A69F3
:100DE00041EA0221816124E03068294600F0E5F8FB
:100DF0003068C16941F0080100F01EF821F00401DB
:100E0000C1613168CA6928690243CA6111E030686A
:100E1000294600F0FDF83068C16941F4006100F036
:100E20000BF821F4806100F007F82A6941EA0221F9
:100E3000C16100F015F870BDC1613068C1697047CB
:100E40008161306881697047064606F138040D46B5
:100E500020780128704701202070022161707047BE
:100E6000012060700021217000207047F0B57A4C9D
:100E700005687A4B7A4E7B4FDFF8ECC1A04218BF71
:100E8000B0F1804F07D0604518BFB84203D0B042E0
:100E900018BF98420DD14A6825F070051543A0424D
:100EA00018BFB0F1804F17D060451CBFB842B042A8
:100EB00012D098421CBF6D4A90420DD06C4EB04289
:100EC0001CBF6C4A904207D06B4EB0421FBF6B4AAA
:100ED00090426B4EB04203D1CA6825F44075154369
:100EE0000560A0428D68C5620A68826212BF98429E
:100EF0000969016301224261F0BD000070B5026A18
:100F0000554E22F010020262B042056A43688469BD
:100F10000A6824F4E64444EA02248A6825F020059D
:100F200045EA02151CBF4D4A90420DD1CA684E6970
:100F300025F0800545EA02158A6923F440631643CB
:100F400025F0400543EA8603436084614968816374
:100F5000056270BD000010B5036A01248C40A343F4
:100F6000036202FA01F1036A8CE0F0B5026A5208EA
:100F700052000262066A446885690B688A6825F037
:100F800073051D4326F002061643334B98421CBFDF
:100F9000324FB8420BD1CA684B6926F0080624F4D8
:100FA000407416438A691C4326F0040614434460C7
:100FB0008561496841630662F0BD70B5026A22F43A
:100FC00080720262056A4368C4690A688E6824F008
:100FD0007304144325F400751F4A45EA0625904220
:100FE0001CBF1E4EB0420DD1CA684E6925F4006583
:100FF00045EA02258A6923F44053164325F48065A7
:1010000043EA06134360C4614968C163056270BD69
:1010100070B5026A104E22F480520262B042046A35
:101020004268C3690D6823F4E64343EA05238D68EB
:1010300024F4005444EA05341CBF084DA84204D1EE
:101040004D6922F4804242EA85124260C3614968D8
:101050000164046270BD0000000001400004014012
:10106000000C004000080040000400400040014027
:10107000004401400048014000180040001C0040AE
:10108000002000401943016210BD000030B500F19E
:1010900038031A78012A01D1022030BD01221A70CA
:1010A00002245C700268546824F070045460046880
:1010B00065680A68154365600268946824F08004D6
:1010C00094600268946848680443946001215970F0
:1010D0000020187030BD00002DE9F843040017D03F
:1010E0002078B74EC10745D5B06800F00C00042841
:1010F00007D0B06800F00C0008280BD170684102DE
:1011000008D53068810335D56068002840F0BA8082
:10111000012053E16068B0F5803F04D1306840F4AD
:101120008030306011E0B0F5A02F306806D140F477
:1011300080203060316841F4803105E020F4803057
:101140003060316821F480213160606868B100F05E
:1011500037FA05463068810300F1948000F030FAD8
:10116000401B6528F6D3032028E100F029FA054644
:101170003068810340F1868000F022FA401B652828
:10118000F6D3F0E700F01CFA401B022840F2A780DB
:10119000E9E7E06870B10121396000F011FA054615
:1011A0003068810700F1CB8000F00AFA401B02286A
:1011B000F6D9D8E7386000F003FA054631688807A9
:1011C00063D500F0FDF9401B0228F7D9CBE7086092
:1011D00000F0F6F90546706F810775D500F0F0F95B
:1011E000401B0228F7D9BEE70528306F06D140F032
:1011F00004003067306F40F0010005E04008400017
:101200003067306F20F00400306741F28938A06801
:1012100068B100F0D5F98146306F810700F19C80FC
:1012200000F0CEF9A0EB09004045F5D39BE700F0B4
:10123000C7F98146306F810740F18E8000F0C0F918
:10124000A0EB09004045F5D38DE700F0B9F9401B4C
:10125000022840F2968086E700F0B2F9001B0228CF
:1012600040F2A7807FE70020386600F0A9F9044625
:101270003068810140F1A18000F0A2F9001B022832
:10128000F6D970E720784F4F81071BD5B06810F072
:101290000C0F09D0B06800F00C0008287FF479AF7B
:1012A000706841023FF575AF3068810703D5E0688B
:1012B00001287FF42DAF3168206921F0F80141EA5F
:1012C000C0013160217808070DD560693E490028CA
:1012D0003FF47DAF01220A6000F072F90546706F9D
:1012E00081077FF54FAF207841073AD5306C002554
:1012F000C1000AD400950125316C41F08051316460
:10130000306C00F0805000900098DFF8C080D8F872
:101310000000C1051BD4D8F8000040F48070C8F864
:10132000000000F04DF98146D8F80000C1050ED448
:1013300000F046F9A0EB09000228F5D913E7306860
:10134000216920F0F80040EAC1003060BAE7A068E7
:1013500001287FF449AF4DE71DB1306C20F080507B
:101360003064A06948B3B16801F00C0108293FF46A
:10137000CFAE02287FF477AF0020386600F020F966
:101380000546306881013FF560AFE269206A616A15
:101390000243A06A400842EA8112401E42EA00422B
:1013A000E06A42EA006272600121396600F008F9E1
:1013B0000446306881017FF54FAF0020BDE8F2831D
:1013C0000038024000004742800E47420070004053
:1013D0002DE9F04104000F4677D0404E306800F010
:1013E0000F00B84202D200F072F86ED120683C4D76
:1013F000810712D5400703D5A96841F4E051A960DF
:101400002078010703D5A86840F46040A860A96867
:10141000A06821F0F0010143A9602178C8074CD5EC
:101420006068012802D129688A0305E0022818BFF4
:10143000032803D129688A0103D446E029688A0772
:1014400043D5A968890840EA8100A86000F0B8F88F
:101450008046A868616800F00C00B0EB810F2CD0CA
:1014600000F0AEF8A0EB080041F289318842F0D3D9
:10147000032020E02078410705D5AA68E06822F41F
:10148000E0520243AA602178080706D5A9682069BE
:1014900021F4604141EAC001A96000F027F8AA6880
:1014A0001049114BC2F30312895CC8401860002038
:1014B00000F066F80020BDE8F081306800F00F0011
:1014C0008742D7D200F003F8D4D00120F3E7377079
:1014D000316801F00F01B94270470000003C024042
:1014E00000380240281700080C00002030B5144CCA
:1014F000606800F00C00042802D0082802D01DE02B
:10150000104830BD226820680023410202F03F02EB
:1015100004D525680B49C5F3881003E020680A4903
:10152000C0F38810A1FB000100F050F82168C1F35E
:101530000141491C4900B0FBF1F030BD024830BD0B
:101540000438024000127A000024F40000B500BF05
:10155000130096469446103928BFA0E80C50FAD8DC
:101560005FEA417C28BF0CC048BF40F8042BC90784
:1015700028BF20F8022B48BF00F8012B00BD000057
:1015800038B50D4D0D4B2A7804464FF47A71186822
:10159000B1FBF2F2B0FBF2F0FFF76FFB50B9102C89
:1015A00008D2002221464FF0FF30FFF73FFBAC602E
:1015B000002032BD012032BD000000200C000020C0
:1015C00001484068704700BF00000020D3BBD9B17C
:1015D000B2F5803F5BD2022A1ED98C46B1FBF2F1F4
:1015E00002FB11C31B0443EA1043B3FBF2FC02FBF2
:1015F0001C3380B240EA0343B3FBF2F002FB10322B
:1016000040EA0C4000237047022A05D98446B0FB0B
:10161000F2F002FB10C270474AB105D100F001029E
:1016200049085FEA3000704700220023704700F04D
:1016300051B80B000200002100207047F7D30022B0
:1016400000237047904271EB030CF2D370B5B1FAEE
:1016500081F4B3FA83F52C1BA340C4F1200532FAC0
:1016600005F63343A2405FF00046E64002E05B0827
:101670005FEA3202841A71EB030524BF2046294633
:101680007641F4D302000B003000002170BD70B52C
:10169000B1FA81F4B2FA82F5C4F120046419B4F10C
:1016A0002006DAD3B2405FF00044F440002502E0A7
:1016B00052085FEA3303C61A71EB020E24BF3046AC
:1016C000714664416D41F3D302000B0020002900F4
:1016D00070BD0000704700000E48016841F47001C1
:1016E000016000220C49086840F0010008608A602F
:1016F0000B680A480A4A03400B604A6000200B68E6
:10170000084A23F480230B60C8604FF00061116029
:101710007047000088ED00E000380240FFFFF6FE51
:101720001030002408ED00E0000000000000000080
:10173000010203040607080930B450F8041B79B10C
:101740000268436802440830DC0744BFA9F1010481
:10175000E31852F8045B43F8045B091FF9D1ECE786
:1017600030BC704710B5074979441831064C7C44A9
:10177000163404E00A68081D114488470146A14256
:10178000F8D110BD2C0000004C0000004EF688512E
:10179000CEF20001086840F470000860BFF34F8F7C
:1017A000BFF36F8F4FF00070E1EE100A704700003A
:1017B0001BF2FFFF88000000100000200000000066
:1017C00079FFFFFF100000009400000000000020DF
:1017D000000000007047FEE7FEE7FEE7FEE7704707
:1017E0007047704700F006B80148FEF78ABD000058
:1017F000100000200248416802788A184260704751
:101800000000002000F00DF8002801D0FFF7AAFF2B
:10181000AFF300800020AFF30080FEF7C7FF00F0B9
:1018200002F80120704700F001B800000746384672
:1018300000F002F8FBE7000080B5AFF30080024A39
:1018400011001820ABBEFBE72600020001488047CC
:1018500001480047D91600086D1800080100000073
:1018600000000000100000000024F400AFF300802E
:10187000FFF78CFFFFF7C6FFFFF7FEBFFFF7FEBFC6
:10188000FFF7FEBFFFF7FEBFFFF7FEBFFFF7FEBF8C
:10189000FFF7FEBFFFF7FEBFFFF7FEBFFFF7FEBF7C
:1018A000FFF7FEBFFFF7FEBFFFF7FEBFFFF7FEBF6C
:1018B000FFF7FEBFFFF7FEBFFFF7FEBFFFF7FEBF5C
:1018C000FFF7FEBFFFF7FEBFFFF7FEBFFFF7FEBF4C
:1018D000FFF7FEBFFFF7FEBFFFF7FEBFFFF7FEBF3C
:1018E000FFF7FEBFFFF7FEBFFFF7FEBFFFF7FEBF2C
:1018F000FFF7FEBFFFF7FEBFFFF7FEBFFFF7FEBF1C
:10190000FFF7FEBFFFF7FEBFFFF7FEBFFFF7FEBF0B
:10191000FFF7FEBFFFF7FEBFFFF7FEBFFFF7FEBFFB
:10192000FFF7FEBFFFF7FEBFFFF7FEBFFFF7FEBFEB
:10193000FFF7FEBFFFF7FEBFFFF7FEBFFFF7FEBFDB
:10194000FFF7FEBFFFF7FEBFFFF7FEBFFFF7FEBFCB
:10195000FFF7FEBFFFF7FEBFFFF7FEBFFFF7FEBFBB
:10196000FFF7FEBFFFF7FEBFFFF7FEBFFFF7FEBFAB
:10197000FFF7FEBFFFF7FEBFFFF7FEBFFFF7FEBF9B
:10198000FFF7FEBFFFF7FEBFFFF7FEBFFFF7FEBF8B
:10199000FFF7FEBFFFF7FEBFFFF7FEBFFFF7FEBF7B
:1019A000FFF7FEBFFFF7FEBFFFF7FEBFFFF7FEBF6B
:1019B000FFF7FEBFFFF7FEBFFFF7FEBFFFF7FEBF5B
:1019C000FFF7FEBFFFF7FEBFFFF7FEBFFFF7FEBF4B
:0C19D000FFF7FEBFFFF7FEBFFFF7FEBFF2
:040000050800186D6A
:00000001FF
