:020000040800F2
:10000000100500208D270008152700081727000875
:10001000192700081B2700081D2700080000000002
:100020000000000000000000000000001F27000882
:1000300021270008000000002327000825270008CA
:10004000A9270008AD270008B1270008B527000838
:10005000B9270008BD270008C1270008C5270008E8
:10006000C9270008CD270008D1270008D527000898
:10007000D9270008DD270008E1270008E527000848
:10008000E9270008ED27000829270008F1270008C4
:10009000F5270008F9270008FD27000801280008B7
:1000A00005280008092800080D2800081128000864
:1000B00015280008192800081D2800082128000814
:1000C00025280008292800082D28000831280008C4
:1000D00035280008392800083D2800084128000874
:1000E00045280008492800084D2800085128000824
:1000F00055280008592800085D28000861280008D4
:1001000065280008692800086D2800087128000883
:1001100075280008792800087D2800088128000833
:1001200085280008892800088D28000891280008E3
:1001300095280008992800089D280008A128000893
:10014000A5280008A9280008AD280008B128000843
:10015000B5280008B9280008BD280008C1280008F3
:10016000C5280008C9280008CD280008D1280008A3
:10017000D5280008D9280008DD2800080000000064
:10018000E1280008E5280008E9280008ED28000813
:10019000F1280008F5280008F9280008FD280008C3
:1001A000012900080529000809290008F0B589B0CF
:1001B00000F0A8FA00F02FF9142200F01BF900203B
:1001C0000590DFF8A444DFF8A404DFF8A454016824
:1001D000DFF8A064DFF8A07441F02001016002683C
:1001E00002F020020592002205990592036843F06F
:1001F00080030360016801F0800100F007F943F01B
:1002000001030360016801F0010100F0FFF843F011
:1002100040030360016801F0400100F0F7F843F08B
:1002200010030360016801F0100100F0EFF843F0E3
:1002300008030360016801F0080100F0E7F843F0EB
:1002400004030360016801F004010591059905921A
:100250000121036843F002030360006800F002001C
:1002600005900598204600F048FB00224FF4E0512D
:10027000284600F042FB0022FF21304600F03DFB03
:1002800000224FF40051384600F037FB0121009165
:1002900001912046002102910391694600F04CFA39
:1002A0004FF4404000F0A1F82046694600F044FABF
:1002B000032000F09AF83846694600F03DFA4FF402
:1002C000C07000F092F86946DFF8B00300F034FA2D
:1002D0004FF4E05100F092F8284600F02DFAFF218B
:1002E00000F08CF8304600F027FA4FF4005100F08F
:1002F00085F8384600F020FA102200F07BF8E04E36
:10030000E048DFF8A043E04D30604FF48031DF4833
:10031000B06200220120F06170617160B2603261F0
:10032000327686F82020F262F26086F8302030467D
:1003300000F002FB062001210090019100220292B0
:100340006946304600F0DFFC082200F053F81C221A
:10035000002102A800F090FD0720A06000214FF6C8
:10036000FF702061E1606161E1616560201D00F066
:10037000A7FD002100910191201D694600F064FF56
:1003800060210022029103920492069202A90422A3
:10039000201D00F0C3FD201D00F0FBFF304600F0E3
:1003A0007FFBBB48BB49BC4ABC4BC4E91801CF49E1
:1003B000C4E91A23C4E91C214FF49676AE630421E4
:1003C000201D00F08AFD20780028FCD194ED160B4A
:1003D00000F0BCF8E067A863C82001F011F8002025
:1003E000A863C82001F00CF8EDE70021009001910E
:1003F000029170470021684600F03EBD0091012245
:100400000021029103910192694670470591059977
:1004100005920368704780B592B03022002106A88B
:1004200000F02AFD1422002101A800F025FD002083
:1004300000909B48016841F08051016000210068F4
:1004400000F0805000900098A948009102210268B5
:1004500022F4404242F4804202600122006800F42B
:100460004040009000980691099210210A910222C2
:1004700000210C920D91082264210E920F9102220C
:1004800004211092119106A800F0CEFF02210291E2
:10049000002203920F204FF4A051019004914FF4D9
:1004A00080520592032101A801F046F913B000BD66
:1004B00038B5734C7B4D204600F022FCA86701F054
:1004C000FBF902460B460020774901F01FFA002293
:1004D000764B01F03FFB41EC100B01F0FCFB53ECC1
:1004E000102B7348734901F0FDFB734A734B01F005
:1004F00031FB02460B460020714901F007FAC5E9BD
:100500001201D5E912234FF066306E4901F022FB4B
:1005100041EC100B85ED140B53EC102B00206A49B5
:1005200001F0E0FB0022694B01F0F0F90022684B7A
:1005300001F010FB00226F4B01F00CFBC5E9160126
:100540002046BDE8324000F0ABBA00002DE9F04192
:100550002DED088BB0EE408AF0EE608A01F094FC3D
:100560005C4F0646786B3E63301A01F0A5F941EC0A
:100570001A0BD7E9020187ED00AB53EC182B01F001
:1005800089FC41EC180B87ED048B53EC182B51ECD4
:100590001A0B01F0A7FBD7E9062301F0DBFAD7E934
:1005A0000A2341EC190B51EC180B01F073FC53ECCE
:1005B0001A2B01F0ABF90022474B41EC1A0B51EC1E
:1005C000190B01F0D9FC87ED08AB9FED44BB38BF98
:1005D0009FED449B06D300F043F89CBFB0EE4B9ACE
:1005E000F0EE6B9ADFF8BC8087ED069BD8E9182304
:1005F00051EC180B01F076FB04460D46D8E91A239E
:10060000D7E9060101F06EFB22462B4601F0A2FA63
:10061000D8E91C2304460D4651EC1A0B01F062FB8D
:1006200022462B4601F096FA0022002301F0A4FC9A
:1006300041EC190B38BF9FED309B06D300F010F84A
:100640009CBFB0EE4B9AF0EE6B9A87ED0A8B7E63FF
:1006500051EC190BBDEC088BBDE8F04101F0A4BCD6
:100660000122274B01F0BEBC00140240303802408A
:1006700000080240000C0240001802400010024036
:10068000C800002000210140000800400100000FC8
:100690008FC2F5285C8F3340B81E85EB51B8E63F1A
:1006A00040380240480000200000B0400000F0BF89
:1006B0003C9B1FEB60DB2D3F83DBB5DCE1796B3FBF
:1006C0000000F03F661271C000002240000014409C
:1006D0000000404000000020E0FFEFC000000000EC
:1006E000E0FFEF4000000000E0FFEFC051C86040B5
:1006F00000700040000034400000000000000000D6
:10070000E0FFEF4080B50B48016841F400710160E3
:10071000026842F480620260016841F48071016005
:10072000032001F084FC002001F0D6FC00F0D2FD93
:10073000002002BD003C02402DE9F84F0D46002686
:100740007049714A0F23044601202F68B04000EA27
:100750000708804540F0CB804FEA460C032707FA94
:100760000CF76FEA070E6F68012F18BF022F03D036
:10077000112F18BF122F12D1A768D5F80C900EEACE
:10078000070709FA0CF949EA0707A760676827EA2B
:1007900000006F68C7F30017B74038436060E06837
:1007A000AF680EEA000007FA0CF73843E060B000CB
:1007B0006F68022F18BF122F12D1F70804EB8707BA
:1007C00000F01C09D7F820A003FA09FB2AEA0B0A5B
:1007D000D5F810B00BFA09F949EA0A09C7F82090D0
:1007E00027680EEA070E2F7907F0030707FA0CF7C0
:1007F00047EA0E0727606F68FF0078D5002700974B
:100800004FEA960C176847F48047176000F00C0019
:10081000176807F48047009703FA00FE009F3B4FDC
:1008200057F82C7027EA0E0E394FBC4208BF00273C
:100830002CD0384FBC4208BF012727D0364FBC42CE
:1008400008BF022722D0354FBC4208BF03271DD066
:10085000334FBC4208BF042718D0324FBC4208BFF8
:10086000052713D0304FBC4208BF06270ED02F4FAC
:10087000BC4208BF072709D02D4FBC4208BF08273C
:1008800004D02C4FBC420CBF09270A2707FA00F0FE
:100890001E4F40EA0E0047F82C006FEA08000F6870
:1008A00000EA070C6F68FF0348BF48EA0C0CC1F868
:1008B00000C04F6800EA070C6F68BF0348BF48EAF2
:1008C0000C0CC1F804C08F6800EA070C6F68FF02C7
:1008D00048BF48EA0C0CC1F808C0CF6800EA070C12
:1008E0006868800248BF48EA0C0CC1F80CC0761C4E
:1008F0000F2E7FF629AFBDE8F18F02B9090481619F
:1009000070470000003C0140443802400838014074
:10091000000002400004024000080240000C0240B7
:10092000001002400014024000180240001C024067
:10093000002002400024024070B5044600250CB996
:10094000012070BD04F13006306920B9204600F066
:10095000DBFC756135733069C10600F19280306946
:10096000DFF8EC1420F4885040F002003061086891
:1009700020F4403008600A68606802430A6020681A
:10098000416821F48071416020684168226941EA30
:10099000022141602068416821F040714160216876
:1009A0004A68A06802434A602068816821F40061B7
:1009B000816021688A68E06802438A602068A16AD1
:1009C000DFF890249142816821F0706181600CD041
:1009D00021688A68A06A02438A6000F05BF8216897
:1009E0008A68E06A02438A6001E000F053F82068F8
:1009F000816821F0020100F049F8227E41EA4201BB
:100A0000816094F820002168002848680FD040F4E5
:100A1000006048602068416821F4604141602068BE
:100A20004168626A521E41EA4231416002E020F4AC
:100A3000006048602068C16A21F47001C1622068CA
:100A4000C16AE269521E41EA0251C16220688168AE
:100A500021F4007100F01AF8327841EA422100F0E6
:100A600015F821F4806100F011F8626941EA8221F1
:100A700081607561316921F0020141F0010131614C
:100A800000E0012500203073284670BD8160206899
:100A9000816870472068816821F04051816070470B
:100AA00038B500F064F801D1022032BD00F073F8CF
:100AB00038D500F044F846BF906820F006000020CA
:100AC00000F032F818600868426842F0806242F034
:100AD00020024260DFF8782300F056F818D18842EF
:100AE0000FD0DFF87413884204D1126812F01F0F80
:100AF00018D106E0DFF86413884213D100F01AF829
:100B000010D2816811F0405F0CD100F038F809E094
:100B1000884202BFDFF84803016811F0405F01D14D
:100B200000F020F8002032BD9060002414706FF0B7
:100B300022007047126802F01F02102A70475568A1
:100B4000DFF82003054045F480755560586844057A
:100B500005D5506820F4005040F480505060506833
:100B6000C4047047016841F080410160704701464C
:100B7000002001F13C0200901378012B704781683E
:100B800041F080418160704708681368DFF8D8122F
:100B900013F01F0F70470120107008688368DC078E
:100BA00014D48368DFF8C44243F001038360DFF8A4
:100BB000C0020368B3FBF4F404EB4404009402E0C5
:100BC0000098401E009000980028F9D10B689868A2
:100BD000C407704738B5044621680A684868920718
:100BE00029D5800627D5226CD00603D4226C42F486
:100BF00000722264886810F0405F04BF207E0028E5
:100C000012D1C86A10F4700F02D0886842050BD464
:100C1000486820F020004860206C20F48070206438
:100C2000206CC10400F066F82046FFF741FC216803
:100C30006FF01200086021680A684868520730D5D2
:100C400000062ED5226CD00603D4226C42F400524A
:100C50002264886810F4401F1CD1886B10F4401F78
:100C600002D08868420515D44868420512D48868C5
:100C700010F0405F04BF207E00280BD1486820F0B0
:100C800080004860206C20F480502064206CC105F6
:100C900000F030F8204601F03FFA21686FF00C00B8
:100CA0000860206802684168D2070FD549060DD553
:100CB0000068C1070AD5206C40F4803020642046CB
:100CC00001F02BFA21686FF00100086020680268CB
:100CD000416892060DD549010BD5626C42F00202C3
:100CE00062646FF020050560204601F017FA206865
:100CF000056031BD03D4206C40F0010020647047D2
:100D00000068C06C704778B502460020009092F8E9
:100D10003C30012B01D1022072BD012082F83C0041
:100D200007240B6810680A2B12D30A3BC56803EB33
:100D300043039C4025EA0404C460C3680D688C68C2
:100D4000A5F10A0606EB4606B4402343C3600FE054
:100D5000056903EB430304FA03F325EA0303036184
:100D600003690D688C6805EB4505AC4023430361BE
:100D70001F244B68072B0CD25B1E456B00F059F803
:100D80004463436B4D680C886E1E00F04DF843635E
:100D90001BE00D2B0CD2DB1F056B00F04AF804633F
:100DA000036B4D680C88EE1F00F03EF803630CE007
:100DB0000D3BC56A00F03DF8C462C36A4D680C88FB
:100DC000A5F10D0600F030F8C362274B984226D1FA
:100DD0000C681F48122C07D1036823F4000303603A
:100DE000046844F4800404600B68224CA34218BFDA
:100DF000112B14D1036823F480030360056845F4C4
:100E0000000505600868A04209D11949174C0B6814
:100E1000B3FBF4F40A204443009400F010F80021DE
:100E200082F83C10002072BD06EB8606B4402343D6
:100E3000704703EB83039C4025EA0404704702E0FB
:100E40000098401E009000980028F9D170470000DB
:100E5000042301400100000F002101400022014055
:100E600008200140FEF9FFFF0020014040420F0032
:100E7000440000201200001010B5044610460A4637
:100E80000146204601F04CF9204610BD0220687052
:100E9000211D206800F0BAF801206870002032BDE2
:100EA00003D1416C41F400414164816801F00701C4
:100EB000062903D0016841F001010160002010BD46
:100EC00038B5040001D1012032BD00F01EF818B978
:100ED00000F017F800F04AFAD8E710B500F007F86C
:100EE00000F00AF81CBFDFF82C209042D8E7044637
:100EF0000122206800F09AB92068DFF81C108842AF
:100F00007047002129702046704704F13C0568783D
:100F100070470000000401400000014070B500F07F
:100F200063F801D1022070BD00F06BF832B1042AE1
:100F300017D0082A28D00C2A39D04AE03068294630
:100F400000F0AFF83068816941F0080100F048F81E
:100F500021F00401816131688A69286902438A614C
:100F600037E03068294600F0C8F83068816941F4FC
:100F7000006100F035F821F4806100F031F82A6951
:100F800041EA0221816124E03068294600F0E5F859
:100F90003068C16941F0080100F01EF821F0040139
:100FA000C1613168CA6928690243CA6111E03068C9
:100FB000294600F001F93068C16941F4006100F090
:100FC0000BF821F4806100F007F82A6941EA022158
:100FD000C16100F010F870BDC1613068C16970472F
:100FE0008161306881697047064606F13C040D4610
:100FF00020780128704701206070002121700020B6
:10100000704701202070022161707047F0B57C4C60
:1010100005687C4B7C4E7D4FDFF8F4C1A04218BFC1
:10102000B0F1804F07D0604518BFB84203D0B0423E
:1010300018BF98420DD14A6825F070051543A042AB
:1010400018BFB0F1804F17D060451CBFB842B04206
:1010500012D098421CBF6F4A90420DD06E4EB042E3
:101060001CBF6E4A904207D06D4EB0421FBF6D4A02
:1010700090426D4EB04203D1CA6825F440751543C5
:101080004A6925F0800515430560A0428D68C56258
:101090000A68826212BF98420969016301224261B3
:1010A000F0BDF0B5026A564F520852000262066A5D
:1010B000446885690B688A6825F0730526F0020686
:1010C0001D4316434F4BB84218BF984207D1CA6818
:1010D00026F008061643B84226F0040601D09842CE
:1010E00005D14B698A6924F440741C43144344605D
:1010F0008561496841630662F0BDF0B5026A404E01
:1011000022F010020262B042056A436884690A68EC
:1011100024F4E64444EA02248A6825F0200545EADE
:101120000215384A18BF904208D1CF6825F08005D3
:1011300045EA0715B04225F0400501D0904206D19E
:101140004E698A6923F44063164343EA8603436089
:101150008461496881630562F0BDF0B5026A22F4DA
:1011600080720262056A4368C4698E680A6825F461
:10117000007524F0730445EA06251443204E214AE5
:10118000B04218BF904208D1CF6825F4006545EA07
:101190000725B04225F4806501D0904206D14E6902
:1011A0008A6923F44053164343EA06134360C4613B
:1011B0004968C1630562F0BD70B5026A104E22F441
:1011C00080520262B042046A4268C3690D6823F427
:1011D000E64343EA05238D6824F4005444EA0534C9
:1011E0001CBF084DA84204D14D6922F4804242EA56
:1011F00085124260C36149680164046270BD0000E9
:101200000000014000040140000C004000080040C4
:1012100000040040004001400044014000480140FB
:1012200000180040001C00400020004010B501F0F4
:101230001F01036A01248C40A343036202FA01F1F7
:10124000036A1943016210BD70B500F13C031A78BE
:10125000012A01D1022070BD01221A7002245C70A3
:1012600005686E68AC680A6826F0700616436E6002
:1012700002681148824218BFB2F1804F11D00F4866
:1012800082421CBF0E4DAA420BD00E4882421CBFA8
:101290000D4DAA4205D00D4882421CBF0C4DAA42FA
:1012A00004D1486824F080040443946001215970FB
:1012B0000020187070BD00000000014000040040D4
:1012C00000080040000C00400004014000400140C4
:1012D0000018004081B00020009000224248416880
:1012E00041F480414160416801F4804100910099DE
:1012F0000092036843F080530360006800F0805060
:101300000090009801B0704710B586B000F065F805
:1013100021683648814227D1002235480092416930
:1013200041F400714161416901F40071009100993B
:1013300000924021036843F0010303600322006828
:1013400000F00100009000982A48019102920021CB
:10135000039101A9FFF7F0F900220021122000F00B
:1013600073FE122000F08DFE06B010BD81B0006843
:10137000214988420BD100221B480092016841F0AC
:1013800004010160006800F004000090009801B0C2
:10139000704710B586B000F020F8216816488142E9
:1013A00019D10022124800920222016841F008017E
:1013B00001604FF40051006800F0080000900098B0
:1013C0000E4801910292002103910491022105919E
:1013D00001A9FFF7B1F906B010BD0446142200219F
:1013E00001A8FFF749BD000040380240002101403C
:1013F000303802400000024000080040000C02406B
:1014000038B5044600F040FD14F1010F054602D046
:1014100004480178641800F037FD401BA042FAD35D
:1014200031BD00BF380000202DE9F843040016D07C
:101430002078DFF8F462C10713D5B06800F00C0023
:10144000042807D0B06800F00C0008283DD170686F
:1014500041023AD53068810303D56068002800F066
:101460005E812078B14F810719D5B06810F00C0F5C
:1014700007D0B06800F00C0008285BD1706841020A
:1014800058D43068810703D5E068012840F04781CF
:101490003168206921F0F80141EAC001316021780A
:1014A000080779D56069A249002868D001220A603E
:1014B00000F0EAFC0546706F81076DD400F0E4FC93
:1014C000401B0228F7D903202CE16068B0F5803F6B
:1014D00004D1306840F48030306011E0B0F5A02FC6
:1014E000306806D140F480203060316841F48031AA
:1014F00005E020F480303060316821F480213160D3
:10150000606858B100F0C0FC054630688103A8D47B
:1015100000F0BAFC401B6528F7D3D4E700F0B4FC18
:101520000546306881039CD500F0AEFC401B652861
:10153000F7D3C8E7E068A8B10121396000F0A4FC46
:1015400005463068810705D400F09EFC401B022848
:10155000F7D9B8E73068216920F0F80040EAC10007
:1015600030609CE7386000F08FFC054631688807E2
:1015700095D500F089FC401B0228F7D9A3E7086045
:1015800000F082FC0546706F810705D500F07CFCF9
:10159000401B0228F7D996E7207841075FD5306CC9
:1015A0000025C1000AD400950125316C41F080511D
:1015B0003164306C00F0805000900098DFF8748146
:1015C000D8F80000C10513D4D8F8000040F48070AA
:1015D000C8F8000000F058FC8146D8F80000C105AA
:1015E00006D400F051FCA0EB09000228F5D96AE707
:1015F000A068012805D00528306F06D140F004000E
:101600003067306F40F0010005E04008400030676F
:10161000306F20F00400306741F28938A06860B173
:1016200000F032FC8146306F810713D400F02CFCAF
:10163000A0EB09004045F6D345E700F025FC8146C4
:10164000306F810706D500F01FFCA0EB0900404574
:10165000F6D338E71DB1306C20F080503064A069BB
:1016600000285ED0B16801F00C0108293AD00228A8
:101670002AD10020386600F007FC05463068810159
:1016800005D500F001FC401B0228F7D91BE7E069F3
:10169000216A626A0843A16A490840EA8210491E29
:1016A00040EA0140E16A40EA01607060012038666A
:1016B00000F0EAFB04463068810132D400F0E4FB1C
:1016C000001B0228F7D9FEE60020386600F0DCFB9C
:1016D00004463068810124D500F0D6FB001B0228A7
:1016E000F7D9F0E601281AD0B068E26900F4800169
:1016F000914202BF00F03F01226A91420FD147F6AA
:10170000C071626A0140914202BF00F44031A26A96
:10171000914202BF00F07060E16A884201D001206E
:1017200000E00020BDE8F28300380240000047429C
:10173000800E4742007000402DE9F04104000F4642
:1017400054D0404E306800F00F00B84202D200F092
:1017500073F84BD120683C4D810712D5400703D563
:10176000A96841F4E051A9602078010703D5A86871
:1017700040F46040A860A968A06821F0F00101432E
:10178000A9602178C80729D56068012802D1296895
:101790008A0305E0022818BF032803D129688A01BB
:1017A00003D423E029688A0720D5A968890840EA7C
:1017B0008100A86000F068FB8046A868616800F0BE
:1017C0000C00B0EB810F09D000F05EFBA0EB08002D
:1017D00041F289318842F0D303202BE0306800F0D9
:1017E0000F00874204D200F027F801D0012021E049
:1017F0002078410705D5AA68E06822F4E052024348
:10180000AA602178080706D5A968206921F46041FB
:1018100041EAC001A96000F01FF8AA680B490C4B0F
:10182000C2F30312895CC84018600A48006800F0DF
:1018300053FC0020BDE8F0813770316801F00F01E2
:10184000B9427047003C0240003802409826000828
:10185000440000204000002030B5144C606800F0C7
:101860000C00042802D0082802D01DE0104830BD2A
:10187000226820680023410202F03F0204D5256857
:101880000B49C5F3881003E020680A49C0F38810AB
:10189000A1FB000100F078FC2168C1F30141491C63
:1018A0004900B0FBF1F030BD024830BD04380240C1
:1018B00040787D010024F400014648B1B0FA80F17F
:1018C0008840C91CC1F58461090501EBD0214005A0
:1018D000704730B4002513E050F8042BD30744BF01
:1018E000A9F101039A18091F042942F8045BFAD2EE
:1018F00013468C0744BF15809B1CC90748BF1D7049
:1019000050F8041B0029E7D130BC7047F0B540F215
:10191000FF7581EA030C0CF0004C15EA11541DBF51
:1019200015EA1357AC42AF42E5E0BC41C1F31301E5
:10193000C3F31303801A994143F4801304D2641E45
:101940004000494180185941C90241EA5051B1FB58
:10195000F3F603FB1611A2FB0675D7EBC020A941D5
:1019600002D2761E80185941C90241EA5051B1FB9A
:10197000F3FE03FB1E11A2FB0E75D7EBC020A9419D
:1019800003D2AEF1010E80185941890241EA90510B
:10199000760546EA8E2EB1FBF3F603FB1611A2FB89
:1019A0000675D7EB8020A94102D2761E80185941D6
:1019B000C90241EA50514EEA060EB1FBF3F603FBB1
:1019C0001611A2FB0675D7EBC020A94102D2761EE4
:1019D00080185941C90241EA5051B1FBF3F703FBAA
:1019E0001711A2FB0735D3EBC020A94167F100070F
:1019F0000CBF004247F0010766F3D5274FEA1E31BE
:101A0000B80814F5806412DDBD0775F1004250EB93
:101A10000E5051EB045111F5801F5CBF41EA0C01DF
:101A2000F0BD4CF07F6141F0E0410020F0BDBD070A
:101A30006D0840EA0E5041F48011D4F10104B4F174
:101A400020060ADAC4F120060200E04001FA06F39B
:101A5000E1401843B24015430EE0342C13DCC6F1CC
:101A6000200445EA40056D0820FA06F2154321FAE4
:101A700006F0A1400D43002175F1004250F1000035
:101A800051EB0C01F0BD00205FEA0C01F0BDCFB9B5
:101A900092185B41B3FA83F704BFB2FA82F6BF191A
:101AA0000B3FB7F120062FBF02FA06F3BB40C7F188
:101AB000200622FA06F638BF3343BA401CB1E419B7
:101AC000641E33E77F4231F00041B1FA81F404BF74
:101AD000B0FA80F6A4190B3CB4F120062FBF00FA2F
:101AE00006F1A140C4F1200620FA06F638BF3143C2
:101AF000A0403C1B1AE7AC421ABF05EA1357AF429D
:101B000012E050EA41061CBF52EA4306BFE750EA22
:101B10004107304661461CBF41EA0551F0BD52EA1B
:101B2000430C08BFC143F0BD00204FF4001616EB74
:101B3000410F98BF16EB430F08BF16EB410F24BFB0
:101B4000C14305E016EB430F0CBF61464CEA05515B
:101B5000F0BD000070B44FF0004591EA030F40F172
:101B6000A1816B40841A71EB030604D26E40001B06
:101B7000B141121973414FF4001C1CEB410F34BFEB
:101B80007CEB430683E00C0DA4EB1356362E00F3DA
:101B90007C80012E45EAC32341DC43EA525312BF45
:101BA000D20292025B08240545EAC12141EA505164
:101BB000D2EBC020994125D407D1B0FA80F610FAB3
:101BC00006F162D00020203608E0B1FA81F6B1407B
:101BD000C6F1200220FA02F21143B0404FEAF47439
:101BE000B4EB465434F001064FEA74040AD8D6F533
:101BF0000016760D04F00044F04061FA06F2504001
:101C0000F1404840C00A40EA415021F0004128BF5D
:101C10005FEA500550F1000044EBD12135E0DB0ACA
:101C200045EAC121C90AB6F120050EDD42EA0242A9
:101C3000120CC5F1200603FA06F6EB4042EA06054F
:101C40006D42984161F100010DE062FA06F5F24043
:101C5000554063FA06FC82EA0C02F3405A406D429A
:101C6000904161EB030111F4801F05D1641E6205F0
:101C700002D06D004041494121F48011430875F1C3
:101C8000004350F1000041EB045170BC70471CEB65
:101C9000410F15D223F0004352EA43060BD04FEA1E
:101CA0004C0CBCEB410F04D80C0D661E342EB7DD76
:101CB000EBE7801A994150EA410608BF0021E4E7AA
:101CC00008BF1CEB430F28BF6FF00001DDE70000E9
:101CD00041EC100B01BD80B551EC100B00F064FC21
:101CE000F6E70000B0B581EA030C0CF0004C40F2BE
:101CF000FF7515EA11541DBF15EA1357AC42AF42E8
:101D000039E0E41923EA455343F48013C90241F052
:101D1000004141EA505EC7021100A7FB0202002801
:101D20004FF00000EEFB01204FF00001E3FB072124
:101D300018BF42F00102401800214941E3FB0E01A7
:101D4000A4F580640F0302D252004041494154F18E
:101D500001046CDD470872F1004250F1000051EBC4
:101D60000451A1F580115CBF41EA0C01B0BD4CEA01
:101D700005510020B0BD05EA1357AC4214BFAF4275
:101D800041E050EA410E1CBF52EA430E02E06146B8
:101D90000020B0BD24423C441BD15FEA070EF6D0C0
:101DA000090302BF01460020AEF1140EB1FA81F71B
:101DB000AEEB070401FA07FE0C37C7F1200100FA69
:101DC00007F7C8404EEA000E23EA455343F4801358
:101DD000A2E733F00043B3FA83F704BFB2FA82FEFE
:101DE00077440B3FE41BB7F1200E2FBF02FA0EF32E
:101DF000BB40C7F1200E22FA0EFE38BF43EA0E03A5
:101E0000BA40641C82E750EA410E14BF52EA430E06
:101E10006FF000014FF4001717EB430F8ABF19460C
:101E200017EB410FB5E74CEA05510020B0BDD4F1E6
:101E30000104B4F120070FDAC4F12007520828BFCB
:101E400042F0010210FA07F501FA07F7E1BF2A4351
:101E5000E0403843E1400FE0352C98DCC7F1200426
:101E600052EA400220FA07F218BF42F0010231FAAA
:101E700007F0A1400A43002172F1004250F1000036
:101E800051EB0C01B0BD000001484068704700BF35
:101E90003800002070B44FF0004591EA030F7FF541
:101EA00061AE6B40841A71EB030603D2001BB14193
:101EB000121973414FF4001C1CEB410F34BF7CEB33
:101EC000430442E00C0DA4EB1356352E4FDC45EADB
:101ED000C323DB0A45EAC121C912B6F120050DDD95
:101EE00063FA05F6EB4086EA0305124218BF45F097
:101EF0000105C01851F100010CD213E062FA06F599
:101F0000F2405540F3415A40B340F3405A408018E4
:101F1000594107D349085FEA30005FEA350528BF19
:101F200045F0010501F58011420875F1004250F1BC
:101F3000000041EB04514E0016F5001F70BC38BF85
:101F400070470020090D090570471CEB410F10D2A6
:101F500052EA43060BD0BCEB410F05D80C0DAB4346
:101F6000661E342EB6DD02E0AB438018594170BCCA
:101F7000704770BC704700004FF4001C1CEB410F11
:101F800094BF1CEB430F09E041EA030C50EA4C0CF0
:101F900052EA0C0C03D2994208BF9042704714BF1A
:101FA0008B42824270470000C1F30A5340F2FE3276
:101FB0009B1A14DDD3F120034FEAE17208DDC90258
:101FC00041EA505141F00040D840801850407047DD
:101FD00003F2E13010B1D24382F00040704700209C
:101FE000704700004FF4001C1CEB410F94BF1CEB2A
:101FF000430F09E041EA030C50EA4C0C52EA0C0C86
:1020000003D28B4208BF8242704714BF994290426C
:10201000704700000901020002D42948815470472A
:10202000284B02F00F021A4402F8041C7047264B9A
:1020300019684FF6FF020002114000F4E060084307
:10204000224908431860704770B51F4B1C68C4F3E1
:1020500002230124C3F10705052D2EBF0F2504FA25
:1020600005F56D1E1E1D072E34BF0023DB1E294003
:10207000994004FA03F3BDE870405B1E1A40114317
:10208000C8E7010007D4012200F01F01104B8A406D
:10209000400943F82020704710B5401EB0F1807F02
:1020A00001D3012010BD0B4C60600F214FF0FF30B9
:1020B000FFF7B0FF0021A16007202060002010BDC5
:1020C00000E400E018ED00E00CED00E00000FA058F
:1020D00000E100E010E000E038B50D4D0D4B2A782E
:1020E00004464FF47A711868B1FBF2F2B0FBF2F0DB
:1020F000FFF7D2FF50B9102C08D2002221464FF032
:10210000FF30FFF7A1FFAC60002032BD012032BDDF
:1021100038000020440000207047704770470000DE
:1021200062F30F2262F31F42401810F0030308D03D
:10213000C91A1FD3DB0748BF00F8012D28BF20F8BC
:10214000022D130030B414461546103928BF20E97B
:102150003C00FAD8490728BF20E90C0048BF40F8E6
:10216000042D890028BF20F8022D48BF00F8012D5A
:1021700030BC7047C91818BF00F8012DCB0728BF25
:1021800000F8012D70470000D3BBD9B1B2F5803FF4
:102190005BD2022A1ED98C46B1FBF2F102FB11C3BD
:1021A0001B0443EA1043B3FBF2FC02FB1C3380B276
:1021B00040EA0343B3FBF2F002FB103240EA0C406A
:1021C00000237047022A05D98446B0FBF2F002FBD7
:1021D00010C270474AB105D100F0010249085FEA18
:1021E0003000704700220023704700F0DFB90B0079
:1021F0000200002100207047F7D30022002370471F
:10220000904271EB030CF2D370B5B1FA81F4B3FADA
:1022100083F52C1BA340C4F1200532FA05F63343A5
:10222000A2405FF00046E64002E05B085FEA32024F
:10223000841A71EB030524BF204629467641F4D366
:1022400002000B003000002170BD70B5B1FA81F4BE
:10225000B2FA82F5C4F120046419B4F12006DAD38D
:10226000B2405FF00044F440002502E052085FEA0B
:102270003303C61A71EB020E24BF30467146644127
:102280006D41F3D302000B002000290070BD000057
:102290002DE9F84C2DED068B41EC180B480040154C
:1022A000401C82B014460DD148004015401C01D19D
:1022B000090303D151EC180BC80F30D102B051EC17
:1022C000180B25E153EC182B23F00041B1F5801FCA
:1022D00022F000000BD20022002908BF0028009243
:1022E00010D06A4651EC180B00F062F908E08A4EF3
:1022F00006EB115000908949894803401046194364
:1023000041EC180B51EC180B20F0000631F000479F
:1023100004BF002E834900F0FA80C80F0AD0AFF343
:10232000008002B04FF0FF30BDEC068B6FF0004133
:10233000BDE8F48C51EC180B7B4A7C4BFFF71CFE7C
:102340000BD253EC182B00204FF08041FFF7CAFC52
:1023500041EC180B0098401E009053EC182B002005
:102360007349FFF7F7FB41EC190B53EC182B0020D6
:102370007049FFF7EFFB02460B4651EC190BFFF7D4
:10238000C5FA41EC180B53EC182BFFF7ABFC41ECF2
:102390001A0B53EC1A2B68486849FFF7A3FC684AEC
:1023A000684BFFF7D7FB53EC1A2BFFF79BFC664AF1
:1023B000664BFFF7CFFB53EC1A2BFFF793FC644AF5
:1023C000644BFFF7C7FB53EC1A2BFFF78BFC624AF9
:1023D000624BFFF7BFFB53EC1A2BFFF783FC604AFD
:1023E000604BFFF7B7FB53EC1A2BFFF77BFC5E4A01
:1023F0005E4BFFF7AFFB53EC1A2BFFF773FC024663
:102400000B4651EC190BFFF745FD53EC182BFFF76A
:1024100069FC41EC180B009800F002F9002C41EC2B
:102420001A0B19D153EC1A2B51485249FFF75AFC99
:1024300053EC182BFFF72EFD53EC192BFFF78AFBFB
:1024400004460D4653EC1A2B4FF040404A49FFF723
:1024500049FC22462B4658E053EC192B34DD002072
:102460004649FFF73FFC06460F4653EC192B4448FC
:102470004449FFF737FC04460D4653EC1A2B4248FB
:102480004249FFF72FFC82468B4653EC182B4048FD
:102490003A49FFF727FC02460B4650465946FFF7DC
:1024A000F9FC22462B46FFF755FB32463B46FFF729
:1024B00051FB04460D4653EC1A2B00203549FFF71B
:1024C00011FC22462B4620E04FF0C0403249FFF776
:1024D00009FC06460F4653EC192B30483049FFF7EC
:1024E00001FC04460D4653EC182B2E482A49FFF7F1
:1024F000F9FB02460B4620462946FFF7CBFC324645
:102500003B46FFF727FB53EC1A2BFFF723FB02B0E8
:10251000BDEC068BBDE8F48C02FCFFFF0000E03F41
:10252000FFFF0F800000F0FFCD3B7F669EA0E63FDF
:102530000000F0BF0000F03FF7DE29BFD8F8C23F2F
:10254000F4B3FECC1A99C33F62CB68D96F46C73F3C
:10255000C6C912DAC471CC3F4AE98A942449D23FF1
:10256000F75F97999999D93FBC5555555555E53F12
:102570009EBC9AF71C7D7F3E422EE63F7BCBDB3F25
:10258000ABA6320EE526553E7CC4BC7FDE27743EEA
:102590000EE526151344D33F4715F73F44DF5DF89A
:1025A0000BAE543EFE822B65002271E670470000A0
:1025B00010B5144600F002F8226010BDC1F30A53B2
:1025C00043B14A0012F5001F28D2A3F2FE32A1EB5C
:1025D0000251704750EA410C20D001F0004C31EA22
:1025E0000C01B1FA81F204BFB0FA80F3D2180B3AB1
:1025F000B2F120032CBF00FA03F1914041EA0C0133
:102600003EBFC2F1200C20FA0CF319439040524215
:1026100040F2FD33D21A01EB03517047002270479C
:10262000C11768B14840401AB0FA80F29040D21CFD
:10263000C907C2F5846241EA025202EBD02140058B
:10264000704730B5016884684218416802EB510355
:10265000C90703D54C4401E0491C05D19A420AD070
:1026600012F9011B12F8015B002904F8015BF3D495
:10267000491EF7D5F2E70C3030BD00000448054A8A
:10268000016841F4700101604FF000601060704714
:1026900088ED00E008ED00E0000000000000000010
:1026A000010203040607080910B5074979441831E7
:1026B000064C7C44163404E00A68081D114488471F
:1026C0000146A142F8D110BD2C00000048000000D6
:1026D0004EF68851CEF20001086840F470000860A0
:1026E000BFF34F8FBFF36F8F4FF00070E1EE100A12
:1026F00070470000DFF1FFFFC80000004800002025
:10270000000000003FFFFFFF04020000280000005F
:10271000000000207047FEE7FEE7FEE7FEE7704797
:102720007047704700F006B80148FEF753BA000042
:10273000C80000200248416802788A184260704749
:102740003800002000F00DF8002801D0FFF7ACFFA2
:10275000AFF300800020AFF30080FDF727FD00F00D
:1027600002F80120704700F001B800000746384623
:1027700000F002F8FBE7000080B5AFF30080024AEA
:1027800011001820ABBEFBE726000200014880477D
:10279000014800477D2600089D270008AFF3008010
:1027A000FFF796FFFFF7CEFFFFF7FEBFFFF7FEBF75
:1027B000FFF7FEBFFFF7FEBFFFF7FEBFFFF7FEBF4D
:1027C000FFF7FEBFFFF7FEBFFFF7FEBFFFF7FEBF3D
:1027D000FFF7FEBFFFF7FEBFFFF7FEBFFFF7FEBF2D
:1027E000FFF7FEBFFFF7FEBFFFF7FEBFFFF7FEBF1D
:1027F000FFF7FEBFFFF7FEBFFFF7FEBFFFF7FEBF0D
:10280000FFF7FEBFFFF7FEBFFFF7FEBFFFF7FEBFFC
:10281000FFF7FEBFFFF7FEBFFFF7FEBFFFF7FEBFEC
:10282000FFF7FEBFFFF7FEBFFFF7FEBFFFF7FEBFDC
:10283000FFF7FEBFFFF7FEBFFFF7FEBFFFF7FEBFCC
:10284000FFF7FEBFFFF7FEBFFFF7FEBFFFF7FEBFBC
:10285000FFF7FEBFFFF7FEBFFFF7FEBFFFF7FEBFAC
:10286000FFF7FEBFFFF7FEBFFFF7FEBFFFF7FEBF9C
:10287000FFF7FEBFFFF7FEBFFFF7FEBFFFF7FEBF8C
:10288000FFF7FEBFFFF7FEBFFFF7FEBFFFF7FEBF7C
:10289000FFF7FEBFFFF7FEBFFFF7FEBFFFF7FEBF6C
:1028A000FFF7FEBFFFF7FEBFFFF7FEBFFFF7FEBF5C
:1028B000FFF7FEBFFFF7FEBFFFF7FEBFFFF7FEBF4C
:1028C000FFF7FEBFFFF7FEBFFFF7FEBFFFF7FEBF3C
:1028D000FFF7FEBFFFF7FEBFFFF7FEBFFFF7FEBF2C
:1028E000FFF7FEBFFFF7FEBFFFF7FEBFFFF7FEBF1C
:1028F000FFF7FEBFFFF7FEBFFFF7FEBFFFF7FEBF0C
:10290000FFF7FEBFFFF7FEBFFFF7FEBFF300028039
:102910005140D8000001F9000010FC000224F4002E
:040000050800279D2B
:00000001FF
