:020000040800F2
:10000000A0040020F53300082D3300082F3300082A
:100010003133000833330008353300080000000096
:10002000000000000000000000000000373300085E
:1000300039330008000000003B3300083D3300085E
:100040002134000825340008293400082D34000824
:100050003134000835340008393400083D340008D4
:100060004134000845340008493400084D34000884
:100070005134000855340008593400085D34000834
:100080006134000865340008413300086934000811
:100090006D340008713400087534000879340008A4
:1000A0007D34000881340008853400088934000854
:1000B0008D34000891340008953400089934000804
:1000C0009D340008A1340008A5340008A9340008B4
:1000D000AD340008B1340008B5340008B934000864
:1000E000BD340008C1340008C5340008C934000814
:1000F000CD340008D1340008D5340008D9340008C4
:10010000DD340008E1340008E5340008E934000873
:10011000ED340008F1340008F5340008F934000823
:10012000FD340008013500080535000809350008D0
:100130000D3500081135000815350008193500087F
:100140001D3500082135000825350008293500082F
:100150002D350008313500083535000839350008DF
:100160003D3500084135000845350008493500088F
:100170004D350008513500085535000800000000D5
:10018000593500085D3500086135000865350008FF
:10019000693500086D3500087135000875350008AF
:1001A000793500087D350008813500082DE9F043D8
:1001B0009FB000BF65A6269CDFF8E48B8DF83B401E
:1001C000029100240B944FF0FF37044691461D46E0
:1001D0000AE019F8011B0298A0470028029000F0DD
:1001E000A1800B98401C0B9099F8000050B1252875
:1001F000EFD1002100220591069207910892099102
:100200000A9203E00B98A5E041F0010119F8010FF3
:100210002028F9D023280CD02B2804D02D2805D055
:10022000302809D080E041F00201EFE741F00401FD
:10023000ECE741F00801E9E741F01001E6E70D9233
:100240000AE00D98404505DA00EB800002EB400221
:10025000303A0D9209F1010999F80020A2F130001D
:100260000A28EED399F800002E2818BF0C9726D143
:1002700019F8010F2A2808D12868286009F1010916
:1002800050F8042B28600C9219E02D280CBF09F1BE
:100290000109002000220C920BE040B90C9A424563
:1002A00005DA02EB820203EB4203303B0C9309F1C7
:1002B000010999F80030A3F130020A2AEDD3ADF814
:1002C0003810304699F8001000F030FF08B119F8E6
:1002D000010B8DF83A009DF83A00682805D199F88D
:1002E000000068280CD1622106E06C2804BF99F850
:1002F00000006C2804D171218DF83A1009F1010930
:1003000010A804902A4619F8013B6946204600F0DF
:1003100061F838B910AA6946204600F0C5F90028EE
:100320007FF562AF384615E02A2888D12A682A600E
:1003300052F8040B2A6000280D9003D540420D901E
:1003400041F0040109F101098CE70000686A6C744E
:100350007A4C00001FB0BDE8F083622820D06828E6
:1003600011D06A2803D06C2827D0712825D10868BD
:10037000C01D20F007000860D0E9002308300860A5
:10038000194610467047002A0A680A60106803D0B0
:10039000121D0A6000B217E0121D0A6080B217E059
:1003A000002A0A680A60106803D0121D0A6040B271
:1003B0000AE0121D0A60C0B20AE0002A0A680A6058
:1003C000106803D0121D0A60C1177047121D0A6021
:1003D000002170477CB50D4611461C462E69B4F1CC
:1003E000250200F04F811C3A00F08480121F022A7F
:1003F00040F280800E3A00F00981521F59D0093A2C
:1004000078D0921E16D0521E35D0521E022A71D9B3
:10041000121F30D0521F00F09880521E49D0521E39
:1004200000F0E280D21E00F0FF80921E41D0D21E6A
:100430003FD02DE195F83A406C2C09D06869421CF8
:100440006A610A680A6052F8043B0A60335429E181
:100450000A680A6052F8043B0A6000930022019285
:100460004FF0FF332B636A46294600F0A3F90028BA
:1004700040F1188103E195F83A000122FFF76DFF82
:10048000C5E90001002904D56869411C69612D2274
:100490000DE0288F810704D56869411C69612B2212
:1004A00005E0C00721D56869411C696120223254EA
:1004B0001BE095F83A000022FFF74FFFC5E9000165
:1004C00095F83800010710D5D5E90023002B08BFA7
:1004D000002A0AD044F02000782806D1686930212B
:1004E0003154401C421C6A613454214668693044CE
:1004F000E86087E00868C01D20F007000860D0E9C8
:10050000002308300860C5E90023D5E90001C80FC1
:1005100004D06869411C69612D220DE0288F810794
:1005200004D56869411C69612B2205E0C00704D528
:100530006869411C69612022325468693044E8606E
:100540002146284600F041FAACE005F13A02507825
:1005500020B14FF0FF340FF6183074E010786228A5
:1005600008D0682824D06A2812D06C282ED0712890
:100570000ED02BE00A680A6052F8040B0A6020B91A
:100580004FF0FF340FF600305DE0E96A017089E05A
:100590000A680A6052F8040B0A6020B94FF0FF3471
:1005A0000FF6E4204FE0EA6AD317C0E9002379E0B0
:1005B0000A680A6052F8040B0A6020B94FF0FF3451
:1005C0000FF6C4203FE0E96A01806BE00A680A6028
:1005D00052F8040B0A6020B94FF0FF340FF6A82040
:1005E00031E0E96A01605DE00A680A6052F8040BD4
:1005F0000A60002120F0000221F0FF33C5E900234A
:10060000EE607821284600F038F94BE06C2285F83E
:100610003A200B680B6053F8042B0B6052BB4FF071
:10062000FF340FF698200EE095F83A206C2AF0D0AF
:100630000868086050F8044B0860EC603CB94FF063
:10064000FF340FF65C2000F07DFD201A76BD2E6B86
:10065000002E04D5204600F095FD044608E0324601
:100660000021204600F0AAFD002814BF041B3446D8
:10067000AC6117E0294600F09DF8002812D54FF034
:10068000FF3076BD6869411C69612522325409E05A
:100690006969481C686125227254210002D0431CFC
:1006A0006B613454002076BD2DE9FC410F460646AF
:1006B00090467A6B7869396ABC6A121AB869521A1C
:1006C000796A121AF869521A121A97F83800141B2C
:1006D00041070FD42020002C8DF800000ADD2546AC
:1006E00001236A463946304600F0AAFC00285DD155
:1006F0006D1EF5D17B6942463946304600F0A0FCBC
:10070000002853D130208DF800003D6A002D09DD0E
:1007100001236A463946304600F092FC002845D154
:100720006D1EF5D1BB69FA683946304600F088FC89
:1007300000283BD130208DF800007D6A002D08DDB7
:1007400001236A463946304600F07AFC70BB6D1EC4
:10075000F6D1F868B969FB6942183946304600F0AD
:100760006FFC18BB30208DF80000BD6A002D08DD3D
:1007700001236A463946304600F062FCB0B96D1E6E
:10078000F6D197F8380041070DD52020002C8DF8C0
:10079000000008DD01236A463946304600F050FC6F
:1007A00020B9641EF6D10020BDE8F6814FF0FF307D
:1007B000BDE8F6812DE9F8470D46A3B02F6B002F59
:1007C0000646904648BF6FF000470FF60C1400F045
:1007D00021FDD4E90023696B4018CDE9012381286C
:1007E00028BF4FF0FF3042D20024002F33DDD8F86D
:1007F000001001AA684600F011FD8146B9F1000F12
:1008000038D4D8F8000010B9B9F1010932D44F45F5
:1008100021DB6869484481280AD30021696303AA5F
:1008200029463046FFF740FF040014D400206861D9
:1008300003ABD5F814A04A46694603EB0A0000F062
:10084000EFFCCA44C5F814A058F8040B002818BFE0
:10085000A7EB0907C9D14CB903AA29463046FFF7CF
:1008600023FF044614B9002068616863204624B061
:10087000BDE8F0874FF0FF34F8E72DE9FC43074669
:100880006F293E6908BF082405D041F02000782870
:1008900014BF0A2410243C25D7E90023642918BF7B
:1008A00069299046994605D1002B03D5D8F1000857
:1008B00069EB4909B9F1000F08BFB8F1000F1FD16A
:1008C000386BE8B9082C4CD197F83800010748D5A7
:1008D00030203B2586F83B0043E000280ED597F8F2
:1008E000380000F01400102808D17B6B7969386A51
:1008F0005B1A1B1A9A1A002AC8BF3A62BDE8F38332
:100900008DF80010404649462246E31700F0DCFC13
:100910003032D0B26D1E3A28019504DB9DF80000FC
:10092000A0F151018A187255404649462246E31704
:1009300000F0CAFC80465FEA010908BFB8F1000F69
:1009400003D0F86871198842DCD3082C09D197F8D4
:100950003800010705D5705D302802D06D1E3020AB
:100960007055C5F13C02BA617119F960386B824269
:10097000B3DA821A3A624FF6EF70398F0140398745
:10098000BDE8F3832DE9D04306460F4614464FF0E9
:100990000008DFF8109412E0E00707D542464B4606
:1009A0003046394600F014FD06460F46404649469B
:1009B00042464B4600F00CFD641080468946002CF0
:1009C000EAD130463946BDE8D0832DE9F84F0546D7
:1009D0008A464AF020048EB0D5E90089612C02AE27
:1009E00009D0286B002848BF062003D408BF672C15
:1009F00001D101202863D5E900014A005215521C9B
:100A00000DD10B030BD0AAF1610103201A29A861B3
:100A100002D20FF2CC6110E00FF2C8610DE04A0083
:100A20005215521C0ED10B030CD1AAF16101032007
:100A30001A29A86116D30FF2B461E868032200F006
:100A4000EFFBBFE1CDE90C01DDE90C2323F000430E
:100A5000B3F5801F0DD20027002B08BF002A019795
:100A600003D111E00FF28061E7E701AA00F082FDF7
:100A70000AE0CD48CD4900EB1350DDE90C2301908D
:100A80000B40CB4910461943C5E90001612C0DD13B
:100A9000E86830210170821CBAF1610FEA600CBF76
:100AA0007821582141706869801C6861D5E900018E
:100AB000CDE90C01DDE90C2333F0004104BF00282F
:100AC000002300F04881612C40F0A080286B49464B
:100AD00000284CBF4FF0210B00F1010B40460022D3
:100AE0000023DDE90C8900F07DFD01990BF1010780
:100AF00038BF89F00049091F002F01918DF80820A7
:100B00000DF1090040F33581A849009106464046A1
:100B100049460022002300F07DFD80F02981480035
:100B2000400D00F11C0211D0002A0FDD40F2FF73CE
:100B30009A4205DB9F4909F000400143002011E083
:100B4000009B194041EA025140460BE028F00000AA
:100B500039F0004108BF00280FBF49461C22494612
:100B600000F070FD8046894600F00AFEFF1F002F4E
:100B7000044609DD00F022FE02460B464046494687
:100B800000F02EFE80468946F01D072104E004F0A7
:100B90000F0200F8012D2411002C01DD491EF6D5AD
:100BA000491E5CBF002200F8012DF9D5DCE00020D1
:100BB000194602AA0A4400E05B1E12F80149491EC8
:100BC0008442F9D00F2804D10DF10900425C521C77
:100BD0004254002904D50198001D02AE5B1C01900F
:100BE000581E0CD43118AAF13A040A783032D7B220
:100BF0003A2FA8BFA218401E01F80129F5D5286B8D
:100C0000002840F1A780591E2963A3E001996A4A90
:100C100047F29750414391FBF2F2019229F00046CE
:100C2000D2F1070204DD40463146FFF7ABFE0AE091
:100C3000524200206149FFF7A5FE02460B4640469E
:100C4000314600F03FFE8046662C286B06BF019FB0
:100C50000A3706273F18142FC8BF142730208DF8F5
:100C6000080089460DF1090000E03046002F34DD10
:100C700006464046494600F049FF01460A4606F14D
:100C8000080304200A26B2FBF6F606EB860EA2EB5A
:100C90004E02303203F8012C0A22B6FBF2F202EBCC
:100CA000820EA6EB4E063036401E03F8026DE9D1E7
:100CB000083F002F03F10806D7DD084600F03AFF91
:100CC00002460B464046494600F08AFD00223C4B56
:100CD00000F07EFB80468946CBE70DF10901401A02
:100CE0000DF1090604E00199491E401E0191761C90
:100CF00031783029F7D0662C02D10199491C03E0E4
:100D0000652C0CBF012100212B6BCB189842B8BF7A
:100D1000431E002B1ED4834204DAF05C3528A8BFA2
:100D2000392000DA30201946721E02EB010800E07B
:100D30005B1E18F80199491E8145F9D0392802D166
:100D4000705C401C7054002904D50198401C164664
:100D50005B1C0190019800B200901BB232465146D4
:100D6000284600F033F82DE0C61D002F3FF7CFAE28
:100D700030460DF10901401A03465845C8BF5B468D
:100D8000002B0DF109063FF53AAF8342BFF60FAFD6
:100D90000DF10900C15C07297FF709AF0F2007E7B4
:100DA000CBCCCC0C0000244002FCFFFFFFFF0F80E7
:100DB0000000E03F0000F07FA08601000000F03F4F
:100DC00084D797410FB0BDE8F08F00002DE9FC43B8
:100DD000054683B01F46D5F83080002F164602DC4A
:100DE0005FF00107C2A6894649F02000BDF93040F6
:100DF000662808BF641C17D0672840F0888014F16B
:100E0000040FC0F28A80444580F2878095F838004C
:100E1000641C010702D44745B8BFB84620B2B8EBFE
:100E2000000848BF4FF000080FFA84F9E868A96984
:100E3000B9F1000F27DC4A1C30234354B8F1000FEE
:100E400003DC95F83800010703D5E9682E208854A3
:100E5000521C18EB090FB8BFC8F1000424B260425D
:100E60006862A044B845AA61B8BF4746EB68A86964
:100E70003FB2EF613A463146184400F0D1F9A8EB91
:100E80000700A862C5E022B29742084419DA3A4640
:100E9000314600F0C5F9A8693818A9EB0707B8F181
:100EA000000FA8616F6203DC95F838100A0705D5BA
:100EB000EA682E211154E869401CE861C5F82880D1
:100EC000A7E0314600F0ACF9A8693F1BB8F1000F6C
:100ED000484403DC95F838100A0703D5EA682E2148
:100EE0001154401CA86138B28045EB68A869B8BFAE
:100EF00047463AB206EB0901184400F091F9A96996
:100F00003FB27918A8EB0707A9616F6281E0B9F1D8
:100F1000610F16D14FF0700918E0474504DA95F8D3
:100F200038100A0758BFB846B8F1010848BF4FF05B
:100F30000008B9F1670F14BF4FF045094FF065097C
:100F400004E0B9F1410F08BF4FF05009A969EB68FF
:100F5000481CA861B8F1000F16F8012B5A5403DCA5
:100F600095F838100A0719D5EA68431CAB612E21A1
:100F70001154B8F1000F11DD7F1E38B231468045A3
:100F8000EE68B8BF47463AB2F01800F049F9A869D0
:100F90003FB23818A861A8EB07006862E868A96941
:100FA0000844002C80F8009003D42B224270811C4E
:100FB00003E02D2141706442811C00206A460AE052
:100FC00023460A2493FBF4F404EB8406A3EB4603C4
:100FD00002F8013B401C24B2002CF1DC012806DCA5
:100FE00049F02002652A04BF302201F8012B48B9DC
:100FF000302001F8010B07E0401E1DF800303033AF
:1010000001F8013B0028F7DCEA68A8691044091AD6
:10101000E96195F8380000F0140010280DD16A69D4
:10102000A969686A8A18E9698218A86A8A18821800
:10103000686B8242BCBF821A2A6205B0BDE8F083A9
:10104000F8B505460E4617461C46002074B117F841
:10105000011BB068A847B06030B1F06A401CF06274
:101060000020641EF3D1F2BD4FF0FF30F2BD00004E
:101070007072696E74665F733A20256E20646973BE
:10108000616C6C6F776564007072696E74663A208B
:1010900062616420256E20617267756D656E7400F3
:1010A0007072696E74665F733A20626164202573A2
:1010B00020617267756D656E740000007072696EF4
:1010C00074665F733A2062616420256C73206172DC
:1010D00067756D656E740000000000000000000080
:1010E0006E616E004E414E00696E6600494E4600CC
:1010F000300030B4002513E050F8042BD30744BF70
:10110000A9F101039A18091F042942F8045BFAD2D5
:1011100013468C0744BF15809B1CC90748BF1D7030
:1011200050F8041B0029E7D130BC7047C9B20278DF
:101130008A421AB11CBF10F8012FF9E718BF00202E
:101140007047000080B500B906A005490B681BB1C7
:1011500022220021984701E000F0F9FC222002BD84
:1011600098000020636F6E73747261696E742068FA
:10117000616E646C65723A20626164206D657373A0
:101180006167650000F10103810704D010F8011BBD
:10119000820781B1FAD10268A2F10131914311F0C5
:1011A000803104BF50F8042FF6E709BAB1FA81F193
:1011B00000EBD100401CC01A70470000C9B2830781
:1011C00006D0521E22D310F8013B9942F7D11FE0FE
:1011D000083A13D302F1040241EA012141EA014134
:1011E00050F8043B121F21BF4B40A3F1013C2CEAF5
:1011F000030C1CF0803FF3D0C9B2001F083210F876
:10120000013B521E28BF91EA030FF8D818BF0120F6
:10121000401E70470120704700F09CBC0023FBE794
:1012200062B38B0708D0521E11F8013B00F8013B56
:1012300000F024808B07F6D1830740F0208000BFA8
:10124000103A07D330B4B1E83810103AA0E838109B
:10125000F9D230BC530724BFB1E80810A0E8081049
:1012600044BF51F8043B40F8043BD20724BF31F897
:10127000022B20F8022B44BF0B7803707047121F1B
:1012800017D35B0009D151F8043B20F8023B1B0C3B
:10129000121F20F8023BF6D20BE051F8043B00F895
:1012A000013B1B0A20F8023B1B0C121F00F8013BFC
:1012B000F3D238BF121D521E24BF11F8013B00F8B3
:1012C000013BF8D870470000D3BBD9B1B2F5803FDD
:1012D0005BD2022A1ED98C46B1FBF2F102FB11C38C
:1012E0001B0443EA1043B3FBF2FC02FB1C3380B245
:1012F00040EA0343B3FBF2F002FB103240EA0C4039
:1013000000237047022A05D98446B0FBF2F002FBA5
:1013100010C270474AB105D100F0010249085FEAE6
:101320003000704700220023704700F01DBC0B0006
:101330000200002100207047F7D3002200237047ED
:10134000904271EB030CF2D370B5B1FA81F4B3FAA9
:1013500083F52C1BA340C4F1200532FA05F6334374
:10136000A2405FF00046E64002E05B085FEA32021E
:10137000841A71EB030524BF204629467641F4D335
:1013800002000B003000002170BD70B5B1FA81F48D
:10139000B2FA82F5C4F120046419B4F12006DAD35C
:1013A000B2405FF00044F440002502E052085FEADA
:1013B0003303C61A71EB020E24BF304671466441F6
:1013C0006D41F3D302000B002000290070BD000026
:1013D000B0B581EA030C0CF0004C40F2FF7515EA41
:1013E00011541DBF15EA1357AC42AF4239E0E4195E
:1013F00023EA455343F48013C90241F0004141EA16
:10140000505EC7021100A7FB020200284FF0000047
:10141000EEFB01204FF00001E3FB072118BF42F073
:101420000102401800214941E3FB0E01A4F580644C
:101430000F0302D252004041494154F101046CDDD6
:10144000470872F1004250F1000051EB0451A1F540
:1014500080115CBF41EA0C01B0BD4CEA055100208F
:10146000B0BD05EA1357AC4214BFAF4241E050EAA9
:10147000410E1CBF52EA430E02E061460020B0BD9F
:1014800024423C441BD15FEA070EF6D0090302BF99
:1014900001460020AEF1140EB1FA81F7AEEB07045D
:1014A00001FA07FE0C37C7F1200100FA07F7C84020
:1014B0004EEA000E23EA455343F48013A2E733F0CB
:1014C0000043B3FA83F704BFB2FA82FE77440B3FBE
:1014D000E41BB7F1200E2FBF02FA0EF3BB40C7F199
:1014E000200E22FA0EFE38BF43EA0E03BA40641CF7
:1014F00082E750EA410E14BF52EA430E6FF000013A
:101500004FF4001717EB430F8ABF194617EB410F33
:10151000B5E74CEA05510020B0BDD4F10104B4F1A7
:1015200020070FDAC4F12007520828BF42F0010259
:1015300010FA07F501FA07F7E1BF2A43E040384304
:10154000E1400FE0352C98DCC7F1200452EA40025C
:1015500020FA07F218BF42F0010231FA07F0A14069
:101560000A43002172F1004250F1000051EB0C01DE
:10157000B0BD000010B5144600F002F8226010BDA6
:10158000C1F30A5343B14A0012F5001F28D2A3F257
:10159000FE32A1EB0251704750EA410C20D001F01D
:1015A000004C31EA0C01B1FA81F204BFB0FA80F3C9
:1015B000D2180B3AB2F120032CBF00FA03F191408C
:1015C00041EA0C013EBFC2F1200C20FA0CF3194392
:1015D0009040524240F2FD33D21A01EB0351704762
:1015E000002270474FF4001C1CEB410F94BF1CEB12
:1015F000430F09E041EA030C50EA4C0C52EA0C0C90
:1016000003D2994208BF9042704714BF8B42824276
:10161000704700004FF4001C1CEB410F94BF1CEB03
:10162000430F09E041EA030C50EA4C0C52EA0C0C5F
:1016300003D28B4208BF8242704714BF9942904246
:1016400070470000124254D440F2FF7C1CEA115350
:101650000FD0634531D09B1863453CBF01EB02516D
:10166000704701F0004141EA0C510020AFF30080C7
:10167000704750EA410320D001F0004C91EA0C0180
:101680001CD0B1FA81F30B3B9A420DD9D21A994082
:1016900051EA0C01C3F1200C20FA0CFC6144984083
:1016A000531C40F2FF7CD7E7914041EA0C01C2F1A4
:1016B000200C20FA0CF3194390407047B0FA80F3E5
:1016C0001533202BE0D3202AEED3203A203B9A4238
:1016D00009D9D21A00FA03F141EA0C010020531C87
:1016E00040F2FF7CB8E700FA02F141EA0C01002069
:1016F0007047524240F2FF7C1CEA11530DD0634503
:10170000DBD0B2EB030C3CBFA1EB025170470CF1F4
:10171000010221EA035141F4801150EA410CCCD07E
:1017200001F0004C352A27DC30B481EA0C01B2F11B
:10173000200309DAC2F12003044601FA03F5D04080
:101740002843D1409C400CE0C3F12002450020FA20
:1017500003F418BF44F0010421FA03F091400C4354
:10176000002174F1004550F1000051EB0C012442BE
:1017700030BC7FF47BAF70476146002076E7000005
:10178000C1F30A5340F2FE329B1A14DDD3F1200359
:101790004FEAE17208DDC90241EA505141F00040D0
:1017A000D84080185040704703F2E13010B1D24366
:1017B00082F000407047002070470000C11768B1F8
:1017C0004840401AB0FA80F29040D21CC907C2F5D6
:1017D000846241EA025202EBD021400570470000CA
:1017E00070B44FF0004591EA030F40F1BF816B40A8
:1017F000841A71EB030603D2001BB1411219734125
:101800004FF4001C1CEB410F34BF7CEB430442E05F
:101810000C0DA4EB1356352E4FDC45EAC323DB0A2F
:1018200045EAC121C912B6F120050DDD63FA05F6BE
:10183000EB4086EA0305124218BF45F00105C018C7
:1018400051F100010CD213E062FA06F5F240554066
:10185000F3415A40B340F3405A408018594107D3EE
:1018600049085FEA30005FEA350528BF45F0010509
:1018700001F58011420875F1004250F1000041EB82
:1018800004514E0016F5001F70BC38BF7047002091
:10189000090D090570471CEB410F10D252EA4306AF
:1018A0000BD0BCEB410F05D80C0DAB43661E342E9C
:1018B000B6DD02E0AB438018594170BC704770BC84
:1018C00070470000F0B540F2FF7581EA030C0CF0A0
:1018D000004C15EA11541DBF15EA1357AC42AF4234
:1018E000E5E0BC41C1F31301C3F31303801A99412E
:1018F00043F4801304D2641E4000494180185941CA
:10190000C90241EA5051B1FBF3F603FB1611A2FBE9
:101910000675D7EBC020A94102D2761E8018594126
:10192000C90241EA5051B1FBF3FE03FB1E11A2FBB9
:101930000E75D7EBC020A94103D2AEF1010E80187D
:101940005941890241EA9051760546EA8E2EB1FB53
:10195000F3F603FB1611A2FB0675D7EB8020A94115
:1019600002D2761E80185941C90241EA50514EEA0E
:10197000060EB1FBF3F603FB1611A2FB0675D7EBBF
:10198000C020A94102D2761E80185941C90241EAFD
:101990005051B1FBF3F703FB1711A2FB0735D3EB53
:1019A000C020A94167F100070CBF004247F00107C2
:1019B00066F3D5274FEA1E31B80814F5806412DDAE
:1019C000BD0775F1004250EB0E5051EB045111F57B
:1019D000801F5CBF41EA0C01F0BD4CF07F6141F01B
:1019E000E0410020F0BDBD076D0840EA0E5041F413
:1019F0008011D4F10104B4F120060ADAC4F1200602
:101A00000200E04001FA06F3E1401843B2401543FA
:101A10000EE0342C13DCC6F1200445EA40056D08C5
:101A200020FA06F2154321FA06F0A1400D430021E9
:101A300075F1004250F1000051EB0C01F0BD0020A7
:101A40005FEA0C01F0BDCFB992185B41B3FA83F79E
:101A500004BFB2FA82F6BF190B3FB7F120062FBFC1
:101A600002FA06F3BB40C7F1200622FA06F638BF99
:101A70003343BA401CB1E419641E33E77F4231F0AE
:101A80000041B1FA81F404BFB0FA80F6A4190B3C0E
:101A9000B4F120062FBF00FA06F1A140C4F12006E0
:101AA00020FA06F638BF3143A0403C1B1AE7AC428F
:101AB0001ABF05EA1357AF4212E050EA41061CBFB5
:101AC00052EA4306BFE750EA4107304661461CBF71
:101AD00041EA0551F0BD52EA430C08BFC143F0BDD5
:101AE00000204FF4001616EB410F98BF16EB430F82
:101AF00008BF16EB410F24BFC14305E016EB430FAF
:101B00000CBF61464CEA0551F0BD0000400D49187C
:101B100040EA81200CD2490DA1F58061491C40F0BA
:101B2000004005DBD1F11F0154BFC840C01770470A
:101B300000207047014648B1B0FA80F18840C91CC6
:101B4000C1F58461090501EBD021400570470120F2
:101B500000F0C2B8B1F5807F02D34FF0FF3070477C
:101B6000017001207047000070470000841A71EB7B
:101B7000030604D26E40001BB141121973414FF4A9
:101B8000001C1CEB410F34BF7CEB430683E00C0DC3
:101B9000A4EB1356362E00F37C80012E45EAC323B6
:101BA00041DC43EA525312BFD20292025B08240581
:101BB00045EAC12141EA5051D2EBC020994125D4D8
:101BC00007D1B0FA80F610FA06F162D00020203674
:101BD00008E0B1FA81F6B140C6F1200220FA02F223
:101BE0001143B0404FEAF474B4EB465434F00106AC
:101BF0004FEA74040AD8D6F50016760D04F00044B6
:101C0000F04061FA06F25040F1404840C00A40EA14
:101C1000415021F0004128BF5FEA500550F100001B
:101C200044EBD12135E0DB0A45EAC121C90AB6F10E
:101C300020050EDD42EA0242120CC5F1200603FA2D
:101C400006F6EB4042EA06056D42984161F100015B
:101C50000DE062FA06F5F240554063FA06FC82EAAE
:101C60000C02F3405A406D42904161EB030111F4C4
:101C7000801F05D1641E620502D06D0040414941BC
:101C800021F48011430875F1004350F1000041EB4D
:101C9000045170BC70471CEB410F15D223F0004378
:101CA00052EA43060BD04FEA4C0CBCEB410F04D870
:101CB0000C0D661E342EB7DDEBE7801A994150EA11
:101CC000410608BF0021E4E708BF1CEB430F28BF13
:101CD0006FF00001DDE7000080B5AFF30080024A3D
:101CE00011001820ABBEFBE72600020070B50446C9
:101CF00000250CB9012070BD04F13C06706820B9C4
:101D0000204600F0F9F9B56035707068C10610D44E
:101D1000706820F4885040F002007060204600F0A7
:101D200047F9B560716821F0020141F0010171606D
:101D300000E0012500203070284670BD38B504460B
:101D400021680A684868920729D5800627D5226C41
:101D5000D00603D4226C42F400722264886810F02A
:101D6000405F04BF207E002812D1C86A10F4700FB3
:101D700002D0886842050BD4486820F020004860F3
:101D8000206C20F480702064206CC10400F066F8A0
:101D9000204600F02DFA21686FF0120008602168DB
:101DA0000A684868520730D500062ED5226CD00646
:101DB00003D4226C42F400522264886810F4401F5D
:101DC0001CD1886B10F4401F02D08868420515D4DE
:101DD0004868420512D4886810F0405F04BF207E36
:101DE00000280BD1486820F080004860206C20F467
:101DF00080502064206CC10500F030F8204600F0CF
:101E0000F9F921686FF00C000860206802684168E9
:101E1000D2070FD549060DD50068C1070AD5206C39
:101E200040F480302064204600F0E5F921686FF02E
:101E30000100086020680268416892060DD54901DA
:101E40000BD5626C42F0020262646FF020050560FF
:101E5000204600F0D1F92068056031BD03D4206C24
:101E600040F001002064704778B5024600200090E1
:101E700092F83C30012B01D1022072BD012082F882
:101E80003C0007240B6810680A2B12D30A3BC56874
:101E900003EB43039C4025EA0404C460C3680D6857
:101EA0008C68A5F10A0606EB4606B4402343C360DE
:101EB0000FE0056903EB430304FA03F325EA030388
:101EC000036103690D688C6805EB4505AC4023434D
:101ED00003611F244B68072B0CD25B1E456B00F07F
:101EE00059F84463436B4D680C886E1E00F04DF842
:101EF00043631BE00D2B0CD2DB1F056B00F04AF88F
:101F00000463036B4D680C88EE1F00F03EF803631A
:101F10000CE00D3BC56A00F03DF8C462C36A4D6831
:101F20000C88A5F10D0600F030F8C362604B9842B2
:101F300026D10C685D48122C07D1036823F40003F6
:101F40000360046844F4800404600B685B4CA342A3
:101F500018BF112B14D1036823F4800303600568B4
:101F600045F4000505600868A04209D15249514C6A
:101F70000B68B3FBF4F40A204443009400F010F81B
:101F8000002182F83C10002072BD06EB8606B440AA
:101F90002343704703EB83039C4025EA0404704706
:101FA00002E00098401E009000980028F9D1704788
:101FB0003E4A116821F440311160136841680B43B7
:101FC00013600268536823F4807353605168036997
:101FD00041EA03215160516821F04071516053681A
:101FE00081680B435360936823F4006393609368A4
:101FF000C1680B4393603249836A8B4210D0936867
:1020000023F0706393609368816A0B4393609368D5
:1020100023F0405393609368C16A0B43936007E0D9
:10202000916821F070619160916821F04051916058
:10203000916821F0020191609168037E41EA4301B9
:10204000916090F82010002951680CD041F4006193
:102050005160516821F4604151605168436A5B1ED0
:1020600041EA433101E021F400615160D16A21F479
:102070007001D162D16AC3695B1E41EA0351D1622A
:10208000916821F400719160916890F8303041EAD4
:1020900043219160916821F4806191609168406969
:1020A00041EA802191607047000000000423014054
:1020B0000020014040420F000C00002012000010E0
:1020C0000100000F81B000200090002242484168CA
:1020D00041F480414160416801F4804100910099E0
:1020E0000092036843F080530360006800F0805062
:1020F0000090009801B0704738B586B000F066F8DF
:102100002468364DAC4228D100200090002234488B
:10211000416941F400714161416901F4007100912C
:10212000009900924021036843F0010303600322F9
:10213000006800F00100009000982A480191029286
:102140000021039101A900F059F80022002112207A
:1021500000F076F9122000F090F907B030BD81B0A0
:102160000068214988420BD100221B480092016877
:1021700041F004010160006800F004000090009844
:1021800001B0704738B586B000F020F82468164DCD
:10219000AC4219D10020009002221148016841F0A0
:1021A000080101604FF40051006800F00800009041
:1021B00000980E480191029200210391049102219E
:1021C000059101A900F01AF807B030BD044601A836
:1021D000142100F07DB90000403802400021014088
:1021E000303802400000024000080040000C02406D
:1021F0007047000070477047704700002DE9F84FA6
:102200000D464FF0000874490F22012304462E6842
:1022100003FA08F000EA0609814540F0CA804FEA57
:10222000480C032606FA0CF66FEA060E6E68012EBD
:1022300018BF022E03D0112E18BF122E11D1A6687E
:10224000EF680EEA060607FA0CF73E43A6606668DA
:1022500026EA00006E68C6F3001606FA08F6304358
:102260006060E068AE680EEA000006FA0CF63043E3
:10227000E0604FEA88006E68022E18BF122E12D15D
:102280004FEAD80604EB860600F01C07D6F820A01B
:1022900002FA07FB2AEA0B0AD5F810B00BFA07F787
:1022A00047EA0A07376226680EEA06072E7906F023
:1022B000030606FA0CF63E4326606E68F60078D5F3
:1022C000002600964FEA980C0E68DFF810E146F4FD
:1022D00080460E6000F00C000E6806F48046009602
:1022E000009E5EF82C7002FA00F627EA06063C4FC4
:1022F000BC4208BF00272CD03A4FBC4208BF012780
:1023000027D0394FBC4208BF022722D0374FBC42EA
:1023100008BF03271DD0364FBC4208BF042718D082
:10232000344FBC4208BF052713D0334FBC4208BF0F
:1023300006270ED0314FBC4208BF072709D0304FC7
:10234000BC4208BF082704D02E4FBC420CBF09274F
:102350000A2707FA00F030434EF82C006FEA090C08
:10236000294806680CEA060E6E68F70348BF49EA7A
:102370000E0EC0F800E046680CEA060E6E68B70361
:1023800048BF49EA0E0EC0F804E086680CEA060E63
:102390006E68F70248BF49EA0E0EC0F808E0C6684A
:1023A0000CEA060E6E68B60248BF49EA0E0EC0F887
:1023B0000CE008F10108B8F10F0F7FF628AFBDE877
:1023C000F18F02B909048161704742690A408A426B
:1023D00008BF090481617047443802400838014051
:1023E000000002400004024000080240000C0240CD
:1023F000001002400014024000180240001C02407D
:102400000020024000240240003C0140090102007B
:1024100002D4294881547047284B02F00F021A4415
:1024200002F8041C7047264B19684FF6FF020002A1
:10243000114000F4E06008432249084318607047E7
:1024400038B51F4B1C68C4F30223C3F10704052CE5
:1024500028BF04241D1D072D34BF0023DB1E0125CA
:1024600005FA04F4641E2140994005FA03F35B1E4B
:102470001A401143BDE83440C8E7010007D40122E7
:1024800000F01F01104B8A40400943F8202070479C
:1024900010B5401EB0F1807F01D3012010BD0B4C60
:1024A00060600F214FF0FF30FFF7B0FF0021A16007
:1024B00007202060002010BD00E400E018ED00E0DF
:1024C0000CED00E00000FA0500E100E010E000E0A3
:1024D000002200F001B8000000B500BF13009646CE
:1024E0009446103928BFA0E80C50FAD85FEA417C26
:1024F00028BF0CC048BF40F8042BC90728BF20F8EC
:10250000022B48BF00F8012B00BD000078B589B050
:10251000DDA0C64CDFA600F0C7F900F0D9F900F045
:10252000A8F800F0F1F868461021FFF7D1FFC04885
:10253000206004F13005BF48A0624FF480310120D3
:102540000022E06160616160A2602261227684F80D
:102550002020E262E2602A702046FFF7C7FB0620D7
:102560000121009001910022029269462046FFF766
:102570007BFC00BFCAA01C21D0E90023CDE90023C9
:1025800002A8FFF7A5FFAC48A8610721E961002078
:1025900028624FF6FF71A8622863696204F148005F
:1025A00000F0BAF900210091019104F14800694658
:1025B00000F04EFB602100220291039204920692E9
:1025C00002A9042204F1480000F0BBF904F148001C
:1025D000FFF7D8FD994C9A4D304600F065F901217E
:1025E0009848FFF7F2FE00F03EF84FF4806128466D
:1025F000FFF7EBFE00F037F84FF400612846FFF7D5
:10260000E4FE00F030F84FF480512846FFF7DDFE7D
:1026100000F029F8012100F029F800F024F8022147
:1026200000F024F800F01FF8042100F01FF800F07B
:102630001AF8082100F01AF800F015F8102100F03F
:1026400015F800F010F8202100F010F800F00BF859
:10265000402100F00BF800F006F8802100F006F8A9
:1026600000F001F8B8E70A2000F038BB2046FFF779
:10267000ACBE80B592B006A83021FFF729FF01A8B3
:102680001421FFF725FF002000906F48016841F0FA
:10269000805101600021006800F080500090009897
:1026A0006A4800910221026822F4404242F48042CA
:1026B00002600122006800F44040009000980691FA
:1026C000099210210A91022200210C920D910822F8
:1026D00064210E920F91022204211092119106A8FA
:1026E00000F010FB02210291002203920F204FF410
:1026F000A051019004914FF480520592032101A84A
:1027000000F092FC13B000BDF8B586B06846142105
:10271000FFF7DEFE00244E484A4F484D4D4E0594CB
:102720000168474C41F020010160026802F020027C
:102730000592002205990592036843F08003036027
:10274000016801F0800100F08BF843F001030360A1
:10275000016801F0010100F083F843F040030360D9
:10276000016801F0400100F07BF843F010030360C2
:10277000016801F0100100F073F843F008030360F2
:10278000016801F0080100F06BF843F004030360F6
:10279000016801F004010591059905920121036882
:1027A00043F002030360006800F002000590059802
:1027B0003846FFF706FE00224FF4E0512046FFF7AF
:1027C00000FE0022FF212846FFF7FBFD01210091BA
:1027D000019138460021029103916946FFF70EFDF1
:1027E0004FF440400121009002910196694638461D
:1027F000FFF704FD032100F038F81748FFF7FEFC4F
:102800004FF4C07100F031F81448FFF7F7FC4FF4B3
:10281000E05100F030F82046FFF7F0FCFF2100F017
:102820002AF82846FFF7EAFC07B0F0BD10000020A8
:10283000002101400100000F00080040000C024090
:10284000000802400014024040380240007000407E
:1028500030380240000021100018024000100240F1
:102860000591059905920368704700910196012131
:102870000291694670470091012200210291039163
:102880000192694670470000426F6F74696E670A73
:10289000000000004675636B61796F750A000000E7
:1028A00000000000000000000EB4C0B5024603A8FE
:1028B00000210190009101AB0121044878440C30C3
:1028C000FDF774FC06BC5DF810FB00BF130B0000A5
:1028D00080B50B48016841F400710160026842F460
:1028E00080620260016841F4807101600320FFF79B
:1028F0009AFD002000F058FCFFF7E4FB002002BD29
:10290000003C024002206870211D206800F091F810
:1029100001206870002032BD38B5040001D10120CB
:1029200032BD00F00AF818B900F003F8FFF717FC01
:10293000E8E7002129702046704704F13C056878DB
:10294000704770B500F063F801D1022070BD00F04F
:102950006BF832B1042A17D0082A28D00C2A39D0B3
:102960004AE03068294600F0AFF83068816941F0EC
:10297000080100F048F821F00401816131688A699A
:10298000286902438A6137E03068294600F0C8F8B8
:102990003068816941F4006100F035F821F480610C
:1029A00000F031F82A6941EA0221816124E03068AF
:1029B000294600F0E5F83068C16941F0080100F0EF
:1029C0001EF821F00401C1613168CA692869024317
:1029D000CA6111E03068294600F001F93068C16928
:1029E00041F4006100F00BF821F4806100F007F879
:1029F0002A6941EA0221C16100F010F870BDC1618D
:102A00003068C169704781613068816970470646E6
:102A100006F13C040D4620780128704701206070C3
:102A20000021217000207047012020700221617078
:102A30007047F0B57B4C05687B4B7C4E7C4FDFF8D4
:102A4000F4C1A04218BFB0F1804F07D0604518BF55
:102A5000B84203D0B04218BF98420DD14A6825F061
:102A600070051543A04218BFB0F1804F17D06045E4
:102A70001CBFB842B04212D098421CBF6E4A90426E
:102A80000DD06E4EB0421CBF6D4A904207D06D4EC5
:102A9000B0421FBF6C4A90426C4EB04203D1CA682C
:102AA00025F4407515434A6925F0800515430560F6
:102AB000A0428D68C5620A68826212BF98420969A5
:102AC000016301224261F0BDF0B5026A554F520820
:102AD00052000262066A446885690B688A6825F0BC
:102AE000730526F002061D4316434F4BB84218BF2C
:102AF000984207D1CA6826F008061643B84226F065
:102B0000040601D0984205D14B698A6924F44074C7
:102B10001C43144344608561496841630662F0BD0B
:102B2000F0B5026A3F4E22F010020262B042056A1E
:102B3000436884690A6824F4E64444EA02248A6803
:102B400025F0200545EA0215374A18BF904208D102
:102B5000CF6825F0800545EA0715B04225F040050D
:102B600001D0904206D14E698A6923F4406316432E
:102B700043EA860343608461496881630562F0BD6E
:102B8000F0B5026A22F480720262056A4368C46981
:102B90008E680A6825F4007524F0730445EA06255A
:102BA0001443204E204AB04218BF904208D1CF684B
:102BB00025F4006545EA0725B04225F4806501D07B
:102BC000904206D14E698A6923F44053164343EA82
:102BD00006134360C4614968C1630562F0BD70B506
:102BE000026A104E22F480520262B042046A4268C5
:102BF000C3690D6823F4E64343EA05238D6824F492
:102C0000005444EA05341CBF074DA84204D14D6965
:102C100022F4804242EA85124260C361496801643D
:102C2000046270BD0000014000040140000C00403F
:102C30000008004000040040004001400044014002
:102C40000048014000180040001C004000200040E7
:102C500070B500F13C031A78012A01D1022070BD41
:102C600001221A7002245C7005686E68AC680A68FC
:102C700026F0700616436E6002681148824218BF43
:102C8000B2F1804F11D00F4882421CBF0E4DAA42B4
:102C90000BD00E4882421CBF0D4DAA4205D00D48F4
:102CA00082421CBF0C4DAA4204D1486824F0800423
:102CB00004439460012159700020187070BD000019
:102CC000000001400004004000080040000C0040EB
:102CD00000040140004001400018004038B504469F
:102CE00000F082FA14F1010F054602D00448017881
:102CF000641800F079FA401BA042FAD331BD00BF3E
:102D0000000000202DE9F843040016D02078DFF8F9
:102D10000863C10713D5B06800F00C00042807D081
:102D2000B06800F00C0008283ED1706841023BD525
:102D30003068810303D56068002800F0FF802078A8
:102D4000B64F810719D5B06810F00C0F07D0B068E6
:102D500000F00C0008285CD17068410259D430683A
:102D6000810703D5E068012840F0E88031682069D8
:102D700021F0F80141EAC0013160217808076CD5E3
:102D80006069A749002862D001220A6000F02CFA8D
:102D90000546706F810700F1D38000F025FA401BD3
:102DA0000228F6D9032034E16068B0F5803F04D1F1
:102DB000306840F48030306011E0B0F5A02F30680A
:102DC00006D140F480203060316841F4803105E064
:102DD00020F480303060316821F4802131606068F7
:102DE00058B100F001FA054630688103A7D400F01D
:102DF000FBF9401B6528F7D3D4E700F0F5F9054649
:102E0000306881039BD500F0EFF9401B6528F7D3AC
:102E1000C8E7E06870B10121396000F0E5F90546C6
:102E20003068810700F1B88000F0DEF9401B02280D
:102E3000F6D9B7E7386000F0D7F90546316888075A
:102E40009BD500F0D1F9401B0228F7D9AAE708600A
:102E500000F0CAF90546706F810771D500F0C4F91A
:102E6000401B0228F7D99DE70528306F06D140F0B6
:102E700004003067306F40F0010005E0400840007A
:102E80003067306F20F00400306741F28938A06865
:102E900068B100F0A9F98146306F810700F189809F
:102EA00000F0A2F9A0EB09004045F5D37AE700F065
:102EB0009BF98146306F81077BD500F095F9A0EB37
:102EC00009004045F6D36DE700F08EF9401B02285B
:102ED00040F2828066E700F087F9001B022840F28A
:102EE00093805FE70020386600F07EF90446306882
:102EF000810140F18D8000F077F9001B0228F6D99E
:102F000050E701281AD0B068E26900F480019142CC
:102F100002BF00F03F01226A91420FD147F6C07113
:102F2000626A0140914202BF00F44031A26A9142BC
:102F300002BF00F07060E16A884269D0012068E059
:102F4000207841073AD5306C0025C1000AD400959D
:102F50000125316C41F080513164306C00F08050BB
:102F600000900098DFF8BC80D8F80000C1051BD4A1
:102F7000D8F8000040F48070C8F8000000F034F980
:102F80008146D8F80000C1050ED400F02DF9A0EB61
:102F900009000228F5D905E73068216920F0F8001A
:102FA00040EAC1003060E8E6A06801287FF45CAF29
:102FB00060E71DB1306C20F080503064A06938B3F8
:102FC000B16801F00C0108299BD002288AD10020A9
:102FD000386600F009F90546306881013FF574AFA5
:102FE000E269206A616A0243A06A400842EA8112EB
:102FF000401E42EA0042E06A42EA00627260012139
:10300000396600F0F1F80446306881017FF563AF5E
:103010000020BDE8F28300BF0038024000004742B4
:10302000800E4742007000402DE9F04104000F4639
:1030300078D0404E306800F00F00B84202D200F065
:1030400073F86FD120683C4D810712D5400703D536
:10305000A96841F4E051A9602078010703D5A86868
:1030600040F46040A860A968A06821F0F001014325
:10307000A9602178C8074DD56068012802D1296868
:103080008A0305E0022818BF032803D129688A01B2
:1030900003D447E029688A0744D5A968890840EA2B
:1030A0008100A86000F0A0F88046A868616800F080
:1030B0000C00B0EB810F2DD000F096F8A0EB0800CB
:1030C00041F289318842F0D3032021E02078410782
:1030D00005D5AA68E06822F4E0520243AA6021788C
:1030E000080706D5A968206921F4604141EAC001BA
:1030F000A96000F029F8AA681049114BC2F3031225
:10310000895CC84018600F48006800F04DF8002046
:10311000BDE8F081306800F00F008742D6D200F0A1
:1031200003F8D3D00120F3E73770316801F00F01C5
:10313000B9427047003C024000380240603200084B
:103140000C0000200800002030B5144C606800F02E
:103150000C00042802D0082802D01DE0104830BD21
:10316000226820680023410202F03F0204D525684E
:103170000B49C5F3881003E020680A49C0F38810A2
:10318000A1FB0001FEF7A0F82168C1F30141491C31
:103190004900B0FBF1F030BD024830BD04380240B8
:1031A00040787D010024F40038B50D4D0D4B2A7890
:1031B00004464FF47A711868B1FBF2F2B0FBF2F0FA
:1031C000FFF766F950B9102C08D2002221464FF0C3
:1031D000FF30FFF735F9AC60002032BD012032BD71
:1031E000000000200C00002001484068704700BF2C
:1031F0000000002070B40B00002111480068C001DD
:103200000FD4080070BC70475D782D0225439C7870
:1032100026042E43DC78240634431B1D0460121F51
:10322000091D002AEDD0E02000060468002CFAD029
:103230001C78042AE8D204705B1C491C521EF0E77B
:10324000FCED00E00448054A016841F470010160AA
:103250004FF000601060704788ED00E008ED00E07E
:103260000000000000000000010203040607080936
:1032700030B450F8041B79B1026843680244083046
:10328000DC0744BFA9F10104E31852F8045B43F8DA
:10329000045B091FF9D1ECE730BC704710B5074952
:1032A00079441831064C7C44163404E00A68081D41
:1032B000114488470146A142F8D110BD4C000000DE
:1032C0006C0000004EF68851CEF20001086840F410
:1032D00070000860BFF34F8FBFF36F8F4FF0007027
:1032E000E1EE100A704718B583B003001400009394
:1032F0000191029469460520ABBE01221900201AF3
:10330000AFF3008004B010BDEBDDFFFF8C000000C8
:10331000100000200000000059FFFFFF1000000017
:10332000E400000000000020000000007047FEE7FD
:10333000FEE7FEE7FEE770477047704700F006B80B
:103340000148FEF7FBBC0000100000200248416865
:1033500002788A18426070470000002080B58DF81E
:10336000000001226946012000F008F8012802D17E
:103370009DF8000002BD4FF0FF3002BD80B500286F
:1033800002D400F003F802BD002002BD80B5002980
:1033900001D1002002BD012801D0022802D1FFF78F
:1033A00029FF02BDFFF79FFF02BD000000F00DF8EE
:1033B000002801D0FFF772FFAFF300800020AFF3C9
:1033C0000080FFF7A3F800F002F80120704700F03A
:1033D00001B8000007463846FEF77EFCFBE738B52B
:1033E00004460D462846FFF7B9FFA84218BF00243F
:1033F000204632BD01488047014800474532000859
:10340000153400080100000000000000100000005A
:103410000024F400AFF30080FFF754FFFFF7C6FF6E
:10342000FFF7FEBFFFF7FEBFFFF7FEBFFFF7FEBFD0
:10343000FFF7FEBFFFF7FEBFFFF7FEBFFFF7FEBFC0
:10344000FFF7FEBFFFF7FEBFFFF7FEBFFFF7FEBFB0
:10345000FFF7FEBFFFF7FEBFFFF7FEBFFFF7FEBFA0
:10346000FFF7FEBFFFF7FEBFFFF7FEBFFFF7FEBF90
:10347000FFF7FEBFFFF7FEBFFFF7FEBFFFF7FEBF80
:10348000FFF7FEBFFFF7FEBFFFF7FEBFFFF7FEBF70
:10349000FFF7FEBFFFF7FEBFFFF7FEBFFFF7FEBF60
:1034A000FFF7FEBFFFF7FEBFFFF7FEBFFFF7FEBF50
:1034B000FFF7FEBFFFF7FEBFFFF7FEBFFFF7FEBF40
:1034C000FFF7FEBFFFF7FEBFFFF7FEBFFFF7FEBF30
:1034D000FFF7FEBFFFF7FEBFFFF7FEBFFFF7FEBF20
:1034E000FFF7FEBFFFF7FEBFFFF7FEBFFFF7FEBF10
:1034F000FFF7FEBFFFF7FEBFFFF7FEBFFFF7FEBF00
:10350000FFF7FEBFFFF7FEBFFFF7FEBFFFF7FEBFEF
:10351000FFF7FEBFFFF7FEBFFFF7FEBFFFF7FEBFDF
:10352000FFF7FEBFFFF7FEBFFFF7FEBFFFF7FEBFCF
:10353000FFF7FEBFFFF7FEBFFFF7FEBFFFF7FEBFBF
:10354000FFF7FEBFFFF7FEBFFFF7FEBFFFF7FEBFAF
:10355000FFF7FEBFFFF7FEBFFFF7FEBFFFF7FEBF9F
:10356000FFF7FEBFFFF7FEBFFFF7FEBFFFF7FEBF8F
:10357000FFF7FEBFFFF7FEBFFFF7FEBFFFF7FEBF7F
:04358000FFF7FEBF94
:0400000508003415A6
:00000001FF
