:020000040800F2
:100000009804002069180008F1170008F317000889
:10001000F5170008F7170008F9170008000000009E
:10002000000000000000000000000000FB170008B6
:10003000FD17000800000000FF1700080118000865
:1000400095180008991800089D180008A1180008C4
:10005000A5180008A9180008AD180008B118000874
:10006000B5180008B9180008BD180008C118000824
:10007000C5180008C9180008CD180008D1180008D4
:10008000D5180008D918000805180008DD18000860
:10009000E1180008E5180008E9180008ED18000844
:1000A000F1180008F5180008F9180008FD180008F4
:1000B0000119000805190008091900080D190008A0
:1000C0001119000815190008191900081D19000850
:1000D0002119000825190008291900082D19000800
:1000E0003119000835190008391900083D190008B0
:1000F0004119000845190008491900084D19000860
:100100005119000855190008591900085D1900080F
:100110006119000865190008691900086D190008BF
:100120007119000875190008791900087D1900086F
:100130008119000885190008891900088D1900081F
:100140009119000895190008991900089D190008CF
:10015000A1190008A5190008A9190008AD1900087F
:10016000B1190008B5190008B9190008BD1900082F
:10017000C1190008C5190008C919000800000000CD
:10018000CD190008D1190008D5190008D91900089F
:10019000DD190008E1190008E5190008E91900084F
:1001A000ED190008F1190008F519000870B50446AA
:1001B00000250CB9012070BD04F13006306920B96A
:1001C000204600F007FA756135733069C10600F109
:1001D00092803069DFF8B01320F4885040F00200BC
:1001E0003061086820F4403008600A6860680243A3
:1001F0000A602068416821F480714160206841688C
:10020000226941EA022141602068416821F0407181
:10021000416021684A68A06802434A60206881689A
:1002200021F40061816021688A68E06802438A6085
:100230002068A16ADFF854239142816821F070613F
:1002400081600CD021688A68A06A02438A6000F04D
:100250005BF821688A68E06A02438A6001E000F086
:1002600053F82068816821F0020100F049F8227EED
:1002700041EA4201816094F8200021680028486822
:100280000FD040F4006048602068416821F460416C
:10029000416020684168626A521E41EA4231416011
:1002A00002E020F4006048602068C16A21F4700117
:1002B000C1622068C16AE269521E41EA0251C1620C
:1002C0002068816821F4007100F01AF8327841EA60
:1002D000422100F015F821F4806100F011F8626904
:1002E00041EA822181607561316921F0020141F0AA
:1002F0000101316100E0012500203073284670BD06
:1003000081602068816870472068816821F04051D1
:100310008160704738B5044621680A6848689207CA
:1003200029D5800627D5226CD00603D4226C42F44E
:1003300000722264886810F0405F04BF207E0028AD
:1003400012D1C86A10F4700F02D0886842050BD42D
:10035000486820F020004860206C20F48070206401
:10036000206CC10400F066F8204600F0AFF9216867
:100370006FF01200086021680A684868520730D59B
:1003800000062ED5226CD00603D4226C42F4005213
:100390002264886810F4401F1CD1886B10F4401F41
:1003A00002D08868420515D44868420512D488688E
:1003B00010F0405F04BF207E00280BD1486820F079
:1003C00080004860206C20F480502064206CC105BF
:1003D00000F030F8204600F097F921686FF00C002B
:1003E0000860206802684168D2070FD549060DD51C
:1003F0000068C1070AD5206C40F480302064204694
:1004000000F083F921686FF001000860206802683D
:10041000416892060DD549010BD5626C42F002028B
:1004200062646FF020050560204600F06FF92068D7
:10043000056031BD03D4206C40F00100206470479A
:1004400078B502460020009092F83C30012B01D193
:10045000022072BD012082F83C0007240B6810685E
:100460000A2B12D30A3BC56803EB43039C4025EAE1
:100470000404C460C3680D688C68A5F10A0606EB25
:100480004606B4402343C3600FE0056903EB430312
:1004900004FA03F325EA0303036103690D688C681A
:1004A00005EB4505AC40234303611F244B68072B34
:1004B0000CD25B1E456B00F059F84463436B4D68EA
:1004C0000C886E1E00F04DF843631BE00D2B0CD220
:1004D000DB1F056B00F04AF80463036B4D680C8862
:1004E000EE1F00F03EF803630CE00D3BC56A00F020
:1004F0003DF8C462C36A4D680C88A5F10D0600F092
:1005000030F8C362224B984226D10C681E48122C48
:1005100007D1036823F400030360046844F48004F3
:1005200004600B681D4CA34218BF112B14D1036843
:1005300023F480030360056845F40005056008683E
:10054000A04209D11449134C0B68B3FBF4F40A2000
:100550004443009400F010F8002182F83C10002081
:1005600072BD06EB8606B4402343704703EB83035A
:100570009C4025EA0404704702E00098401E009069
:1005800000980028F9D17047042301400100000FB2
:100590000020014040420F000C000020120000101B
:1005A00081B00020009000224248416841F480411F
:1005B0004160416801F48041009100990092036814
:1005C00043F080530360006800F080500090009872
:1005D00001B0704710B586B000F065F82168364864
:1005E000814227D1002235480092416941F40071CF
:1005F0004161416901F4007100910099009240212C
:10060000036843F0010303600322006800F0010067
:10061000009000982A48019102920021039101A9BB
:1006200000F08CF800220021122000F0A1F9122025
:1006300000F0BBF906B010BD81B0006821498842C6
:100640000BD100221B480092016841F004010160B7
:10065000006800F004000090009801B0704710B5E9
:1006600086B000F020F821681648814219D1002296
:10067000124800920222016841F0080101604FF423
:100680000051006800F00800009000980E480191A9
:1006900002920021039104910221059101A900F029
:1006A0004DF806B010BD04461422002101A800F048
:1006B000A7B9000040380240002101403038024014
:1006C0000000024000080040000C0240704730B4B7
:1006D000002513E050F8042BD30744BFA9F1010310
:1006E0009A18091F042942F8045BFAD213468C07B2
:1006F00044BF15809B1CC90748BF1D7050F8041BE0
:100700000029E7D130BC704770477047704730B45C
:100710000EE00268436802440830DC0744BFA9F1D8
:100720000104E31852F8045B43F8045B091FF9D194
:1007300050F8041B0029ECD130BC70472DE9F84F6C
:100740000D4600267049714A0F23044601202F6888
:10075000B04000EA0708804540F0CB804FEA460CE5
:10076000032707FA0CF76FEA070E6F68012F18BF0F
:10077000022F03D0112F18BF122F12D1A768D5F85E
:100780000C900EEA070709FA0CF949EA0707A76077
:10079000676827EA00006F68C7F30017B74038435F
:1007A0006060E068AF680EEA000007FA0CF73843B3
:1007B000E060B0006F68022F18BF122F12D1F70847
:1007C00004EB870700F01C09D7F820A003FA09FB07
:1007D0002AEA0B0AD5F810B00BFA09F949EA0A0916
:1007E000C7F8209027680EEA070E2F7907F0030755
:1007F00007FA0CF747EA0E0727606F68FF0078D505
:10080000002700974FEA960C176847F48047176057
:1008100000F00C00176807F48047009703FA00FE09
:10082000009F3B4F57F82C7027EA0E0E394FBC4201
:1008300008BF00272CD0384FBC4208BF012727D063
:10084000364FBC4208BF022722D0354FBC4208BFFA
:1008500003271DD0334FBC4208BF042718D0324FA6
:10086000BC4208BF052713D0304FBC4208BF062743
:100870000ED02F4FBC4208BF072709D02D4FBC42D6
:1008800008BF082704D02C4FBC420CBF09270A27F9
:1008900007FA00F01E4F40EA0E0047F82C006FEAFE
:1008A00008000F6800EA070C6F68FF0348BF48EABA
:1008B0000C0CC1F800C04F6800EA070C6F68BF035A
:1008C00048BF48EA0C0CC1F804C08F6800EA070C66
:1008D0006F68FF0248BF48EA0C0CC1F808C0CF6837
:1008E00000EA070C6868800248BF48EA0C0CC1F8AF
:1008F0000CC0761C0F2E7FF629AFBDE8F18F02B930
:100900000904816170470000003C01404438024006
:100910000838014000000240000402400008024084
:10092000000C024000100240001402400018024077
:10093000001C024000200240002402400901020085
:1009400002D4294881547047284B02F00F021A4400
:1009500002F8041C7047264B19684FF6FF0200028C
:10096000114000F4E06008432249084318607047D2
:1009700070B51F4B1C68C4F302230124C3F10705A3
:10098000052D2EBF0F2504FA05F56D1E1E1D072E21
:1009900034BF0023DB1E2940994004FA03F3BDE86D
:1009A00070405B1E1A401143C8E7010007D40122C2
:1009B00000F01F01104B8A40400943F82020704787
:1009C00010B5401EB0F1807F01D3012010BD0B4C4B
:1009D00060600F214FF0FF30FFF7B0FF0021A160F2
:1009E00007202060002010BD00E400E018ED00E0CA
:1009F0000CED00E00000FA0500E100E010E000E08E
:100A000010B5044610460A460146204600F002F89A
:100A1000204610BD62F30F2262F31F42401810F00F
:100A2000030308D0C91A1FD3DB0748BF00F8012D04
:100A300028BF20F8022D130030B414461546103993
:100A400028BF20E93C00FAD8490728BF20E90C005C
:100A500048BF40F8042D890028BF20F8022D48BF68
:100A600000F8012D30BC7047C91818BF00F8012DDF
:100A7000CB0728BF00F8012D7047000002206870E6
:100A8000211D206800F091F801206870002032BD1F
:100A900038B5040001D1012032BD00F00AF818B9C0
:100AA00000F003F8FFF7C8FDE8E7002129702046B1
:100AB000704704F13C056878704770B500F063F842
:100AC00001D1022070BD00F06BF832B1042A17D0BA
:100AD000082A28D00C2A39D04AE03068294600F08C
:100AE000AFF83068816941F0080100F048F821F062
:100AF0000401816131688A69286902438A6137E0AB
:100B00003068294600F0C8F83068816941F4006116
:100B100000F035F821F4806100F031F82A6941EAEB
:100B20000221816124E03068294600F0E5F8306850
:100B3000C16941F0080100F01EF821F00401C16113
:100B40003168CA6928690243CA6111E030682946E0
:100B500000F001F93068C16941F4006100F00BF860
:100B600021F4806100F007F82A6941EA0221C1619D
:100B700000F010F870BDC1613068C16970478161D3
:100B8000306881697047064606F13C040D462078BE
:100B900001287047012060700021217000207047FB
:100BA00001202070022161707047F0B57B4C056810
:100BB0007B4B7C4E7C4FDFF8F4C1A04218BFB0F1F4
:100BC000804F07D0604518BFB84203D0B04218BF6D
:100BD00098420DD14A6825F070051543A04218BF10
:100BE000B0F1804F17D060451CBFB842B04212D060
:100BF00098421CBF6E4A90420DD06E4EB0421CBF50
:100C00006D4A904207D06D4EB0421FBF6C4A904271
:100C10006C4EB04203D1CA6825F4407515434A6949
:100C200025F0800515430560A0428D68C5620A68FD
:100C3000826212BF98420969016301224261F0BDDC
:100C4000F0B5026A554F520852000262066A4468C3
:100C500085690B688A6825F0730526F002061D4336
:100C600016434F4BB84218BF984207D1CA6826F0C6
:100C700008061643B84226F0040601D0984205D172
:100C80004B698A6924F440741C43144344608561B1
:100C9000496841630662F0BDF0B5026A3F4E22F03A
:100CA00010020262B042056A436884690A6824F44B
:100CB000E64444EA02248A6825F0200545EA021544
:100CC000374A18BF904208D1CF6825F0800545EA21
:100CD0000715B04225F0400501D0904206D14E697B
:100CE0008A6923F44063164343EA860343608461C0
:100CF000496881630562F0BDF0B5026A22F4807232
:100D00000262056A4368C4698E680A6825F4007542
:100D100024F0730445EA06251443204E204AB042CD
:100D200018BF904208D1CF6825F4006545EA072531
:100D3000B04225F4806501D0904206D14E698A699F
:100D400023F44053164343EA06134360C4614968E1
:100D5000C1630562F0BD70B5026A104E22F4805284
:100D60000262B042046A4268C3690D6823F4E64334
:100D700043EA05238D6824F4005444EA05341CBF7B
:100D8000074DA84204D14D6922F4804242EA8512FF
:100D90004260C36149680164046270BD00000140A3
:100DA00000040140000C0040000800400004004026
:100DB000004001400044014000480140001800404C
:100DC000001C0040002000402DE9F843040016D02C
:100DD0002078DFF8F462C10713D5B06800F00C008A
:100DE000042807D0B06800F00C0008283DD17068D6
:100DF00041023AD53068810303D56068002800F0CD
:100E00005E812078B14F810719D5B06810F00C0FC2
:100E100007D0B06800F00C0008285BD17068410270
:100E200058D43068810703D5E068012840F0478135
:100E30003168206921F0F80141EAC0013160217870
:100E4000080779D56069A249002868D001220A60A4
:100E500000F042F90546706F81076DD400F03CF94F
:100E6000401B0228F7D903202CE16068B0F5803FD1
:100E700004D1306840F48030306011E0B0F5A02F2C
:100E8000306806D140F480203060316841F4803110
:100E900005E020F480303060316821F48021316039
:100EA000606858B100F018F9054630688103A8D48D
:100EB00000F012F9401B6528F7D3D4E700F00CF9D5
:100EC0000546306881039CD500F006F9401B652873
:100ED000F7D3C8E7E068A8B10121396000F0FCF859
:100EE00005463068810705D400F0F6F8401B02285B
:100EF000F7D9B8E73068216920F0F80040EAC1006E
:100F000030609CE7386000F0E7F8054631688807F4
:100F100095D500F0E1F8401B0228F7D9A3E7086057
:100F200000F0DAF80546706F810705D500F0D4F8B7
:100F3000401B0228F7D996E7207841075FD5306C2F
:100F40000025C1000AD400950125316C41F0805183
:100F50003164306C00F0805000900098DFF87481AC
:100F6000D8F80000C10513D4D8F8000040F4807010
:100F7000C8F8000000F0B0F88146D8F80000C105BC
:100F800006D400F0A9F8A0EB09000228F5D96AE719
:100F9000A068012805D00528306F06D140F0040074
:100FA0003067306F40F0010005E0400840003067D6
:100FB000306F20F00400306741F28938A06860B1DA
:100FC00000F08AF88146306F810713D400F084F86E
:100FD000A0EB09004045F6D345E700F07DF88146D7
:100FE000306F810706D500F077F8A0EB0900404587
:100FF000F6D338E71DB1306C20F080503064A06922
:1010000000285ED0B16801F00C0108293AD002280E
:101010002AD10020386600F05FF80546306881016B
:1010200005D500F059F8401B0228F7D91BE7E06905
:10103000216A626A0843A16A490840EA8210491E8F
:1010400040EA0140E16A40EA0160706001203866D0
:1010500000F042F804463068810132D400F03CF8D8
:10106000001B0228F7D9FEE60020386600F034F8AD
:1010700004463068810124D500F02EF8001B0228B8
:10108000F7D9F0E601281AD0B068E26900F48001CF
:10109000914202BF00F03F01226A91420FD147F610
:1010A000C071626A0140914202BF00F44031A26AFD
:1010B000914202BF00F07060E16A884201D00120D5
:1010C00000E00020BDE8F283003802400000474203
:1010D000800E47420070004001484068704700BFE2
:1010E00000000020F0B589B000F06EF900F006F9BC
:1010F000142200F0F2F800200590A74CA748A84D54
:101100000168A84EA84F41F020010160026802F07A
:1011100020020592002205990592036843F080039E
:101120000360016801F0800100F0E3F843F001037F
:101130000360016801F0010100F0DBF843F04003B7
:101140000360016801F0400100F0D3F843F01003A0
:101150000360016801F0100100F0CBF843F00803D0
:101160000360016801F0080100F0C3F843F00403D4
:101170000360016801F004010591059905920121C0
:10118000036843F002030360006800F0020005906A
:1011900005982046FFF7B3FB00224FF4E0512846A4
:1011A000FFF7ADFB0022FF213046FFF7A8FB00222E
:1011B0004FF400513846FFF7A2FB01210091019145
:1011C00020460021029103916946FFF7B7FA4FF4D8
:1011D000404000F07DF820466946FFF7AFFA032053
:1011E00000F076F838466946FFF7A8FA4FF4C07069
:1011F00000F06EF869466D48FFF7A0FA4FF4E05131
:1012000000F06FF82846FFF799FAFF2100F069F81F
:101210003046FFF793FA4FF4005100F062F8384679
:10122000FFF78CFA102200F058F8614C61482060FA
:1012300004F130056048A0624FF4803101200022A3
:10124000E06160616160A2602261227684F8202002
:10125000E262E2602A702046FEF7A8FF0620012124
:10126000009001910022029269462046FFF7E8F8BB
:10127000082200F032F81C22002102A8FFF7C0FB70
:101280004E48A8610721E961002028624FF6FF71EE
:10129000A8622863696204F14800FFF7F9FB0021A6
:1012A0000091019104F14800694600F0A7F860211F
:1012B0000022029103920492069202A9042204F1F0
:1012C0004800FFF7FAFB04F14800FFF7C8F9FEE712
:1012D0000021009001910291704700216846FFF7BC
:1012E0008FBB009101220021029103910192694676
:1012F00070470591059905920368704780B592B0D3
:101300003022002106A8FFF77BFB1422002101A850
:10131000FFF776FB002000902948016841F08051DA
:1013200001600021006800F080500090009825487E
:1013300000910221026822F4404242F4804202609D
:101340000122006800F44040009000980691099244
:1013500010210A91022200210C920D910822642191
:101360000E920F91022204211092119106A8FFF70C
:101370002BFD02210291002203920F204FF4A05175
:10138000019004914FF480520592032101A800F0CE
:101390007BF813B000BD000000140240303802405A
:1013A00000080240000C02400018024000100240F9
:1013B00010000020002101400100000F0008004043
:1013C000403802400070004080B50B48016841F48D
:1013D00000710160026842F480620260016841F4B9
:1013E000807101600320FFF7B6FA002000F00CF9CD
:1013F000FFF7D6F8002002BD003C024070B500F1B6
:101400003C031A78012A01D1022070BD01221A7012
:1014100002245C7005686E68AC680A6826F0700685
:1014200016436E6002681148824218BFB2F1804FC5
:1014300011D00F4882421CBF0E4DAA420BD00E485D
:1014400082421CBF0D4DAA4205D00D4882421CBFEE
:101450000C4DAA4204D1486824F0800404439460EF
:10146000012159700020187070BD0000000001407B
:101470000004004000080040000C0040000401404F
:1014800000400140001800402DE9F04104000F46E3
:1014900054D0404E306800F00F00B84202D200F045
:1014A00073F84BD120683C4D810712D5400703D516
:1014B000A96841F4E051A9602078010703D5A86824
:1014C00040F46040A860A968A06821F0F0010143E1
:1014D000A9602178C80729D56068012802D1296848
:1014E0008A0305E0022818BF032803D129688A016E
:1014F00003D423E029688A0720D5A968890840EA2F
:101500008100A860FFF7E8FD8046A868616800F0E8
:101510000C00B0EB810F09D0FFF7DEFDA0EB080057
:1015200041F289318842F0D303202BE0306800F08B
:101530000F00874204D200F027F801D0012021E0FB
:101540002078410705D5AA68E06822F4E0520243FA
:10155000AA602178080706D5A968206921F46041AE
:1015600041EAC001A96000F01FF8AA680B490C4BC2
:10157000C2F30312895CC84018600A48006800F092
:1015800043F80020BDE8F0813770316801F00F01A9
:10159000B9427047003C0240003802407017000812
:1015A0000C0000200800002030B5144C606800F0EA
:1015B0000C00042802D0082802D01DE0104830BDDD
:1015C000226820680023410202F03F0204D525680A
:1015D0000B49C5F3881003E020680A49C0F388105E
:1015E000A1FB000100F030F82168C1F30141491C62
:1015F0004900B0FBF1F030BD024830BD0438024074
:1016000040787D010024F40038B50D4D0D4B2A784B
:1016100004464FF47A711868B1FBF2F2B0FBF2F0B5
:10162000FFF7CEF950B9102C08D2002221464FF016
:10163000FF30FFF79DF9AC60002032BD012032BDC4
:10164000000000200C000020D3BBD9B1B2F5803FD0
:101650005BD2022A1ED98C46B1FBF2F102FB11C308
:101660001B0443EA1043B3FBF2FC02FB1C3380B2C1
:1016700040EA0343B3FBF2F002FB103240EA0C40B5
:1016800000237047022A05D98446B0FBF2F002FB22
:1016900010C270474AB105D100F0010249085FEA63
:1016A0003000704700220023704700F051B80B0053
:1016B0000200002100207047F7D30022002370476A
:1016C000904271EB030CF2D370B5B1FA81F4B3FA26
:1016D00083F52C1BA340C4F1200532FA05F63343F1
:1016E000A2405FF00046E64002E05B085FEA32029B
:1016F000841A71EB030524BF204629467641F4D3B2
:1017000002000B003000002170BD70B5B1FA81F409
:10171000B2FA82F5C4F120046419B4F12006DAD3D8
:10172000B2405FF00044F440002502E052085FEA56
:101730003303C61A71EB020E24BF30467146644172
:101740006D41F3D302000B002000290070BD0000A2
:10175000704700000448054A016841F470010160C7
:101760004FF000601060704788ED00E008ED00E089
:101770000000000000000000010203040607080941
:1017800010B5074979441831064C7C44163404E0FE
:101790000A68081D114488470146A142F8D110BDCE
:1017A0002C0000004C0000004EF68851CEF20001E3
:1017B000086840F470000860BFF34F8FBFF36F8F6D
:1017C0004FF00070E1EE100A7047000003EFFFFFDA
:1017D00088000000100000200000000033EFFFFF31
:1017E0001000000094000000000000200000000035
:1017F0007047FEE7FEE7FEE7FEE770477047704779
:1018000000F006B80148FEF785BD0000100000207A
:101810000248416802788A18426070470000002040
:1018200000F00DF8002801D0FFF7AAFFAFF3008009
:101830000020AFF30080FFF755FC00F002F8012014
:10184000704700F001B800000746384600F002F883
:10185000FBE7000080B5AFF30080024A11001820BA
:10186000ABBEFBE726000200014880470148004765
:10187000551700088918000801000000000000004A
:10188000100000000024F400AFF30080FFF78CFF8D
:10189000FFF7C6FFFFF7FEBFFFF7FEBFFFF7FEBF74
:1018A000FFF7FEBFFFF7FEBFFFF7FEBFFFF7FEBF6C
:1018B000FFF7FEBFFFF7FEBFFFF7FEBFFFF7FEBF5C
:1018C000FFF7FEBFFFF7FEBFFFF7FEBFFFF7FEBF4C
:1018D000FFF7FEBFFFF7FEBFFFF7FEBFFFF7FEBF3C
:1018E000FFF7FEBFFFF7FEBFFFF7FEBFFFF7FEBF2C
:1018F000FFF7FEBFFFF7FEBFFFF7FEBFFFF7FEBF1C
:10190000FFF7FEBFFFF7FEBFFFF7FEBFFFF7FEBF0B
:10191000FFF7FEBFFFF7FEBFFFF7FEBFFFF7FEBFFB
:10192000FFF7FEBFFFF7FEBFFFF7FEBFFFF7FEBFEB
:10193000FFF7FEBFFFF7FEBFFFF7FEBFFFF7FEBFDB
:10194000FFF7FEBFFFF7FEBFFFF7FEBFFFF7FEBFCB
:10195000FFF7FEBFFFF7FEBFFFF7FEBFFFF7FEBFBB
:10196000FFF7FEBFFFF7FEBFFFF7FEBFFFF7FEBFAB
:10197000FFF7FEBFFFF7FEBFFFF7FEBFFFF7FEBF9B
:10198000FFF7FEBFFFF7FEBFFFF7FEBFFFF7FEBF8B
:10199000FFF7FEBFFFF7FEBFFFF7FEBFFFF7FEBF7B
:1019A000FFF7FEBFFFF7FEBFFFF7FEBFFFF7FEBF6B
:1019B000FFF7FEBFFFF7FEBFFFF7FEBFFFF7FEBF5B
:1019C000FFF7FEBFFFF7FEBFFFF7FEBFFFF7FEBF4B
:1019D000FFF7FEBFFFF7FEBFFFF7FEBFFFF7FEBF3B
:1019E000FFF7FEBFFFF7FEBFFFF7FEBFFFF7FEBF2B
:0819F000FFF7FEBFFFF7FEBF89
:04000005080018894E
:00000001FF
